{
  "address": "0x2b5e1823a25f341941Ae5aF614d02eC4eD67a210",
  "abi": [
    {
      "anonymous": false,
      "inputs": [
        {
          "indexed": false,
          "internalType": "address",
          "name": "_activePoolAddress",
          "type": "address"
        }
      ],
      "name": "ActivePoolAddressSet",
      "type": "event"
    },
    {
      "anonymous": false,
      "inputs": [
        {
          "indexed": false,
          "internalType": "address",
          "name": "_b2bTokenAddress",
          "type": "address"
        }
      ],
      "name": "B2BTokenAddressSet",
      "type": "event"
    },
    {
      "anonymous": false,
      "inputs": [
        {
          "indexed": false,
          "internalType": "address",
          "name": "_busdcTokenAddress",
          "type": "address"
        }
      ],
      "name": "BUSDCTokenAddressSet",
      "type": "event"
    },
    {
      "anonymous": false,
      "inputs": [
        {
          "indexed": false,
          "internalType": "address",
          "name": "_borrowerOperationsAddress",
          "type": "address"
        }
      ],
      "name": "BorrowerOperationsAddressSet",
      "type": "event"
    },
    {
      "anonymous": false,
      "inputs": [
        {
          "indexed": false,
          "internalType": "address",
          "name": "_account",
          "type": "address"
        },
        {
          "indexed": false,
          "internalType": "uint256",
          "name": "_amount",
          "type": "uint256"
        }
      ],
      "name": "EtherSent",
      "type": "event"
    },
    {
      "anonymous": false,
      "inputs": [
        {
          "indexed": false,
          "internalType": "uint256",
          "name": "_F_BUSDC",
          "type": "uint256"
        }
      ],
      "name": "F_BUSDCUpdated",
      "type": "event"
    },
    {
      "anonymous": false,
      "inputs": [
        {
          "indexed": false,
          "internalType": "uint256",
          "name": "_F_ETH",
          "type": "uint256"
        }
      ],
      "name": "F_ETHUpdated",
      "type": "event"
    },
    {
      "anonymous": false,
      "inputs": [
        {
          "indexed": true,
          "internalType": "address",
          "name": "previousOwner",
          "type": "address"
        },
        {
          "indexed": true,
          "internalType": "address",
          "name": "newOwner",
          "type": "address"
        }
      ],
      "name": "OwnershipTransferred",
      "type": "event"
    },
    {
      "anonymous": false,
      "inputs": [
        {
          "indexed": true,
          "internalType": "address",
          "name": "staker",
          "type": "address"
        },
        {
          "indexed": false,
          "internalType": "uint256",
          "name": "newStake",
          "type": "uint256"
        }
      ],
      "name": "StakeChanged",
      "type": "event"
    },
    {
      "anonymous": false,
      "inputs": [
        {
          "indexed": false,
          "internalType": "address",
          "name": "_staker",
          "type": "address"
        },
        {
          "indexed": false,
          "internalType": "uint256",
          "name": "_F_ETH",
          "type": "uint256"
        },
        {
          "indexed": false,
          "internalType": "uint256",
          "name": "_F_BUSDC",
          "type": "uint256"
        }
      ],
      "name": "StakerSnapshotsUpdated",
      "type": "event"
    },
    {
      "anonymous": false,
      "inputs": [
        {
          "indexed": true,
          "internalType": "address",
          "name": "staker",
          "type": "address"
        },
        {
          "indexed": false,
          "internalType": "uint256",
          "name": "BUSDCGain",
          "type": "uint256"
        },
        {
          "indexed": false,
          "internalType": "uint256",
          "name": "ETHGain",
          "type": "uint256"
        }
      ],
      "name": "StakingGainsWithdrawn",
      "type": "event"
    },
    {
      "anonymous": false,
      "inputs": [
        {
          "indexed": false,
          "internalType": "uint256",
          "name": "_totalB2BStaked",
          "type": "uint256"
        }
      ],
      "name": "TotalB2BStakedUpdated",
      "type": "event"
    },
    {
      "anonymous": false,
      "inputs": [
        {
          "indexed": false,
          "internalType": "address",
          "name": "_troveManager",
          "type": "address"
        }
      ],
      "name": "TroveManagerAddressSet",
      "type": "event"
    },
    {
      "inputs": [],
      "name": "DECIMAL_PRECISION",
      "outputs": [
        {
          "internalType": "uint256",
          "name": "",
          "type": "uint256"
        }
      ],
      "stateMutability": "view",
      "type": "function"
    },
    {
      "inputs": [],
      "name": "F_BUSDC",
      "outputs": [
        {
          "internalType": "uint256",
          "name": "",
          "type": "uint256"
        }
      ],
      "stateMutability": "view",
      "type": "function"
    },
    {
      "inputs": [],
      "name": "F_ETH",
      "outputs": [
        {
          "internalType": "uint256",
          "name": "",
          "type": "uint256"
        }
      ],
      "stateMutability": "view",
      "type": "function"
    },
    {
      "inputs": [],
      "name": "NAME",
      "outputs": [
        {
          "internalType": "string",
          "name": "",
          "type": "string"
        }
      ],
      "stateMutability": "view",
      "type": "function"
    },
    {
      "inputs": [],
      "name": "activePoolAddress",
      "outputs": [
        {
          "internalType": "address",
          "name": "",
          "type": "address"
        }
      ],
      "stateMutability": "view",
      "type": "function"
    },
    {
      "inputs": [],
      "name": "b2bToken",
      "outputs": [
        {
          "internalType": "contract IB2BToken",
          "name": "",
          "type": "address"
        }
      ],
      "stateMutability": "view",
      "type": "function"
    },
    {
      "inputs": [],
      "name": "backedTokenAddress",
      "outputs": [
        {
          "internalType": "address",
          "name": "",
          "type": "address"
        }
      ],
      "stateMutability": "view",
      "type": "function"
    },
    {
      "inputs": [],
      "name": "borrowerOperationsAddress",
      "outputs": [
        {
          "internalType": "address",
          "name": "",
          "type": "address"
        }
      ],
      "stateMutability": "view",
      "type": "function"
    },
    {
      "inputs": [],
      "name": "busdcToken",
      "outputs": [
        {
          "internalType": "contract IBUSDCToken",
          "name": "",
          "type": "address"
        }
      ],
      "stateMutability": "view",
      "type": "function"
    },
    {
      "inputs": [
        {
          "internalType": "address",
          "name": "_user",
          "type": "address"
        }
      ],
      "name": "getPendingBUSDCGain",
      "outputs": [
        {
          "internalType": "uint256",
          "name": "",
          "type": "uint256"
        }
      ],
      "stateMutability": "view",
      "type": "function"
    },
    {
      "inputs": [
        {
          "internalType": "address",
          "name": "_user",
          "type": "address"
        }
      ],
      "name": "getPendingETHGain",
      "outputs": [
        {
          "internalType": "uint256",
          "name": "",
          "type": "uint256"
        }
      ],
      "stateMutability": "view",
      "type": "function"
    },
    {
      "inputs": [
        {
          "internalType": "uint256",
          "name": "_BUSDCFee",
          "type": "uint256"
        }
      ],
      "name": "increaseF_BUSDC",
      "outputs": [],
      "stateMutability": "nonpayable",
      "type": "function"
    },
    {
      "inputs": [
        {
          "internalType": "uint256",
          "name": "_ETHFee",
          "type": "uint256"
        }
      ],
      "name": "increaseF_ETH",
      "outputs": [],
      "stateMutability": "nonpayable",
      "type": "function"
    },
    {
      "inputs": [],
      "name": "isOwner",
      "outputs": [
        {
          "internalType": "bool",
          "name": "",
          "type": "bool"
        }
      ],
      "stateMutability": "view",
      "type": "function"
    },
    {
      "inputs": [],
      "name": "owner",
      "outputs": [
        {
          "internalType": "address",
          "name": "",
          "type": "address"
        }
      ],
      "stateMutability": "view",
      "type": "function"
    },
    {
      "inputs": [
        {
          "internalType": "uint256",
          "name": "amount",
          "type": "uint256"
        }
      ],
      "name": "receiveBackedToken",
      "outputs": [],
      "stateMutability": "nonpayable",
      "type": "function"
    },
    {
      "inputs": [
        {
          "internalType": "address",
          "name": "_b2bTokenAddress",
          "type": "address"
        },
        {
          "internalType": "address",
          "name": "_busdcTokenAddress",
          "type": "address"
        },
        {
          "internalType": "address",
          "name": "_troveManagerAddress",
          "type": "address"
        },
        {
          "internalType": "address",
          "name": "_borrowerOperationsAddress",
          "type": "address"
        },
        {
          "internalType": "address",
          "name": "_activePoolAddress",
          "type": "address"
        },
        {
          "internalType": "address",
          "name": "_backedTokenAddress",
          "type": "address"
        }
      ],
      "name": "setAddresses",
      "outputs": [],
      "stateMutability": "nonpayable",
      "type": "function"
    },
    {
      "inputs": [
        {
          "internalType": "address",
          "name": "",
          "type": "address"
        }
      ],
      "name": "snapshots",
      "outputs": [
        {
          "internalType": "uint256",
          "name": "F_ETH_Snapshot",
          "type": "uint256"
        },
        {
          "internalType": "uint256",
          "name": "F_BUSDC_Snapshot",
          "type": "uint256"
        }
      ],
      "stateMutability": "view",
      "type": "function"
    },
    {
      "inputs": [
        {
          "internalType": "uint256",
          "name": "_B2Bamount",
          "type": "uint256"
        }
      ],
      "name": "stake",
      "outputs": [],
      "stateMutability": "nonpayable",
      "type": "function"
    },
    {
      "inputs": [
        {
          "internalType": "address",
          "name": "",
          "type": "address"
        }
      ],
      "name": "stakes",
      "outputs": [
        {
          "internalType": "uint256",
          "name": "",
          "type": "uint256"
        }
      ],
      "stateMutability": "view",
      "type": "function"
    },
    {
      "inputs": [],
      "name": "totalB2BStaked",
      "outputs": [
        {
          "internalType": "uint256",
          "name": "",
          "type": "uint256"
        }
      ],
      "stateMutability": "view",
      "type": "function"
    },
    {
      "inputs": [],
      "name": "troveManagerAddress",
      "outputs": [
        {
          "internalType": "address",
          "name": "",
          "type": "address"
        }
      ],
      "stateMutability": "view",
      "type": "function"
    },
    {
      "inputs": [
        {
          "internalType": "uint256",
          "name": "_B2Bamount",
          "type": "uint256"
        }
      ],
      "name": "unstake",
      "outputs": [],
      "stateMutability": "nonpayable",
      "type": "function"
    }
  ],
  "transactionHash": "0xd96e2706c50b011819e773ce62cc334bc6232f951aaed2c9199ef2659f08164c",
  "args": [],
  "numDeployments": 1,
  "solcInputHash": "18508ab469106970bdcb4e830f974b4f",
  "bytecode": "0x608060405234801561001057600080fd5b50600080546001600160a01b0319163390811782556040519091907f8be0079c531659141344cd1fd0a4f28419497f9722a3daafe3b4186f6b6457e0908290a36114f68061005f6000396000f3fe608060405234801561001057600080fd5b506004361061014d5760003560e01c80638b9345ad116100c3578063acb7becb1161007c578063acb7becb146103be578063b08bc722146103db578063b7f8cf9b146103e3578063b9bbe00f146103eb578063c55956d2146103f3578063d290dcfc146103fb5761014d565b80638b9345ad146102d25780638da5cb5b146102f85780638f32d59b14610300578063a20baee61461031c578063a3f4df7e14610324578063a694fc3a146103a15761014d565b80633e93b6f7116101155780633e93b6f7146102225780635a4d28bb1461022a57806360e3d2251461024e5780636590c972146102565780636b129b991461025e5780636cfb6bf9146102845761014d565b806316934fc4146101525780631e3e2a1a1461018a5780632e17de78146101a95780633350695e146101c657806334b3081f146101e3575b600080fd5b6101786004803603602081101561016857600080fd5b50356001600160a01b0316610403565b60408051918252519081900360200190f35b6101a7600480360360208110156101a057600080fd5b5035610415565b005b6101a7600480360360208110156101bf57600080fd5b50356104a4565b6101a7600480360360208110156101dc57600080fd5b50356106e8565b610209600480360360208110156101f957600080fd5b50356001600160a01b0316610779565b6040805192835260208301919091528051918290030190f35b610178610792565b610232610798565b604080516001600160a01b039092168252519081900360200190f35b6101786107a7565b6102326107ad565b6101786004803603602081101561027457600080fd5b50356001600160a01b03166107bc565b6101a7600480360360c081101561029a57600080fd5b506001600160a01b038135811691602081013582169160408201358116916060810135821691608082013581169160a00135166107cd565b610178600480360360208110156102e857600080fd5b50356001600160a01b03166109f0565b6102326109fb565b610308610a0a565b604080519115158252519081900360200190f35b610178610a1b565b61032c610a27565b6040805160208082528351818301528351919283929083019185019080838360005b8381101561036657818101518382015260200161034e565b50505050905090810190601f1680156103935780820380516001836020036101000a031916815260200191505b509250505060405180910390f35b6101a7600480360360208110156103b757600080fd5b5035610a4d565b6101a7600480360360208110156103d457600080fd5b5035610c70565b610232610cf3565b610232610d02565b610178610d11565b610232610d17565b610232610d26565b60016020526000908152604090205481565b61041d610d35565b60025460009015610456576002546104539061044784670de0b6b3a764000063ffffffff610d9616565b9063ffffffff610df616565b90505b600354610469908263ffffffff610e3816565b600381905560408051918252517f4c56a0cf74da9899410b818edf6758c8af9b7b3070da97d2dcb6a5b1bf96317e9181900360200190a15050565b336000908152600160205260409020546104bd81610e92565b60006104c833610ed4565b905060006104d533610f41565b90506104e033610f84565b831561061e5760006104f28585610ff6565b90506000610506858363ffffffff61100c16565b33600090815260016020526040902081905560025490915061052e908363ffffffff61100c16565b600281905560408051918252517f3106d32b92604dc6be1e012ff5b90a5595c65b43eebc91279a5ba2000dbe5eb19181900360200190a16006546040805163a9059cbb60e01b81523360048201526024810185905290516001600160a01b039092169163a9059cbb916044808201926020929091908290030181600087803b1580156105b957600080fd5b505af11580156105cd573d6000803e3d6000fd5b505050506040513d60208110156105e357600080fd5b505060408051828152905133917f39df0e5286a3ef2f42a0bf52f32cfe2c58e5b0405f47fe512f2c2439e4cfe204919081900360200190a250505b6040805182815260208101849052815133927ff744d34ca1cb25acfa4180df5f09a67306107110a9f4b6ed99bb3be259738215928290030190a26007546040805163a9059cbb60e01b81523360048201526024810184905290516001600160a01b039092169163a9059cbb916044808201926020929091908290030181600087803b1580156106ac57600080fd5b505af11580156106c0573d6000803e3d6000fd5b505050506040513d60208110156106d657600080fd5b506106e290508261104e565b50505050565b6106f0611114565b600b54604080516323b872dd60e01b81523360048201523060248201526044810184905290516001600160a01b03909216916323b872dd916064808201926020929091908290030181600087803b15801561074a57600080fd5b505af115801561075e573d6000803e3d6000fd5b505050506040513d602081101561077457600080fd5b505050565b6005602052600090815260409020805460019091015482565b60025481565b6008546001600160a01b031681565b60045481565b6006546001600160a01b031681565b60006107c782610f41565b92915050565b6107d5610a0a565b610826576040805162461bcd60e51b815260206004820181905260248201527f4f776e61626c653a2063616c6c6572206973206e6f7420746865206f776e6572604482015290519081900360640190fd5b61082f8661115d565b6108388561115d565b6108418461115d565b61084a8361115d565b6108538261115d565b61085c8161115d565b600680546001600160a01b038089166001600160a01b03199283168117909355600780548983169084161790556008805488831690841617905560098054878316908416179055600a8054868316908416179055600b80549185169190921617905560408051918252517f177e73b0d9dead8ed15303628eabba7f7dc0506ca76473c9dd6b28e68efad4729181900360200190a1604080516001600160a01b038716815290517f177e73b0d9dead8ed15303628eabba7f7dc0506ca76473c9dd6b28e68efad4729181900360200190a1604080516001600160a01b038616815290517f41097dcc1f7cbd663d822443d7972f05b04f71918b30fe9fc59dd6e42e2280609181900360200190a1604080516001600160a01b038516815290517f5962f8af633c4df1ab230096f773a514ee5adf7785c621ecdcdb764cb7f6e3919181900360200190a1604080516001600160a01b038416815290517f8f6a6e7d20a3233e0a79883272259ffbd7a243734e397bc2b4642c79d7fa8a6d9181900360200190a16109e861120c565b505050505050565b60006107c782610ed4565b6000546001600160a01b031690565b6000546001600160a01b0316331490565b670de0b6b3a764000081565b6040518060400160405280600a8152602001694232425374616b696e6760b01b81525081565b610a5681611256565b3360009081526001602052604081205490808215610a8557610a7733610ed4565b9150610a8233610f41565b90505b610a8e33610f84565b6000610aa0848663ffffffff610e3816565b336000908152600160205260409020819055600254909150610ac8908663ffffffff610e3816565b600281905560408051918252517f3106d32b92604dc6be1e012ff5b90a5595c65b43eebc91279a5ba2000dbe5eb19181900360200190a16006546040805162f651a760e81b81523360048201526024810188905290516001600160a01b039092169163f651a7009160448082019260009290919082900301818387803b158015610b5157600080fd5b505af1158015610b65573d6000803e3d6000fd5b50506040805184815290513393507f39df0e5286a3ef2f42a0bf52f32cfe2c58e5b0405f47fe512f2c2439e4cfe20492509081900360200190a26040805183815260208101859052815133927ff744d34ca1cb25acfa4180df5f09a67306107110a9f4b6ed99bb3be259738215928290030190a28315610c69576007546040805163a9059cbb60e01b81523360048201526024810185905290516001600160a01b039092169163a9059cbb916044808201926020929091908290030181600087803b158015610c3357600080fd5b505af1158015610c47573d6000803e3d6000fd5b505050506040513d6020811015610c5d57600080fd5b50610c6990508361104e565b5050505050565b610c78611295565b60025460009015610ca557600254610ca29061044784670de0b6b3a764000063ffffffff610d9616565b90505b600454610cb8908263ffffffff610e3816565b600481905560408051918252517f58adede704d7a1778382644ac975bd86a06dc68def531cb01836ac575d72738f9181900360200190a15050565b600a546001600160a01b031681565b6009546001600160a01b031681565b60035481565b600b546001600160a01b031681565b6007546001600160a01b031681565b6008546001600160a01b03163314610d94576040805162461bcd60e51b815260206004820181905260248201527f4232425374616b696e673a2063616c6c6572206973206e6f742054726f76654d604482015290519081900360640190fd5b565b600082610da5575060006107c7565b82820282848281610db257fe5b0414610def5760405162461bcd60e51b81526004018080602001828103825260218152602001806114726021913960400191505060405180910390fd5b9392505050565b6000610def83836040518060400160405280601a81526020017f536166654d6174683a206469766973696f6e206279207a65726f0000000000008152506112de565b600082820183811015610def576040805162461bcd60e51b815260206004820152601b60248201527f536166654d6174683a206164646974696f6e206f766572666c6f770000000000604482015290519081900360640190fd5b60008111610ed15760405162461bcd60e51b815260040180806020018281038252602b8152602001806113db602b913960400191505060405180910390fd5b50565b6001600160a01b0381166000908152600560205260408120546003548290610f3990670de0b6b3a76400009061044790610f14908663ffffffff61100c16565b6001600160a01b0388166000908152600160205260409020549063ffffffff610d9616565b949350505050565b6001600160a01b0381166000908152600560205260408120600101546004548290610f3990670de0b6b3a76400009061044790610f14908663ffffffff61100c16565b600380546001600160a01b038316600081815260056020908152604091829020938455600454600190940184905593548151928352938201939093528083019190915290517f6b5cf27595af4428271524e0a5abd2b63f6fee1a61e31970490f5a10e257a1cd9181900360600190a150565b60008183106110055781610def565b5090919050565b6000610def83836040518060400160405280601e81526020017f536166654d6174683a207375627472616374696f6e206f766572666c6f770000815250611380565b604080513381526020810183905281517f6109e2559dfa766aaec7118351d48a523f0a4157f49c8d68749c8ac41318ad12929181900390910190a1604051600090339083908381818185875af1925050503d80600081146110cb576040519150601f19603f3d011682016040523d82523d6000602084013e6110d0565b606091505b50509050806111105760405162461bcd60e51b815260040180806020018281038252602e815260200180611493602e913960400191505060405180910390fd5b5050565b600a546001600160a01b03163314610d945760405162461bcd60e51b81526004018080602001828103825260248152602001806114066024913960400191505060405180910390fd5b6001600160a01b0381166111b8576040805162461bcd60e51b815260206004820152601e60248201527f4163636f756e742063616e6e6f74206265207a65726f20616464726573730000604482015290519081900360640190fd5b803b80611110576040805162461bcd60e51b815260206004820181905260248201527f4163636f756e7420636f64652073697a652063616e6e6f74206265207a65726f604482015290519081900360640190fd5b600080546040516001600160a01b03909116907f8be0079c531659141344cd1fd0a4f28419497f9722a3daafe3b4186f6b6457e0908390a3600080546001600160a01b0319169055565b60008111610ed15760405162461bcd60e51b815260040180806020018281038252602381526020018061142a6023913960400191505060405180910390fd5b6009546001600160a01b03163314610d945760405162461bcd60e51b815260040180806020018281038252602581526020018061144d6025913960400191505060405180910390fd5b6000818361136a5760405162461bcd60e51b81526004018080602001828103825283818151815260200191508051906020019080838360005b8381101561132f578181015183820152602001611317565b50505050905090810190601f16801561135c5780820380516001836020036101000a031916815260200191505b509250505060405180910390fd5b50600083858161137657fe5b0495945050505050565b600081848411156113d25760405162461bcd60e51b815260206004820181815283516024840152835190928392604490910191908501908083836000831561132f578181015183820152602001611317565b50505090039056fe4232425374616b696e673a2055736572206d75737420686176652061206e6f6e2d7a65726f207374616b654232425374616b696e673a2063616c6c6572206973206e6f7420416374697665506f6f6c4232425374616b696e673a20416d6f756e74206d757374206265206e6f6e2d7a65726f4232425374616b696e673a2063616c6c6572206973206e6f7420426f72726f7765724f7073536166654d6174683a206d756c7469706c69636174696f6e206f766572666c6f774232425374616b696e673a204661696c656420746f2073656e6420616363756d756c61746564204554484761696ea2646970667358221220493b5730b1483a261b2fef00440d4a028f1b12ce9b8c851ca736b50cdcde3f4064736f6c634300060b0033",
  "devdoc": {
    "kind": "dev",
    "methods": {
      "isOwner()": {
        "details": "Returns true if the caller is the current owner."
      },
      "owner()": {
        "details": "Returns the address of the current owner."
      }
    },
    "version": 1
  },
  "userdoc": {
    "kind": "user",
    "methods": {},
    "version": 1
  },
  "storageLayout": {
    "storage": [
      {
        "astId": 7805,
        "contract": "contracts/B2BContracts/B2B/B2BStaking.sol:B2BStaking",
        "label": "_owner",
        "offset": 0,
        "slot": "0",
        "type": "t_address"
      },
      {
        "astId": 363,
        "contract": "contracts/B2BContracts/B2B/B2BStaking.sol:B2BStaking",
        "label": "stakes",
        "offset": 0,
        "slot": "1",
        "type": "t_mapping(t_address,t_uint256)"
      },
      {
        "astId": 365,
        "contract": "contracts/B2BContracts/B2B/B2BStaking.sol:B2BStaking",
        "label": "totalB2BStaked",
        "offset": 0,
        "slot": "2",
        "type": "t_uint256"
      },
      {
        "astId": 367,
        "contract": "contracts/B2BContracts/B2B/B2BStaking.sol:B2BStaking",
        "label": "F_ETH",
        "offset": 0,
        "slot": "3",
        "type": "t_uint256"
      },
      {
        "astId": 369,
        "contract": "contracts/B2BContracts/B2B/B2BStaking.sol:B2BStaking",
        "label": "F_BUSDC",
        "offset": 0,
        "slot": "4",
        "type": "t_uint256"
      },
      {
        "astId": 373,
        "contract": "contracts/B2BContracts/B2B/B2BStaking.sol:B2BStaking",
        "label": "snapshots",
        "offset": 0,
        "slot": "5",
        "type": "t_mapping(t_address,t_struct(Snapshot)378_storage)"
      },
      {
        "astId": 380,
        "contract": "contracts/B2BContracts/B2B/B2BStaking.sol:B2BStaking",
        "label": "b2bToken",
        "offset": 0,
        "slot": "6",
        "type": "t_contract(IB2BToken)18728"
      },
      {
        "astId": 382,
        "contract": "contracts/B2BContracts/B2B/B2BStaking.sol:B2BStaking",
        "label": "busdcToken",
        "offset": 0,
        "slot": "7",
        "type": "t_contract(IBUSDCToken)18787"
      },
      {
        "astId": 384,
        "contract": "contracts/B2BContracts/B2B/B2BStaking.sol:B2BStaking",
        "label": "troveManagerAddress",
        "offset": 0,
        "slot": "8",
        "type": "t_address"
      },
      {
        "astId": 386,
        "contract": "contracts/B2BContracts/B2B/B2BStaking.sol:B2BStaking",
        "label": "borrowerOperationsAddress",
        "offset": 0,
        "slot": "9",
        "type": "t_address"
      },
      {
        "astId": 388,
        "contract": "contracts/B2BContracts/B2B/B2BStaking.sol:B2BStaking",
        "label": "activePoolAddress",
        "offset": 0,
        "slot": "10",
        "type": "t_address"
      },
      {
        "astId": 390,
        "contract": "contracts/B2BContracts/B2B/B2BStaking.sol:B2BStaking",
        "label": "backedTokenAddress",
        "offset": 0,
        "slot": "11",
        "type": "t_address"
      }
    ],
    "types": {
      "t_address": {
        "encoding": "inplace",
        "label": "address",
        "numberOfBytes": "20"
      },
      "t_contract(IB2BToken)18728": {
        "encoding": "inplace",
        "label": "contract IB2BToken",
        "numberOfBytes": "20"
      },
      "t_contract(IBUSDCToken)18787": {
        "encoding": "inplace",
        "label": "contract IBUSDCToken",
        "numberOfBytes": "20"
      },
      "t_mapping(t_address,t_struct(Snapshot)378_storage)": {
        "encoding": "mapping",
        "key": "t_address",
        "label": "mapping(address => struct B2BStaking.Snapshot)",
        "numberOfBytes": "32",
        "value": "t_struct(Snapshot)378_storage"
      },
      "t_mapping(t_address,t_uint256)": {
        "encoding": "mapping",
        "key": "t_address",
        "label": "mapping(address => uint256)",
        "numberOfBytes": "32",
        "value": "t_uint256"
      },
      "t_struct(Snapshot)378_storage": {
        "encoding": "inplace",
        "label": "struct B2BStaking.Snapshot",
        "members": [
          {
            "astId": 375,
            "contract": "contracts/B2BContracts/B2B/B2BStaking.sol:B2BStaking",
            "label": "F_ETH_Snapshot",
            "offset": 0,
            "slot": "0",
            "type": "t_uint256"
          },
          {
            "astId": 377,
            "contract": "contracts/B2BContracts/B2B/B2BStaking.sol:B2BStaking",
            "label": "F_BUSDC_Snapshot",
            "offset": 0,
            "slot": "1",
            "type": "t_uint256"
          }
        ],
        "numberOfBytes": "64"
      },
      "t_uint256": {
        "encoding": "inplace",
        "label": "uint256",
        "numberOfBytes": "32"
      }
    }
  }
}