{
  "address": "0xf9a8436A04e931f933015003dC0f9896b055f764",
  "abi": [
    {
      "inputs": [
        {
          "internalType": "address",
          "name": "_communityIssuanceAddress",
          "type": "address"
        },
        {
          "internalType": "address",
          "name": "_b2bStakingAddress",
          "type": "address"
        },
        {
          "internalType": "address",
          "name": "_lockupFactoryAddress",
          "type": "address"
        },
        {
          "internalType": "address",
          "name": "_bountyAddress",
          "type": "address"
        },
        {
          "internalType": "address",
          "name": "_lpRewardsAddress",
          "type": "address"
        },
        {
          "internalType": "address",
          "name": "_multisigAddress",
          "type": "address"
        }
      ],
      "stateMutability": "nonpayable",
      "type": "constructor"
    },
    {
      "anonymous": false,
      "inputs": [
        {
          "indexed": true,
          "internalType": "address",
          "name": "owner",
          "type": "address"
        },
        {
          "indexed": true,
          "internalType": "address",
          "name": "spender",
          "type": "address"
        },
        {
          "indexed": false,
          "internalType": "uint256",
          "name": "value",
          "type": "uint256"
        }
      ],
      "name": "Approval",
      "type": "event"
    },
    {
      "anonymous": false,
      "inputs": [
        {
          "indexed": false,
          "internalType": "address",
          "name": "_b2bStakingAddress",
          "type": "address"
        }
      ],
      "name": "B2BStakingAddressSet",
      "type": "event"
    },
    {
      "anonymous": false,
      "inputs": [
        {
          "indexed": false,
          "internalType": "address",
          "name": "_communityIssuanceAddress",
          "type": "address"
        }
      ],
      "name": "CommunityIssuanceAddressSet",
      "type": "event"
    },
    {
      "anonymous": false,
      "inputs": [
        {
          "indexed": false,
          "internalType": "address",
          "name": "_lockupContractFactoryAddress",
          "type": "address"
        }
      ],
      "name": "LockupContractFactoryAddressSet",
      "type": "event"
    },
    {
      "anonymous": false,
      "inputs": [
        {
          "indexed": true,
          "internalType": "address",
          "name": "from",
          "type": "address"
        },
        {
          "indexed": true,
          "internalType": "address",
          "name": "to",
          "type": "address"
        },
        {
          "indexed": false,
          "internalType": "uint256",
          "name": "value",
          "type": "uint256"
        }
      ],
      "name": "Transfer",
      "type": "event"
    },
    {
      "inputs": [],
      "name": "ONE_YEAR_IN_SECONDS",
      "outputs": [
        {
          "internalType": "uint256",
          "name": "",
          "type": "uint256"
        }
      ],
      "stateMutability": "view",
      "type": "function"
    },
    {
      "inputs": [
        {
          "internalType": "address",
          "name": "owner",
          "type": "address"
        },
        {
          "internalType": "address",
          "name": "spender",
          "type": "address"
        }
      ],
      "name": "allowance",
      "outputs": [
        {
          "internalType": "uint256",
          "name": "",
          "type": "uint256"
        }
      ],
      "stateMutability": "view",
      "type": "function"
    },
    {
      "inputs": [
        {
          "internalType": "address",
          "name": "spender",
          "type": "address"
        },
        {
          "internalType": "uint256",
          "name": "amount",
          "type": "uint256"
        }
      ],
      "name": "approve",
      "outputs": [
        {
          "internalType": "bool",
          "name": "",
          "type": "bool"
        }
      ],
      "stateMutability": "nonpayable",
      "type": "function"
    },
    {
      "inputs": [],
      "name": "b2bStakingAddress",
      "outputs": [
        {
          "internalType": "address",
          "name": "",
          "type": "address"
        }
      ],
      "stateMutability": "view",
      "type": "function"
    },
    {
      "inputs": [
        {
          "internalType": "address",
          "name": "account",
          "type": "address"
        }
      ],
      "name": "balanceOf",
      "outputs": [
        {
          "internalType": "uint256",
          "name": "",
          "type": "uint256"
        }
      ],
      "stateMutability": "view",
      "type": "function"
    },
    {
      "inputs": [],
      "name": "communityIssuanceAddress",
      "outputs": [
        {
          "internalType": "address",
          "name": "",
          "type": "address"
        }
      ],
      "stateMutability": "view",
      "type": "function"
    },
    {
      "inputs": [],
      "name": "decimals",
      "outputs": [
        {
          "internalType": "uint8",
          "name": "",
          "type": "uint8"
        }
      ],
      "stateMutability": "view",
      "type": "function"
    },
    {
      "inputs": [
        {
          "internalType": "address",
          "name": "spender",
          "type": "address"
        },
        {
          "internalType": "uint256",
          "name": "subtractedValue",
          "type": "uint256"
        }
      ],
      "name": "decreaseAllowance",
      "outputs": [
        {
          "internalType": "bool",
          "name": "",
          "type": "bool"
        }
      ],
      "stateMutability": "nonpayable",
      "type": "function"
    },
    {
      "inputs": [],
      "name": "domainSeparator",
      "outputs": [
        {
          "internalType": "bytes32",
          "name": "",
          "type": "bytes32"
        }
      ],
      "stateMutability": "view",
      "type": "function"
    },
    {
      "inputs": [],
      "name": "getDeploymentStartTime",
      "outputs": [
        {
          "internalType": "uint256",
          "name": "",
          "type": "uint256"
        }
      ],
      "stateMutability": "view",
      "type": "function"
    },
    {
      "inputs": [],
      "name": "getLpRewardsEntitlement",
      "outputs": [
        {
          "internalType": "uint256",
          "name": "",
          "type": "uint256"
        }
      ],
      "stateMutability": "view",
      "type": "function"
    },
    {
      "inputs": [
        {
          "internalType": "address",
          "name": "spender",
          "type": "address"
        },
        {
          "internalType": "uint256",
          "name": "addedValue",
          "type": "uint256"
        }
      ],
      "name": "increaseAllowance",
      "outputs": [
        {
          "internalType": "bool",
          "name": "",
          "type": "bool"
        }
      ],
      "stateMutability": "nonpayable",
      "type": "function"
    },
    {
      "inputs": [],
      "name": "lockupContractFactory",
      "outputs": [
        {
          "internalType": "contract ILockupContractFactory",
          "name": "",
          "type": "address"
        }
      ],
      "stateMutability": "view",
      "type": "function"
    },
    {
      "inputs": [],
      "name": "multisigAddress",
      "outputs": [
        {
          "internalType": "address",
          "name": "",
          "type": "address"
        }
      ],
      "stateMutability": "view",
      "type": "function"
    },
    {
      "inputs": [],
      "name": "name",
      "outputs": [
        {
          "internalType": "string",
          "name": "",
          "type": "string"
        }
      ],
      "stateMutability": "view",
      "type": "function"
    },
    {
      "inputs": [
        {
          "internalType": "address",
          "name": "owner",
          "type": "address"
        }
      ],
      "name": "nonces",
      "outputs": [
        {
          "internalType": "uint256",
          "name": "",
          "type": "uint256"
        }
      ],
      "stateMutability": "view",
      "type": "function"
    },
    {
      "inputs": [
        {
          "internalType": "address",
          "name": "owner",
          "type": "address"
        },
        {
          "internalType": "address",
          "name": "spender",
          "type": "address"
        },
        {
          "internalType": "uint256",
          "name": "amount",
          "type": "uint256"
        },
        {
          "internalType": "uint256",
          "name": "deadline",
          "type": "uint256"
        },
        {
          "internalType": "uint8",
          "name": "v",
          "type": "uint8"
        },
        {
          "internalType": "bytes32",
          "name": "r",
          "type": "bytes32"
        },
        {
          "internalType": "bytes32",
          "name": "s",
          "type": "bytes32"
        }
      ],
      "name": "permit",
      "outputs": [],
      "stateMutability": "nonpayable",
      "type": "function"
    },
    {
      "inputs": [],
      "name": "permitTypeHash",
      "outputs": [
        {
          "internalType": "bytes32",
          "name": "",
          "type": "bytes32"
        }
      ],
      "stateMutability": "view",
      "type": "function"
    },
    {
      "inputs": [
        {
          "internalType": "address",
          "name": "_sender",
          "type": "address"
        },
        {
          "internalType": "uint256",
          "name": "_amount",
          "type": "uint256"
        }
      ],
      "name": "sendToB2BStaking",
      "outputs": [],
      "stateMutability": "nonpayable",
      "type": "function"
    },
    {
      "inputs": [],
      "name": "symbol",
      "outputs": [
        {
          "internalType": "string",
          "name": "",
          "type": "string"
        }
      ],
      "stateMutability": "view",
      "type": "function"
    },
    {
      "inputs": [],
      "name": "totalSupply",
      "outputs": [
        {
          "internalType": "uint256",
          "name": "",
          "type": "uint256"
        }
      ],
      "stateMutability": "view",
      "type": "function"
    },
    {
      "inputs": [
        {
          "internalType": "address",
          "name": "recipient",
          "type": "address"
        },
        {
          "internalType": "uint256",
          "name": "amount",
          "type": "uint256"
        }
      ],
      "name": "transfer",
      "outputs": [
        {
          "internalType": "bool",
          "name": "",
          "type": "bool"
        }
      ],
      "stateMutability": "nonpayable",
      "type": "function"
    },
    {
      "inputs": [
        {
          "internalType": "address",
          "name": "sender",
          "type": "address"
        },
        {
          "internalType": "address",
          "name": "recipient",
          "type": "address"
        },
        {
          "internalType": "uint256",
          "name": "amount",
          "type": "uint256"
        }
      ],
      "name": "transferFrom",
      "outputs": [
        {
          "internalType": "bool",
          "name": "",
          "type": "bool"
        }
      ],
      "stateMutability": "nonpayable",
      "type": "function"
    },
    {
      "inputs": [],
      "name": "version",
      "outputs": [
        {
          "internalType": "string",
          "name": "",
          "type": "string"
        }
      ],
      "stateMutability": "view",
      "type": "function"
    }
  ],
  "transactionHash": "0xa302024cb315cbb347c2c3a3a2276676e2b6866b9d52b4415633af4a42347120",
  "args": [
    "0xA5C94Aad4077B02fA0D483F49D64Ce2bB4B84388",
    "0x2b5e1823a25f341941Ae5aF614d02eC4eD67a210",
    "0x450aB007E6175b8De7C1f9D90B5Bc28a18f811D3",
    "0x0000000000000000000000000000000000000001",
    "0x0000000000000000000000000000000000000002",
    "0x0000000000000000000000000000000000000003"
  ],
  "numDeployments": 1,
  "solcInputHash": "18508ab469106970bdcb4e830f974b4f",
  "bytecode": "0x6101c060405269d3c21bcecceda10000006004553480156200002057600080fd5b5060405162001e3938038062001e39833981810160405260c08110156200004657600080fd5b508051602082015160408301516060840151608085015160a09095015193949293919290916200007f866001600160e01b03620002df16565b62000093856001600160e01b03620002df16565b620000a7846001600160e01b03620002df16565b6001600160601b0319606082811b821661012052426101005287811b82166101405286811b82166101605285901b166101a05260408051808201825260128152712130b1b5903a37902130b1b5902a37b5b2b760711b602091820152815180830190925260018252603160f81b9101527f216b77750eb26c824b9aee171cd2f36beb8a003acf7880cc580dc6ac9bad996360c08190527fc89efdaa54c0f20c7adf612882df0950f5a951637e0307cdcb4c672f298b8bc660e0819052620001766001600160e01b036200039416565b60a052620001af7f8b73c3c69bb8fe3d512ecc4cf759cc79239f7b179b0ffacaa9a75d522b39400f83836001600160e01b036200039816565b608081815250506000620001d56002600454620003f960201b62000b091790919060201c565b9050620001ec86826001600160e01b036200046016565b6004546000906200020890602062000b09620003f9821b17811c565b90506200021f8a826001600160e01b036200046016565b60006200025760036200024360048054620003f960201b62000b091790919060201c565b6200056160201b62000b691790919060201c565b61018081905290506200027487826001600160e01b036200046016565b6000620002b682620002a285620002a288620002a26064600454620003f960201b62000b091790919060201c565b620005ab60201b62000bab1790919060201c565b9050620002cd87826001600160e01b036200046016565b50505050505050505050505062000754565b6001600160a01b0381166200033b576040805162461bcd60e51b815260206004820152601e60248201527f4163636f756e742063616e6e6f74206265207a65726f20616464726573730000604482015290519081900360640190fd5b803b8062000390576040805162461bcd60e51b815260206004820181905260248201527f4163636f756e7420636f64652073697a652063616e6e6f74206265207a65726f604482015290519081900360640190fd5b5050565b4690565b6000838383620003b06001600160e01b036200039416565b6040805160208082019690965280820194909452606084019290925260808301523060a0808401919091528151808403909101815260c090920190528051910120949350505050565b6000826200040a575060006200045a565b828202828482816200041857fe5b0414620004575760405162461bcd60e51b815260040180806020018281038252602181526020018062001e186021913960400191505060405180910390fd5b90505b92915050565b6001600160a01b038216620004bc576040805162461bcd60e51b815260206004820152601f60248201527f45524332303a206d696e7420746f20746865207a65726f206164647265737300604482015290519081900360640190fd5b620004d881600254620005f560201b62000bed1790919060201c565b6002556001600160a01b038216600090815260208181526040909120546200050b91839062000bed620005f5821b17901c565b6001600160a01b0383166000818152602081815260408083209490945583518581529351929391927fddf252ad1be2c89b69c2b068fc378daa952ba7f163c4a11628f55a4df523b3ef9281900390910190a35050565b60006200045783836040518060400160405280601a81526020017f536166654d6174683a206469766973696f6e206279207a65726f0000000000008152506200065060201b60201c565b60006200045783836040518060400160405280601e81526020017f536166654d6174683a207375627472616374696f6e206f766572666c6f770000815250620006f760201b60201c565b60008282018381101562000457576040805162461bcd60e51b815260206004820152601b60248201527f536166654d6174683a206164646974696f6e206f766572666c6f770000000000604482015290519081900360640190fd5b60008183620006e05760405162461bcd60e51b81526004018080602001828103825283818151815260200191508051906020019080838360005b83811015620006a45781810151838201526020016200068a565b50505050905090810190601f168015620006d25780820380516001836020036101000a031916815260200191505b509250505060405180910390fd5b506000838581620006ed57fe5b0495945050505050565b600081848411156200074c5760405162461bcd60e51b8152602060048201818152835160248401528351909283926044909101919085019080838360008315620006a45781810151838201526020016200068a565b505050900390565b60805160a05160c05160e051610100516101205160601c6101405160601c6101605160601c610180516101a05160601c61161e620007fa600039806106a052806111595250806106e15250806105915280610a165280610ec5528061123f52508061099d5280610e8852508061062b5280610db852806111335250806106075280610c54525080610ade525080610abd525080610a43525080610a73525061161e6000f3fe608060405234801561001057600080fd5b50600436106101585760003560e01c80637ecebe00116100c3578063d505accf1161007c578063d505accf146103b4578063d874ea7414610407578063dd62ed3e1461040f578063e7c8fed41461043d578063f651a70014610445578063f698da251461047157610158565b80637ecebe001461031e578063811c5b4d1461034457806395d89b411461034c578063974f559014610354578063a457c2d71461035c578063a9059cbb1461038857610158565b8063368214b711610115578063368214b71461029057806339509351146102b45780633c84b7c2146102e05780635462870d146102e857806354fd4d50146102f057806370a08231146102f857610158565b806306fdde031461015d578063095ea7b3146101da57806310ce43bd1461021a57806318160ddd1461023457806323b872dd1461023c578063313ce56714610272575b600080fd5b610165610479565b6040805160208082528351818301528351919283929083019185019080838360005b8381101561019f578181015183820152602001610187565b50505050905090810190601f1680156101cc5780820380516001836020036101000a031916815260200191505b509250505060405180910390f35b610206600480360360408110156101f057600080fd5b506001600160a01b0381351690602001356104a6565b604080519115158252519081900360200190f35b6102226104d2565b60408051918252519081900360200190f35b6102226104f6565b6102066004803603606081101561025257600080fd5b506001600160a01b038135811691602081013590911690604001356104fc565b61027a61058a565b6040805160ff9092168252519081900360200190f35b61029861058f565b604080516001600160a01b039092168252519081900360200190f35b610206600480360360408110156102ca57600080fd5b506001600160a01b0381351690602001356105b3565b610222610605565b610298610629565b61016561064d565b6102226004803603602081101561030e57600080fd5b50356001600160a01b0316610668565b6102226004803603602081101561033457600080fd5b50356001600160a01b0316610683565b61029861069e565b6101656106c2565b6102226106df565b6102066004803603604081101561037257600080fd5b506001600160a01b038135169060200135610703565b6102066004803603604081101561039e57600080fd5b506001600160a01b03813516906020013561076d565b610405600480360360e08110156103ca57600080fd5b506001600160a01b03813581169160208101359091169060408101359060608101359060ff6080820135169060a08101359060c001356107a8565b005b61029861099b565b6102226004803603604081101561042557600080fd5b506001600160a01b03813581169160200135166109bf565b6102226109ea565b6104056004803603604081101561045b57600080fd5b506001600160a01b0381351690602001356109f2565b610222610a3f565b6040805180820190915260128152712130b1b5903a37902130b1b5902a37b5b2b760711b60208201525b90565b60006104b0610c47565b156104bd576104bd610c84565b6104c8338484610cca565b5060015b92915050565b7f6e71edae12b1b97f4d1f60370fef10105fa2faae0126114a169c64845d6126c990565b60025490565b6000610506610c47565b156105145761051484610db6565b61051d83610e2a565b610528848484610f35565b610580843361057b856040518060600160405280602881526020016114d1602891396001600160a01b038a166000908152600160209081526040808320338452909152902054919063ffffffff61109116565b610cca565b5060019392505050565b601290565b7f000000000000000000000000000000000000000000000000000000000000000081565b60006105bd610c47565b156105ca576105ca610c84565b3360008181526001602090815260408083206001600160a01b03881684529091529020546104c89190859061057b908663ffffffff610bed16565b7f000000000000000000000000000000000000000000000000000000000000000090565b7f000000000000000000000000000000000000000000000000000000000000000081565b6040805180820190915260018152603160f81b602082015290565b6001600160a01b031660009081526020819052604090205490565b6001600160a01b031660009081526003602052604090205490565b7f000000000000000000000000000000000000000000000000000000000000000081565b60408051808201909152600381526221192160e91b602082015290565b7f000000000000000000000000000000000000000000000000000000000000000090565b600061070d610c47565b1561071a5761071a610c84565b6104c8338461057b856040518060600160405280602581526020016115c4602591393360009081526001602090815260408083206001600160a01b038d168452909152902054919063ffffffff61109116565b6000610777611128565b80156107865750610786610c47565b156107945761079483611157565b61079d83610e2a565b6104c8338484610f35565b428410156107f5576040805162461bcd60e51b81526020600482015260156024820152744232423a206578706972656420646561646c696e6560581b604482015290519081900360640190fd5b60006107ff610a3f565b6001600160a01b03808a1660008181526003602090815260408083208054600180820190925582517f6e71edae12b1b97f4d1f60370fef10105fa2faae0126114a169c64845d6126c98186015280840196909652958e166060860152608085018d905260a085019590955260c08085018c90528151808603909101815260e08501825280519083012061190160f01b6101008601526101028501969096526101228085019690965280518085039096018652610142840180825286519683019690962095839052610162840180825286905260ff8a166101828501526101a284018990526101c284018890525194955090936101e280840193601f198301929081900390910190855afa15801561091a573d6000803e3d6000fd5b505050602060405103519050886001600160a01b0316816001600160a01b031614610985576040805162461bcd60e51b81526020600482015260166024820152754232423a20696e76616c6964207369676e617475726560501b604482015290519081900360640190fd5b610990898989610cca565b505050505050505050565b7f000000000000000000000000000000000000000000000000000000000000000081565b6001600160a01b03918216600090815260016020908152604080832093909416825291909152205490565b6301e1338081565b6109fa611234565b610a02610c47565b15610a1057610a1082610db6565b610a3b827f000000000000000000000000000000000000000000000000000000000000000083610f35565b5050565b60007f0000000000000000000000000000000000000000000000000000000000000000610a6a61129b565b1415610a9757507f00000000000000000000000000000000000000000000000000000000000000006104a3565b610b027f8b73c3c69bb8fe3d512ecc4cf759cc79239f7b179b0ffacaa9a75d522b39400f7f00000000000000000000000000000000000000000000000000000000000000007f000000000000000000000000000000000000000000000000000000000000000061129f565b90506104a3565b600082610b18575060006104cc565b82820282848281610b2557fe5b0414610b625760405162461bcd60e51b81526004018080602001828103825260218152602001806114b06021913960400191505060405180910390fd5b9392505050565b6000610b6283836040518060400160405280601a81526020017f536166654d6174683a206469766973696f6e206279207a65726f0000000000008152506112f5565b6000610b6283836040518060400160405280601e81526020017f536166654d6174683a207375627472616374696f6e206f766572666c6f770000815250611091565b600082820183811015610b62576040805162461bcd60e51b815260206004820152601b60248201527f536166654d6174683a206164646974696f6e206f766572666c6f770000000000604482015290519081900360640190fd5b60006301e13380610c7e427f000000000000000000000000000000000000000000000000000000000000000063ffffffff610bab16565b10905090565b610c8c611128565b15610cc85760405162461bcd60e51b81526004018080602001828103825260298152602001806113c96029913960400191505060405180910390fd5b565b6001600160a01b038316610d0f5760405162461bcd60e51b815260040180806020018281038252602481526020018061151e6024913960400191505060405180910390fd5b6001600160a01b038216610d545760405162461bcd60e51b815260040180806020018281038252602281526020018061137e6022913960400191505060405180910390fd5b6001600160a01b03808416600081815260016020908152604080832094871680845294825291829020859055815185815291517f8c5be1e5ebec7d5bd14f71427d1e84f3dd0314c0f7b2291e5b200ac8c7c3b9259281900390910190a3505050565b7f00000000000000000000000000000000000000000000000000000000000000006001600160a01b0316816001600160a01b03161415610e275760405162461bcd60e51b81526004018080602001828103825260298152602001806113a06029913960400191505060405180910390fd5b50565b6001600160a01b03811615801590610e4b57506001600160a01b0381163014155b610e865760405162461bcd60e51b81526004018080602001828103825260528152602001806114186052913960600191505060405180910390fd5b7f00000000000000000000000000000000000000000000000000000000000000006001600160a01b0316816001600160a01b031614158015610efa57507f00000000000000000000000000000000000000000000000000000000000000006001600160a01b0316816001600160a01b031614155b610e275760405162461bcd60e51b81526004018080602001828103825260528152602001806115426052913960600191505060405180910390fd5b6001600160a01b038316610f7a5760405162461bcd60e51b81526004018080602001828103825260258152602001806114f96025913960400191505060405180910390fd5b6001600160a01b038216610fbf5760405162461bcd60e51b815260040180806020018281038252602381526020018061135b6023913960400191505060405180910390fd5b611002816040518060600160405280602681526020016113f2602691396001600160a01b038616600090815260208190526040902054919063ffffffff61109116565b6001600160a01b038085166000908152602081905260408082209390935590841681522054611037908263ffffffff610bed16565b6001600160a01b038084166000818152602081815260409182902094909455805185815290519193928716927fddf252ad1be2c89b69c2b068fc378daa952ba7f163c4a11628f55a4df523b3ef92918290030190a3505050565b600081848411156111205760405162461bcd60e51b81526004018080602001828103825283818151815260200191508051906020019080838360005b838110156110e55781810151838201526020016110cd565b50505050905090810190601f1680156111125780820380516001836020036101000a031916815260200191505b509250505060405180910390fd5b505050900390565b336001600160a01b037f0000000000000000000000000000000000000000000000000000000000000000161490565b7f00000000000000000000000000000000000000000000000000000000000000006001600160a01b031663bb7603f1826040518263ffffffff1660e01b815260040180826001600160a01b03166001600160a01b0316815260200191505060206040518083038186803b1580156111cd57600080fd5b505afa1580156111e1573d6000803e3d6000fd5b505050506040513d60208110156111f757600080fd5b5051610e275760405162461bcd60e51b815260040180806020018281038252604681526020018061146a6046913960600191505060405180910390fd5b336001600160a01b037f00000000000000000000000000000000000000000000000000000000000000001614610cc85760405162461bcd60e51b81526004018080602001828103825260308152602001806115946030913960400191505060405180910390fd5b4690565b60008383836112ac61129b565b6040805160208082019690965280820194909452606084019290925260808301523060a0808401919091528151808403909101815260c090920190528051910120949350505050565b600081836113445760405162461bcd60e51b81526020600482018181528351602484015283519092839260449091019190850190808383600083156110e55781810151838201526020016110cd565b50600083858161135057fe5b049594505050505056fe45524332303a207472616e7366657220746f20746865207a65726f206164647265737345524332303a20617070726f766520746f20746865207a65726f2061646472657373423242546f6b656e3a2073656e646572206d757374206e6f7420626520746865206d756c7469736967423242546f6b656e3a2063616c6c6572206d757374206e6f7420626520746865206d756c746973696745524332303a207472616e7366657220616d6f756e7420657863656564732062616c616e63654232423a2043616e6e6f74207472616e7366657220746f6b656e73206469726563746c7920746f207468652042324220746f6b656e20636f6e7472616374206f7220746865207a65726f2061646472657373423242546f6b656e3a20726563697069656e74206d7573742062652061204c6f636b7570436f6e7472616374207265676973746572656420696e2074686520466163746f7279536166654d6174683a206d756c7469706c69636174696f6e206f766572666c6f7745524332303a207472616e7366657220616d6f756e74206578636565647320616c6c6f77616e636545524332303a207472616e736665722066726f6d20746865207a65726f206164647265737345524332303a20617070726f76652066726f6d20746865207a65726f20616464726573734232423a2043616e6e6f74207472616e7366657220746f6b656e73206469726563746c7920746f2074686520636f6d6d756e6974792069737375616e6365206f72207374616b696e6720636f6e7472616374423242546f6b656e3a2063616c6c6572206d75737420626520746865204232425374616b696e6720636f6e747261637445524332303a2064656372656173656420616c6c6f77616e63652062656c6f77207a65726fa2646970667358221220ee674b80fc0ab737be23158e658d861e87cf4f66de079a56b904fc72882dfd7164736f6c634300060b0033536166654d6174683a206d756c7469706c69636174696f6e206f766572666c6f77",
  "devdoc": {
    "kind": "dev",
    "methods": {
      "allowance(address,address)": {
        "details": "Returns the remaining number of tokens that `spender` will be allowed to spend on behalf of `owner` through {transferFrom}. This is zero by default. This value changes when {approve} or {transferFrom} are called."
      },
      "approve(address,uint256)": {
        "details": "Sets `amount` as the allowance of `spender` over the caller's tokens. Returns a boolean value indicating whether the operation succeeded. IMPORTANT: Beware that changing an allowance with this method brings the risk that someone may use both the old and the new allowance by unfortunate transaction ordering. One possible solution to mitigate this race condition is to first reduce the spender's allowance to 0 and set the desired value afterwards: https://github.com/ethereum/EIPs/issues/20#issuecomment-263524729 Emits an {Approval} event."
      },
      "balanceOf(address)": {
        "details": "Returns the amount of tokens owned by `account`."
      },
      "nonces(address)": {
        "details": "Returns the current ERC2612 nonce for `owner`. This value must be included whenever a signature is generated for {permit}. Every successful call to {permit} increases `owner`'s nonce by one. This prevents a signature from being used multiple times. `owner` can limit the time a Permit is valid for by setting `deadline` to  a value in the near future. The deadline argument can be set to uint(-1) to  create Permits that effectively never expire."
      },
      "permit(address,address,uint256,uint256,uint8,bytes32,bytes32)": {
        "details": "Sets `amount` as the allowance of `spender` over `owner`'s tokens, given `owner`'s signed approval. IMPORTANT: The same issues {IERC20-approve} has related to transaction ordering also apply here. Emits an {Approval} event. Requirements: - `owner` cannot be the zero address. - `spender` cannot be the zero address. - `deadline` must be a timestamp in the future. - `v`, `r` and `s` must be a valid `secp256k1` signature from `owner` over the EIP712-formatted function arguments. - the signature must use ``owner``'s current nonce (see {nonces}). For more information on the signature format, see the https://eips.ethereum.org/EIPS/eip-2612#specification[relevant EIP section]."
      },
      "totalSupply()": {
        "details": "Returns the amount of tokens in existence."
      },
      "transfer(address,uint256)": {
        "details": "Moves `amount` tokens from the caller's account to `recipient`. Returns a boolean value indicating whether the operation succeeded. Emits a {Transfer} event."
      },
      "transferFrom(address,address,uint256)": {
        "details": "Moves `amount` tokens from `sender` to `recipient` using the allowance mechanism. `amount` is then deducted from the caller's allowance. Returns a boolean value indicating whether the operation succeeded. Emits a {Transfer} event."
      }
    },
    "version": 1
  },
  "userdoc": {
    "kind": "user",
    "methods": {},
    "version": 1
  },
  "storageLayout": {
    "storage": [
      {
        "astId": 1099,
        "contract": "contracts/B2BContracts/B2B/B2BToken.sol:B2BToken",
        "label": "_balances",
        "offset": 0,
        "slot": "0",
        "type": "t_mapping(t_address,t_uint256)"
      },
      {
        "astId": 1105,
        "contract": "contracts/B2BContracts/B2B/B2BToken.sol:B2BToken",
        "label": "_allowances",
        "offset": 0,
        "slot": "1",
        "type": "t_mapping(t_address,t_mapping(t_address,t_uint256))"
      },
      {
        "astId": 1107,
        "contract": "contracts/B2BContracts/B2B/B2BToken.sol:B2BToken",
        "label": "_totalSupply",
        "offset": 0,
        "slot": "2",
        "type": "t_uint256"
      },
      {
        "astId": 1125,
        "contract": "contracts/B2BContracts/B2B/B2BToken.sol:B2BToken",
        "label": "_nonces",
        "offset": 0,
        "slot": "3",
        "type": "t_mapping(t_address,t_uint256)"
      },
      {
        "astId": 1131,
        "contract": "contracts/B2BContracts/B2B/B2BToken.sol:B2BToken",
        "label": "_1_MILLION",
        "offset": 0,
        "slot": "4",
        "type": "t_uint256"
      }
    ],
    "types": {
      "t_address": {
        "encoding": "inplace",
        "label": "address",
        "numberOfBytes": "20"
      },
      "t_mapping(t_address,t_mapping(t_address,t_uint256))": {
        "encoding": "mapping",
        "key": "t_address",
        "label": "mapping(address => mapping(address => uint256))",
        "numberOfBytes": "32",
        "value": "t_mapping(t_address,t_uint256)"
      },
      "t_mapping(t_address,t_uint256)": {
        "encoding": "mapping",
        "key": "t_address",
        "label": "mapping(address => uint256)",
        "numberOfBytes": "32",
        "value": "t_uint256"
      },
      "t_uint256": {
        "encoding": "inplace",
        "label": "uint256",
        "numberOfBytes": "32"
      }
    }
  }
}