{
  "address": "0x9feea76684d49f1c5b24939b2bd5daadd639ae5a",
  "abi": [
    {
      "inputs": [
        {
          "internalType": "address",
          "name": "_stableToken",
          "type": "address"
        },
        {
          "internalType": "address",
          "name": "_backedToken",
          "type": "address"
        },
        {
          "internalType": "address",
          "name": "_oracle",
          "type": "address"
        },
        {
          "internalType": "address",
          "name": "_receiver",
          "type": "address"
        }
      ],
      "stateMutability": "nonpayable",
      "type": "constructor"
    },
    {
      "anonymous": false,
      "inputs": [
        {
          "indexed": true,
          "internalType": "address",
          "name": "to",
          "type": "address"
        },
        {
          "indexed": false,
          "internalType": "uint256",
          "name": "stableTokenAmount",
          "type": "uint256"
        }
      ],
      "name": "Mint",
      "type": "event"
    },
    {
      "anonymous": false,
      "inputs": [
        {
          "indexed": true,
          "internalType": "address",
          "name": "to",
          "type": "address"
        },
        {
          "indexed": false,
          "internalType": "uint256",
          "name": "stableTokenAmount",
          "type": "uint256"
        },
        {
          "indexed": false,
          "internalType": "uint256",
          "name": "backedTokenAmount",
          "type": "uint256"
        }
      ],
      "name": "Redeem",
      "type": "event"
    },
    {
      "inputs": [],
      "name": "backedToken",
      "outputs": [
        {
          "internalType": "contract IERC20",
          "name": "",
          "type": "address"
        }
      ],
      "stateMutability": "view",
      "type": "function"
    },
    {
      "inputs": [
        {
          "internalType": "uint256",
          "name": "backedTokenAmount",
          "type": "uint256"
        }
      ],
      "name": "burn",
      "outputs": [],
      "stateMutability": "nonpayable",
      "type": "function"
    },
    {
      "inputs": [],
      "name": "lastMintAt",
      "outputs": [
        {
          "internalType": "uint32",
          "name": "",
          "type": "uint32"
        }
      ],
      "stateMutability": "view",
      "type": "function"
    },
    {
      "inputs": [
        {
          "internalType": "uint256",
          "name": "amount",
          "type": "uint256"
        }
      ],
      "name": "mint",
      "outputs": [],
      "stateMutability": "nonpayable",
      "type": "function"
    },
    {
      "inputs": [],
      "name": "oracle",
      "outputs": [
        {
          "internalType": "contract BackedOracleInterface",
          "name": "",
          "type": "address"
        }
      ],
      "stateMutability": "view",
      "type": "function"
    },
    {
      "inputs": [],
      "name": "rebase",
      "outputs": [],
      "stateMutability": "nonpayable",
      "type": "function"
    },
    {
      "inputs": [],
      "name": "receiver",
      "outputs": [
        {
          "internalType": "address",
          "name": "",
          "type": "address"
        }
      ],
      "stateMutability": "view",
      "type": "function"
    },
    {
      "inputs": [],
      "name": "stableToken",
      "outputs": [
        {
          "internalType": "contract StableToken",
          "name": "",
          "type": "address"
        }
      ],
      "stateMutability": "view",
      "type": "function"
    }
  ],
  "transactionHash": "0xca5a22acacd78826a6aebe027d7ff26f155dd2ef4463da4279613a41ac13880a",
  "args": [
    "0x27F01408640C5908E2bbDfC03e70a5BF758A3795",
    "0x8EA9575f3c39272321a8CCC2f1a27D3bcEaf0742",
    "0xD9671514C8A2D28e3dc5836B50707852DB40eE92",
    "0x6D2e19D49DCa81f20CA9f339B0e931a79d76A5E9"
  ],
  "numDeployments": 1,
  "solcInputHash": "42fc755ad7706d16e8dad045c46f455b",
  "bytecode": "0x60806040523480156200001157600080fd5b5060405162000f9c38038062000f9c833981016040819052620000349162000209565b6001600160a01b038416620000905760405162461bcd60e51b815260206004820152601c60248201527f5f737461626c65546f6b656e206973207a65726f20616464726573730000000060448201526064015b60405180910390fd5b6001600160a01b038316620000e85760405162461bcd60e51b815260206004820152601c60248201527f5f6261636b6564546f6b656e206973207a65726f206164647265737300000000604482015260640162000087565b6001600160a01b038216620001405760405162461bcd60e51b815260206004820152601760248201527f5f6f7261636c65206973207a65726f2061646472657373000000000000000000604482015260640162000087565b6001600160a01b038116620001985760405162461bcd60e51b815260206004820152601960248201527f5f7265636569766572206973207a65726f206164647265737300000000000000604482015260640162000087565b600080546001600160a01b039586166001600160a01b031991821617909155600180549486169482169490941790935560028054928516928416929092179091556003805491909316911617905562000266565b80516001600160a01b03811681146200020457600080fd5b919050565b600080600080608085870312156200022057600080fd5b6200022b85620001ec565b93506200023b60208601620001ec565b92506200024b60408601620001ec565b91506200025b60608601620001ec565b905092959194509250565b610d2680620002766000396000f3fe608060405234801561001057600080fd5b50600436106100885760003560e01c8063a9d75b2b1161005b578063a9d75b2b146100f8578063af14052c1461010b578063da444f0b14610113578063f7260d3e1461013f57600080fd5b806342966c681461008d5780637dc0d1d0146100a25780638e6b523e146100d2578063a0712d68146100e5575b600080fd5b6100a061009b366004610a94565b610152565b005b6002546100b5906001600160a01b031681565b6040516001600160a01b0390911681526020015b60405180910390f35b6001546100b5906001600160a01b031681565b6100a06100f3366004610a94565b610307565b6000546100b5906001600160a01b031681565b6100a061040c565b60035461012a90600160a01b900463ffffffff1681565b60405163ffffffff90911681526020016100c9565b6003546100b5906001600160a01b031681565b600254604080516350d25bcd60e01b815290516000926001600160a01b0316916350d25bcd916004808301926020929190829003018186803b15801561019757600080fd5b505afa1580156101ab573d6000803e3d6000fd5b505050506040513d601f19601f820116820180604052508101906101cf9190610aad565b6101d7610702565b6101e19084610adc565b6101eb9190610afb565b905060008111806101fc5750600082115b61024d5760405162461bcd60e51b815260206004820152601d60248201527f616d6f756e74206d7573742062652067726561746572207468616e203000000060448201526064015b60405180910390fd5b600154610264906001600160a01b0316338461078f565b600054604051632770a7eb60e21b8152336004820152602481018390526001600160a01b0390911690639dc29fac90604401600060405180830381600087803b1580156102b057600080fd5b505af11580156102c4573d6000803e3d6000fd5b505060408051848152602081018690523393507fe5b754fb1abb7f01b499791d0b820ae3b6af3424ac1c59768edb53f4ec31a92992500160405180910390a25050565b600081116103575760405162461bcd60e51b815260206004820152601d60248201527f616d6f756e74206d7573742062652067726561746572207468616e20300000006044820152606401610244565b6000546040516340c10f1960e01b8152336004820152602481018390526001600160a01b03909116906340c10f1990604401600060405180830381600087803b1580156103a357600080fd5b505af11580156103b7573d6000803e3d6000fd5b50506001546103d492506001600160a01b031690503330846107f7565b60405181815233907f0f6798a560793a54c3bcfe86a93cde1e73087d944c0ea20544137d41213968859060200160405180910390a250565b600354620151809061042b90600160a01b900463ffffffff1642610b1d565b116104785760405162461bcd60e51b815260206004820152601960248201527f7265626173653a206d696e74206f6e63652070657220646179000000000000006044820152606401610244565b6003805463ffffffff60a01b1916600160a01b4263ffffffff1602179055600154604080516318160ddd60e01b815290516000926001600160a01b0316916318160ddd916004808301926020929190829003018186803b1580156104db57600080fd5b505afa1580156104ef573d6000803e3d6000fd5b505050506040513d601f19601f820116820180604052508101906105139190610aad565b905060008060009054906101000a90046001600160a01b03166001600160a01b03166318160ddd6040518163ffffffff1660e01b815260040160206040518083038186803b15801561056457600080fd5b505afa158015610578573d6000803e3d6000fd5b505050506040513d601f19601f8201168201806040525081019061059c9190610aad565b90506000600260009054906101000a90046001600160a01b03166001600160a01b03166350d25bcd6040518163ffffffff1660e01b815260040160206040518083038186803b1580156105ee57600080fd5b505afa158015610602573d6000803e3d6000fd5b505050506040513d601f19601f820116820180604052508101906106269190610aad565b61062e610702565b6106389085610adc565b6106429190610afb565b905060006106508383610b1d565b6000546003546040516340c10f1960e01b81526001600160a01b0391821660048201526024810184905292935016906340c10f1990604401600060405180830381600087803b1580156106a257600080fd5b505af11580156106b6573d6000803e3d6000fd5b50506003546040518481526001600160a01b0390911692507f0f6798a560793a54c3bcfe86a93cde1e73087d944c0ea20544137d4121396885915060200160405180910390a250505050565b6002546040805163313ce56760e01b815290516000926001600160a01b03169163313ce567916004808301926020929190829003018186803b15801561074757600080fd5b505afa15801561075b573d6000803e3d6000fd5b505050506040513d601f19601f8201168201806040525081019061077f9190610b34565b61078a90600a610c44565b905090565b6040516001600160a01b0383166024820152604481018290526107f290849063a9059cbb60e01b906064015b60408051601f198184030181529190526020810180516001600160e01b03166001600160e01b031990931692909217909152610835565b505050565b6040516001600160a01b038085166024830152831660448201526064810182905261082f9085906323b872dd60e01b906084016107bb565b50505050565b600061088a826040518060400160405280602081526020017f5361666545524332303a206c6f772d6c6576656c2063616c6c206661696c6564815250856001600160a01b03166109079092919063ffffffff16565b8051909150156107f257808060200190518101906108a89190610c53565b6107f25760405162461bcd60e51b815260206004820152602a60248201527f5361666545524332303a204552433230206f7065726174696f6e20646964206e6044820152691bdd081cdd58d8d9595960b21b6064820152608401610244565b6060610916848460008561091e565b949350505050565b60608247101561097f5760405162461bcd60e51b815260206004820152602660248201527f416464726573733a20696e73756666696369656e742062616c616e636520666f6044820152651c8818d85b1b60d21b6064820152608401610244565b600080866001600160a01b0316858760405161099b9190610ca1565b60006040518083038185875af1925050503d80600081146109d8576040519150601f19603f3d011682016040523d82523d6000602084013e6109dd565b606091505b50915091506109ee878383876109f9565b979650505050505050565b60608315610a65578251610a5e576001600160a01b0385163b610a5e5760405162461bcd60e51b815260206004820152601d60248201527f416464726573733a2063616c6c20746f206e6f6e2d636f6e74726163740000006044820152606401610244565b5081610916565b6109168383815115610a7a5781518083602001fd5b8060405162461bcd60e51b81526004016102449190610cbd565b600060208284031215610aa657600080fd5b5035919050565b600060208284031215610abf57600080fd5b5051919050565b634e487b7160e01b600052601160045260246000fd5b6000816000190483118215151615610af657610af6610ac6565b500290565b600082610b1857634e487b7160e01b600052601260045260246000fd5b500490565b600082821015610b2f57610b2f610ac6565b500390565b600060208284031215610b4657600080fd5b815160ff81168114610b5757600080fd5b9392505050565b600181815b80851115610b99578160001904821115610b7f57610b7f610ac6565b80851615610b8c57918102915b93841c9390800290610b63565b509250929050565b600082610bb057506001610c3e565b81610bbd57506000610c3e565b8160018114610bd35760028114610bdd57610bf9565b6001915050610c3e565b60ff841115610bee57610bee610ac6565b50506001821b610c3e565b5060208310610133831016604e8410600b8410161715610c1c575081810a610c3e565b610c268383610b5e565b8060001904821115610c3a57610c3a610ac6565b0290505b92915050565b6000610b5760ff841683610ba1565b600060208284031215610c6557600080fd5b81518015158114610b5757600080fd5b60005b83811015610c90578181015183820152602001610c78565b8381111561082f5750506000910152565b60008251610cb3818460208701610c75565b9190910192915050565b6020815260008251806020840152610cdc816040850160208701610c75565b601f01601f1916919091016040019291505056fea2646970667358221220c001ba22e8993716747d164e8e59ae63945c61a77912d81f6379cb48880f78a364736f6c63430008090033",
  "devdoc": {
    "kind": "dev",
    "methods": {},
    "version": 1
  },
  "userdoc": {
    "kind": "user",
    "methods": {},
    "version": 1
  },
  "storageLayout": {
    "storage": [
      {
        "astId": 7314,
        "contract": "contracts/BackedPool.sol:BackedPool",
        "label": "stableToken",
        "offset": 0,
        "slot": "0",
        "type": "t_contract(StableToken)7307"
      },
      {
        "astId": 7317,
        "contract": "contracts/BackedPool.sol:BackedPool",
        "label": "backedToken",
        "offset": 0,
        "slot": "1",
        "type": "t_contract(IERC20)4621"
      },
      {
        "astId": 7320,
        "contract": "contracts/BackedPool.sol:BackedPool",
        "label": "oracle",
        "offset": 0,
        "slot": "2",
        "type": "t_contract(BackedOracleInterface)7282"
      },
      {
        "astId": 7322,
        "contract": "contracts/BackedPool.sol:BackedPool",
        "label": "receiver",
        "offset": 0,
        "slot": "3",
        "type": "t_address"
      },
      {
        "astId": 7324,
        "contract": "contracts/BackedPool.sol:BackedPool",
        "label": "lastMintAt",
        "offset": 20,
        "slot": "3",
        "type": "t_uint32"
      }
    ],
    "types": {
      "t_address": {
        "encoding": "inplace",
        "label": "address",
        "numberOfBytes": "20"
      },
      "t_contract(BackedOracleInterface)7282": {
        "encoding": "inplace",
        "label": "contract BackedOracleInterface",
        "numberOfBytes": "20"
      },
      "t_contract(IERC20)4621": {
        "encoding": "inplace",
        "label": "contract IERC20",
        "numberOfBytes": "20"
      },
      "t_contract(StableToken)7307": {
        "encoding": "inplace",
        "label": "contract StableToken",
        "numberOfBytes": "20"
      },
      "t_uint32": {
        "encoding": "inplace",
        "label": "uint32",
        "numberOfBytes": "4"
      }
    }
  }
}