{
  "address": "0x404f2c5415D5092539dF7Ab0974A23F573f5Bcc1",
  "abi": [
    {
      "anonymous": false,
      "inputs": [
        {
          "indexed": false,
          "internalType": "uint8",
          "name": "version",
          "type": "uint8"
        }
      ],
      "name": "Initialized",
      "type": "event"
    },
    {
      "anonymous": false,
      "inputs": [
        {
          "indexed": true,
          "internalType": "address",
          "name": "to",
          "type": "address"
        },
        {
          "indexed": false,
          "internalType": "uint256",
          "name": "stableTokenAmount",
          "type": "uint256"
        },
        {
          "indexed": false,
          "internalType": "uint256",
          "name": "backedTokenAmount",
          "type": "uint256"
        }
      ],
      "name": "Mint",
      "type": "event"
    },
    {
      "anonymous": false,
      "inputs": [
        {
          "indexed": true,
          "internalType": "address",
          "name": "to",
          "type": "address"
        },
        {
          "indexed": false,
          "internalType": "uint256",
          "name": "stableTokenAmount",
          "type": "uint256"
        },
        {
          "indexed": false,
          "internalType": "uint256",
          "name": "backedTokenAmount",
          "type": "uint256"
        }
      ],
      "name": "Redeem",
      "type": "event"
    },
    {
      "inputs": [],
      "name": "backedToken",
      "outputs": [
        {
          "internalType": "contract IERC20Upgradeable",
          "name": "",
          "type": "address"
        }
      ],
      "stateMutability": "view",
      "type": "function"
    },
    {
      "inputs": [],
      "name": "backedVault",
      "outputs": [
        {
          "internalType": "contract BackedVaultInterface",
          "name": "",
          "type": "address"
        }
      ],
      "stateMutability": "view",
      "type": "function"
    },
    {
      "inputs": [
        {
          "internalType": "address",
          "name": "_stableToken",
          "type": "address"
        },
        {
          "internalType": "address",
          "name": "_backedToken",
          "type": "address"
        },
        {
          "internalType": "address",
          "name": "_oracle",
          "type": "address"
        },
        {
          "internalType": "address",
          "name": "_backedVault",
          "type": "address"
        }
      ],
      "name": "initialize",
      "outputs": [],
      "stateMutability": "nonpayable",
      "type": "function"
    },
    {
      "inputs": [
        {
          "internalType": "uint256",
          "name": "stableTokenAmount",
          "type": "uint256"
        }
      ],
      "name": "mint",
      "outputs": [],
      "stateMutability": "nonpayable",
      "type": "function"
    },
    {
      "inputs": [],
      "name": "oracle",
      "outputs": [
        {
          "internalType": "contract BackedOracleInterface",
          "name": "",
          "type": "address"
        }
      ],
      "stateMutability": "view",
      "type": "function"
    },
    {
      "inputs": [
        {
          "internalType": "uint256",
          "name": "backedTokenAmount",
          "type": "uint256"
        }
      ],
      "name": "redeem",
      "outputs": [],
      "stateMutability": "nonpayable",
      "type": "function"
    },
    {
      "inputs": [],
      "name": "stableToken",
      "outputs": [
        {
          "internalType": "contract IERC20Upgradeable",
          "name": "",
          "type": "address"
        }
      ],
      "stateMutability": "view",
      "type": "function"
    }
  ],
  "transactionHash": "0x7736405011d9d7d731d5f3f95e415eede3525b9b0bf7b1a321fdd3f3e02b2686",
  "args": [],
  "numDeployments": 1,
  "solcInputHash": "42fc755ad7706d16e8dad045c46f455b",
  "bytecode": "0x608060405234801561001057600080fd5b50610f53806100206000396000f3fe608060405234801561001057600080fd5b506004361061007d5760003560e01c8063a9d75b2b1161005b578063a9d75b2b146100d9578063abf5a62d146100ec578063db006a75146100ff578063f8c8765e1461011257600080fd5b80637dc0d1d0146100825780638e6b523e146100b1578063a0712d68146100c4575b600080fd5b603554610095906001600160a01b031681565b6040516001600160a01b03909116815260200160405180910390f35b603454610095906001600160a01b031681565b6100d76100d2366004610c1d565b610125565b005b603354610095906001600160a01b031681565b603654610095906001600160a01b031681565b6100d761010d366004610c1d565b610331565b6100d7610120366004610c52565b61051c565b61012d6107d3565b600061013761082d565b603560009054906101000a90046001600160a01b03166001600160a01b03166350d25bcd6040518163ffffffff1660e01b815260040160206040518083038186803b15801561018557600080fd5b505afa158015610199573d6000803e3d6000fd5b505050506040513d601f19601f820116820180604052508101906101bd9190610ca6565b6101c79084610cd5565b6101d19190610cf4565b905060008211806101e25750600081115b6102335760405162461bcd60e51b815260206004820152601d60248201527f616d6f756e74206d7573742062652067726561746572207468616e203000000060448201526064015b60405180910390fd5b60335461024b906001600160a01b03163330856108ba565b603654603354610268916001600160a01b0391821691168461092b565b60365460345460405163f3fef3a360e01b81526001600160a01b0391821660048201526024810184905291169063f3fef3a390604401600060405180830381600087803b1580156102b857600080fd5b505af11580156102cc573d6000803e3d6000fd5b50506034546102e892506001600160a01b03169050338361092b565b604080518381526020810183905233917f4c209b5fc8ad50758f13e2e1088ba56a560dff690a1c6fef26394f4c03821c4f91015b60405180910390a25061032e60018055565b50565b6103396107d3565b603554604080516350d25bcd60e01b815290516000926001600160a01b0316916350d25bcd916004808301926020929190829003018186803b15801561037e57600080fd5b505afa158015610392573d6000803e3d6000fd5b505050506040513d601f19601f820116820180604052508101906103b69190610ca6565b6103be61082d565b6103c89084610cd5565b6103d29190610cf4565b905060008111806103e35750600082115b61042f5760405162461bcd60e51b815260206004820152601d60248201527f616d6f756e74206d7573742062652067726561746572207468616e2030000000604482015260640161022a565b603454610447906001600160a01b03163330856108ba565b603654603454610464916001600160a01b0391821691168461092b565b60365460335460405163f3fef3a360e01b81526001600160a01b0391821660048201526024810184905291169063f3fef3a390604401600060405180830381600087803b1580156104b457600080fd5b505af11580156104c8573d6000803e3d6000fd5b50506033546104e492506001600160a01b03169050338361092b565b604080518281526020810184905233917fe5b754fb1abb7f01b499791d0b820ae3b6af3424ac1c59768edb53f4ec31a929910161031c565b600054610100900460ff161580801561053c5750600054600160ff909116105b806105565750303b158015610556575060005460ff166001145b6105b95760405162461bcd60e51b815260206004820152602e60248201527f496e697469616c697a61626c653a20636f6e747261637420697320616c72656160448201526d191e481a5b9a5d1a585b1a5e995960921b606482015260840161022a565b6000805460ff1916600117905580156105dc576000805461ff0019166101001790555b6001600160a01b0385166106325760405162461bcd60e51b815260206004820152601c60248201527f5f737461626c65546f6b656e206973207a65726f206164647265737300000000604482015260640161022a565b6001600160a01b0384166106885760405162461bcd60e51b815260206004820152601c60248201527f5f6261636b6564546f6b656e206973207a65726f206164647265737300000000604482015260640161022a565b6001600160a01b0383166106de5760405162461bcd60e51b815260206004820152601760248201527f5f6f7261636c65206973207a65726f2061646472657373000000000000000000604482015260640161022a565b6001600160a01b0382166107345760405162461bcd60e51b815260206004820152601c60248201527f5f6261636b65645661756c74206973207a65726f206164647265737300000000604482015260640161022a565b61073c610966565b603380546001600160a01b038088166001600160a01b0319928316179092556034805487841690831617905560358054868416908316179055603680549285169290911691909117905580156107cc576000805461ff0019169055604051600181527f7f26b83ff96e1f2b6a682f133852f6798a09c465da95921460cefb38474024989060200160405180910390a15b5050505050565b600260015414156108265760405162461bcd60e51b815260206004820152601f60248201527f5265656e7472616e637947756172643a207265656e7472616e742063616c6c00604482015260640161022a565b6002600155565b6035546040805163313ce56760e01b815290516000926001600160a01b03169163313ce567916004808301926020929190829003018186803b15801561087257600080fd5b505afa158015610886573d6000803e3d6000fd5b505050506040513d601f19601f820116820180604052508101906108aa9190610d16565b6108b590600a610e26565b905090565b6040516001600160a01b03808516602483015283166044820152606481018290526109259085906323b872dd60e01b906084015b60408051601f198184030181529190526020810180516001600160e01b03166001600160e01b031990931692909217909152610997565b50505050565b6040516001600160a01b03831660248201526044810182905261095b90849063a9059cbb60e01b906064016108ee565b505050565b60018055565b600054610100900460ff1661098d5760405162461bcd60e51b815260040161022a90610e35565b610995610a69565b565b60006109ec826040518060400160405280602081526020017f5361666545524332303a206c6f772d6c6576656c2063616c6c206661696c6564815250856001600160a01b0316610a909092919063ffffffff16565b80519091501561095b5780806020019051810190610a0a9190610e80565b61095b5760405162461bcd60e51b815260206004820152602a60248201527f5361666545524332303a204552433230206f7065726174696f6e20646964206e6044820152691bdd081cdd58d8d9595960b21b606482015260840161022a565b600054610100900460ff166109605760405162461bcd60e51b815260040161022a90610e35565b6060610a9f8484600085610aa7565b949350505050565b606082471015610b085760405162461bcd60e51b815260206004820152602660248201527f416464726573733a20696e73756666696369656e742062616c616e636520666f6044820152651c8818d85b1b60d21b606482015260840161022a565b600080866001600160a01b03168587604051610b249190610ece565b60006040518083038185875af1925050503d8060008114610b61576040519150601f19603f3d011682016040523d82523d6000602084013e610b66565b606091505b5091509150610b7787838387610b82565b979650505050505050565b60608315610bee578251610be7576001600160a01b0385163b610be75760405162461bcd60e51b815260206004820152601d60248201527f416464726573733a2063616c6c20746f206e6f6e2d636f6e7472616374000000604482015260640161022a565b5081610a9f565b610a9f8383815115610c035781518083602001fd5b8060405162461bcd60e51b815260040161022a9190610eea565b600060208284031215610c2f57600080fd5b5035919050565b80356001600160a01b0381168114610c4d57600080fd5b919050565b60008060008060808587031215610c6857600080fd5b610c7185610c36565b9350610c7f60208601610c36565b9250610c8d60408601610c36565b9150610c9b60608601610c36565b905092959194509250565b600060208284031215610cb857600080fd5b5051919050565b634e487b7160e01b600052601160045260246000fd5b6000816000190483118215151615610cef57610cef610cbf565b500290565b600082610d1157634e487b7160e01b600052601260045260246000fd5b500490565b600060208284031215610d2857600080fd5b815160ff81168114610d3957600080fd5b9392505050565b600181815b80851115610d7b578160001904821115610d6157610d61610cbf565b80851615610d6e57918102915b93841c9390800290610d45565b509250929050565b600082610d9257506001610e20565b81610d9f57506000610e20565b8160018114610db55760028114610dbf57610ddb565b6001915050610e20565b60ff841115610dd057610dd0610cbf565b50506001821b610e20565b5060208310610133831016604e8410600b8410161715610dfe575081810a610e20565b610e088383610d40565b8060001904821115610e1c57610e1c610cbf565b0290505b92915050565b6000610d3960ff841683610d83565b6020808252602b908201527f496e697469616c697a61626c653a20636f6e7472616374206973206e6f74206960408201526a6e697469616c697a696e6760a81b606082015260800190565b600060208284031215610e9257600080fd5b81518015158114610d3957600080fd5b60005b83811015610ebd578181015183820152602001610ea5565b838111156109255750506000910152565b60008251610ee0818460208701610ea2565b9190910192915050565b6020815260008251806020840152610f09816040850160208701610ea2565b601f01601f1916919091016040019291505056fea2646970667358221220a90a8428b23d58f0c6e0bca1010989f49420e697a258faa74aae386f919b211264736f6c63430008090033",
  "devdoc": {
    "kind": "dev",
    "methods": {},
    "stateVariables": {
      "backedToken": {
        "details": "Backed IB01 $ Treasury Bond 0-1yr (bIB01) token"
      },
      "backedVault": {
        "details": "Vault for storing IB01 and USDT"
      },
      "oracle": {
        "details": "Price oracle for IB01/USDT"
      },
      "stableToken": {
        "details": "Stable token, e.g. USDT/USDC"
      }
    },
    "title": "The implementation of BackedSwap",
    "version": 1
  },
  "userdoc": {
    "kind": "user",
    "methods": {},
    "version": 1
  },
  "storageLayout": {
    "storage": [
      {
        "astId": 138,
        "contract": "contracts/BackedSwap.sol:BackedSwap",
        "label": "_initialized",
        "offset": 0,
        "slot": "0",
        "type": "t_uint8"
      },
      {
        "astId": 141,
        "contract": "contracts/BackedSwap.sol:BackedSwap",
        "label": "_initializing",
        "offset": 1,
        "slot": "0",
        "type": "t_bool"
      },
      {
        "astId": 314,
        "contract": "contracts/BackedSwap.sol:BackedSwap",
        "label": "_status",
        "offset": 0,
        "slot": "1",
        "type": "t_uint256"
      },
      {
        "astId": 372,
        "contract": "contracts/BackedSwap.sol:BackedSwap",
        "label": "__gap",
        "offset": 0,
        "slot": "2",
        "type": "t_array(t_uint256)49_storage"
      },
      {
        "astId": 7624,
        "contract": "contracts/BackedSwap.sol:BackedSwap",
        "label": "stableToken",
        "offset": 0,
        "slot": "51",
        "type": "t_contract(IERC20Upgradeable)1063"
      },
      {
        "astId": 7628,
        "contract": "contracts/BackedSwap.sol:BackedSwap",
        "label": "backedToken",
        "offset": 0,
        "slot": "52",
        "type": "t_contract(IERC20Upgradeable)1063"
      },
      {
        "astId": 7632,
        "contract": "contracts/BackedSwap.sol:BackedSwap",
        "label": "oracle",
        "offset": 0,
        "slot": "53",
        "type": "t_contract(BackedOracleInterface)7605"
      },
      {
        "astId": 7636,
        "contract": "contracts/BackedSwap.sol:BackedSwap",
        "label": "backedVault",
        "offset": 0,
        "slot": "54",
        "type": "t_contract(BackedVaultInterface)7613"
      }
    ],
    "types": {
      "t_array(t_uint256)49_storage": {
        "base": "t_uint256",
        "encoding": "inplace",
        "label": "uint256[49]",
        "numberOfBytes": "1568"
      },
      "t_bool": {
        "encoding": "inplace",
        "label": "bool",
        "numberOfBytes": "1"
      },
      "t_contract(BackedOracleInterface)7605": {
        "encoding": "inplace",
        "label": "contract BackedOracleInterface",
        "numberOfBytes": "20"
      },
      "t_contract(BackedVaultInterface)7613": {
        "encoding": "inplace",
        "label": "contract BackedVaultInterface",
        "numberOfBytes": "20"
      },
      "t_contract(IERC20Upgradeable)1063": {
        "encoding": "inplace",
        "label": "contract IERC20Upgradeable",
        "numberOfBytes": "20"
      },
      "t_uint256": {
        "encoding": "inplace",
        "label": "uint256",
        "numberOfBytes": "32"
      },
      "t_uint8": {
        "encoding": "inplace",
        "label": "uint8",
        "numberOfBytes": "1"
      }
    }
  }
}