{
  "address": "0xc04445a58108a749146923255B22Ac9EA87b78fF",
  "abi": [
    {
      "inputs": [],
      "stateMutability": "nonpayable",
      "type": "constructor"
    },
    {
      "anonymous": false,
      "inputs": [
        {
          "indexed": true,
          "internalType": "address",
          "name": "owner",
          "type": "address"
        },
        {
          "indexed": true,
          "internalType": "address",
          "name": "spender",
          "type": "address"
        },
        {
          "indexed": false,
          "internalType": "uint256",
          "name": "value",
          "type": "uint256"
        }
      ],
      "name": "Approval",
      "type": "event"
    },
    {
      "anonymous": false,
      "inputs": [
        {
          "indexed": false,
          "internalType": "bool",
          "name": "delegateMode",
          "type": "bool"
        }
      ],
      "name": "DelegateModeChange",
      "type": "event"
    },
    {
      "anonymous": false,
      "inputs": [
        {
          "indexed": true,
          "internalType": "address",
          "name": "whitelistAddress",
          "type": "address"
        },
        {
          "indexed": false,
          "internalType": "bool",
          "name": "status",
          "type": "bool"
        }
      ],
      "name": "DelegateWhitelistChange",
      "type": "event"
    },
    {
      "anonymous": false,
      "inputs": [
        {
          "indexed": false,
          "internalType": "uint8",
          "name": "version",
          "type": "uint8"
        }
      ],
      "name": "Initialized",
      "type": "event"
    },
    {
      "anonymous": false,
      "inputs": [
        {
          "indexed": true,
          "internalType": "address",
          "name": "newBurner",
          "type": "address"
        }
      ],
      "name": "NewBurner",
      "type": "event"
    },
    {
      "anonymous": false,
      "inputs": [
        {
          "indexed": true,
          "internalType": "address",
          "name": "newMinter",
          "type": "address"
        }
      ],
      "name": "NewMinter",
      "type": "event"
    },
    {
      "anonymous": false,
      "inputs": [
        {
          "indexed": true,
          "internalType": "address",
          "name": "newPauser",
          "type": "address"
        }
      ],
      "name": "NewPauser",
      "type": "event"
    },
    {
      "anonymous": false,
      "inputs": [
        {
          "indexed": true,
          "internalType": "address",
          "name": "newSanctionsList",
          "type": "address"
        }
      ],
      "name": "NewSanctionsList",
      "type": "event"
    },
    {
      "anonymous": false,
      "inputs": [
        {
          "indexed": false,
          "internalType": "string",
          "name": "newTerms",
          "type": "string"
        }
      ],
      "name": "NewTerms",
      "type": "event"
    },
    {
      "anonymous": false,
      "inputs": [
        {
          "indexed": true,
          "internalType": "address",
          "name": "previousOwner",
          "type": "address"
        },
        {
          "indexed": true,
          "internalType": "address",
          "name": "newOwner",
          "type": "address"
        }
      ],
      "name": "OwnershipTransferred",
      "type": "event"
    },
    {
      "anonymous": false,
      "inputs": [
        {
          "indexed": false,
          "internalType": "bool",
          "name": "pauseMode",
          "type": "bool"
        }
      ],
      "name": "PauseModeChange",
      "type": "event"
    },
    {
      "anonymous": false,
      "inputs": [
        {
          "indexed": true,
          "internalType": "address",
          "name": "from",
          "type": "address"
        },
        {
          "indexed": true,
          "internalType": "address",
          "name": "to",
          "type": "address"
        },
        {
          "indexed": false,
          "internalType": "uint256",
          "name": "value",
          "type": "uint256"
        }
      ],
      "name": "Transfer",
      "type": "event"
    },
    {
      "inputs": [],
      "name": "DELEGATED_TRANSFER_TYPEHASH",
      "outputs": [
        {
          "internalType": "bytes32",
          "name": "",
          "type": "bytes32"
        }
      ],
      "stateMutability": "view",
      "type": "function"
    },
    {
      "inputs": [],
      "name": "DOMAIN_SEPARATOR",
      "outputs": [
        {
          "internalType": "bytes32",
          "name": "",
          "type": "bytes32"
        }
      ],
      "stateMutability": "view",
      "type": "function"
    },
    {
      "inputs": [],
      "name": "PERMIT_TYPEHASH",
      "outputs": [
        {
          "internalType": "bytes32",
          "name": "",
          "type": "bytes32"
        }
      ],
      "stateMutability": "view",
      "type": "function"
    },
    {
      "inputs": [],
      "name": "VERSION",
      "outputs": [
        {
          "internalType": "string",
          "name": "",
          "type": "string"
        }
      ],
      "stateMutability": "view",
      "type": "function"
    },
    {
      "inputs": [
        {
          "internalType": "address",
          "name": "owner",
          "type": "address"
        },
        {
          "internalType": "address",
          "name": "spender",
          "type": "address"
        }
      ],
      "name": "allowance",
      "outputs": [
        {
          "internalType": "uint256",
          "name": "",
          "type": "uint256"
        }
      ],
      "stateMutability": "view",
      "type": "function"
    },
    {
      "inputs": [
        {
          "internalType": "address",
          "name": "spender",
          "type": "address"
        },
        {
          "internalType": "uint256",
          "name": "amount",
          "type": "uint256"
        }
      ],
      "name": "approve",
      "outputs": [
        {
          "internalType": "bool",
          "name": "",
          "type": "bool"
        }
      ],
      "stateMutability": "nonpayable",
      "type": "function"
    },
    {
      "inputs": [
        {
          "internalType": "address",
          "name": "account",
          "type": "address"
        }
      ],
      "name": "balanceOf",
      "outputs": [
        {
          "internalType": "uint256",
          "name": "",
          "type": "uint256"
        }
      ],
      "stateMutability": "view",
      "type": "function"
    },
    {
      "inputs": [
        {
          "internalType": "address",
          "name": "account",
          "type": "address"
        },
        {
          "internalType": "uint256",
          "name": "amount",
          "type": "uint256"
        }
      ],
      "name": "burn",
      "outputs": [],
      "stateMutability": "nonpayable",
      "type": "function"
    },
    {
      "inputs": [],
      "name": "burner",
      "outputs": [
        {
          "internalType": "address",
          "name": "",
          "type": "address"
        }
      ],
      "stateMutability": "view",
      "type": "function"
    },
    {
      "inputs": [],
      "name": "decimals",
      "outputs": [
        {
          "internalType": "uint8",
          "name": "",
          "type": "uint8"
        }
      ],
      "stateMutability": "view",
      "type": "function"
    },
    {
      "inputs": [
        {
          "internalType": "address",
          "name": "spender",
          "type": "address"
        },
        {
          "internalType": "uint256",
          "name": "subtractedValue",
          "type": "uint256"
        }
      ],
      "name": "decreaseAllowance",
      "outputs": [
        {
          "internalType": "bool",
          "name": "",
          "type": "bool"
        }
      ],
      "stateMutability": "nonpayable",
      "type": "function"
    },
    {
      "inputs": [],
      "name": "delegateMode",
      "outputs": [
        {
          "internalType": "bool",
          "name": "",
          "type": "bool"
        }
      ],
      "stateMutability": "view",
      "type": "function"
    },
    {
      "inputs": [
        {
          "internalType": "address",
          "name": "",
          "type": "address"
        }
      ],
      "name": "delegateWhitelist",
      "outputs": [
        {
          "internalType": "bool",
          "name": "",
          "type": "bool"
        }
      ],
      "stateMutability": "view",
      "type": "function"
    },
    {
      "inputs": [
        {
          "internalType": "address",
          "name": "owner",
          "type": "address"
        },
        {
          "internalType": "address",
          "name": "to",
          "type": "address"
        },
        {
          "internalType": "uint256",
          "name": "value",
          "type": "uint256"
        },
        {
          "internalType": "uint256",
          "name": "deadline",
          "type": "uint256"
        },
        {
          "internalType": "uint8",
          "name": "v",
          "type": "uint8"
        },
        {
          "internalType": "bytes32",
          "name": "r",
          "type": "bytes32"
        },
        {
          "internalType": "bytes32",
          "name": "s",
          "type": "bytes32"
        }
      ],
      "name": "delegatedTransfer",
      "outputs": [],
      "stateMutability": "nonpayable",
      "type": "function"
    },
    {
      "inputs": [
        {
          "internalType": "address",
          "name": "spender",
          "type": "address"
        },
        {
          "internalType": "uint256",
          "name": "addedValue",
          "type": "uint256"
        }
      ],
      "name": "increaseAllowance",
      "outputs": [
        {
          "internalType": "bool",
          "name": "",
          "type": "bool"
        }
      ],
      "stateMutability": "nonpayable",
      "type": "function"
    },
    {
      "inputs": [
        {
          "internalType": "string",
          "name": "name_",
          "type": "string"
        },
        {
          "internalType": "string",
          "name": "symbol_",
          "type": "string"
        }
      ],
      "name": "initialize",
      "outputs": [],
      "stateMutability": "nonpayable",
      "type": "function"
    },
    {
      "inputs": [],
      "name": "isPaused",
      "outputs": [
        {
          "internalType": "bool",
          "name": "",
          "type": "bool"
        }
      ],
      "stateMutability": "view",
      "type": "function"
    },
    {
      "inputs": [
        {
          "internalType": "address",
          "name": "account",
          "type": "address"
        },
        {
          "internalType": "uint256",
          "name": "amount",
          "type": "uint256"
        }
      ],
      "name": "mint",
      "outputs": [],
      "stateMutability": "nonpayable",
      "type": "function"
    },
    {
      "inputs": [],
      "name": "minter",
      "outputs": [
        {
          "internalType": "address",
          "name": "",
          "type": "address"
        }
      ],
      "stateMutability": "view",
      "type": "function"
    },
    {
      "inputs": [],
      "name": "name",
      "outputs": [
        {
          "internalType": "string",
          "name": "",
          "type": "string"
        }
      ],
      "stateMutability": "view",
      "type": "function"
    },
    {
      "inputs": [
        {
          "internalType": "address",
          "name": "",
          "type": "address"
        }
      ],
      "name": "nonces",
      "outputs": [
        {
          "internalType": "uint256",
          "name": "",
          "type": "uint256"
        }
      ],
      "stateMutability": "view",
      "type": "function"
    },
    {
      "inputs": [],
      "name": "owner",
      "outputs": [
        {
          "internalType": "address",
          "name": "",
          "type": "address"
        }
      ],
      "stateMutability": "view",
      "type": "function"
    },
    {
      "inputs": [],
      "name": "pauser",
      "outputs": [
        {
          "internalType": "address",
          "name": "",
          "type": "address"
        }
      ],
      "stateMutability": "view",
      "type": "function"
    },
    {
      "inputs": [
        {
          "internalType": "address",
          "name": "owner",
          "type": "address"
        },
        {
          "internalType": "address",
          "name": "spender",
          "type": "address"
        },
        {
          "internalType": "uint256",
          "name": "value",
          "type": "uint256"
        },
        {
          "internalType": "uint256",
          "name": "deadline",
          "type": "uint256"
        },
        {
          "internalType": "uint8",
          "name": "v",
          "type": "uint8"
        },
        {
          "internalType": "bytes32",
          "name": "r",
          "type": "bytes32"
        },
        {
          "internalType": "bytes32",
          "name": "s",
          "type": "bytes32"
        }
      ],
      "name": "permit",
      "outputs": [],
      "stateMutability": "nonpayable",
      "type": "function"
    },
    {
      "inputs": [],
      "name": "renounceOwnership",
      "outputs": [],
      "stateMutability": "nonpayable",
      "type": "function"
    },
    {
      "inputs": [],
      "name": "sanctionsList",
      "outputs": [
        {
          "internalType": "contract SanctionsList",
          "name": "",
          "type": "address"
        }
      ],
      "stateMutability": "view",
      "type": "function"
    },
    {
      "inputs": [
        {
          "internalType": "address",
          "name": "newBurner",
          "type": "address"
        }
      ],
      "name": "setBurner",
      "outputs": [],
      "stateMutability": "nonpayable",
      "type": "function"
    },
    {
      "inputs": [
        {
          "internalType": "bool",
          "name": "_delegateMode",
          "type": "bool"
        }
      ],
      "name": "setDelegateMode",
      "outputs": [],
      "stateMutability": "nonpayable",
      "type": "function"
    },
    {
      "inputs": [
        {
          "internalType": "address",
          "name": "whitelistAddress",
          "type": "address"
        },
        {
          "internalType": "bool",
          "name": "status",
          "type": "bool"
        }
      ],
      "name": "setDelegateWhitelist",
      "outputs": [],
      "stateMutability": "nonpayable",
      "type": "function"
    },
    {
      "inputs": [
        {
          "internalType": "address",
          "name": "newMinter",
          "type": "address"
        }
      ],
      "name": "setMinter",
      "outputs": [],
      "stateMutability": "nonpayable",
      "type": "function"
    },
    {
      "inputs": [
        {
          "internalType": "bool",
          "name": "newPauseMode",
          "type": "bool"
        }
      ],
      "name": "setPause",
      "outputs": [],
      "stateMutability": "nonpayable",
      "type": "function"
    },
    {
      "inputs": [
        {
          "internalType": "address",
          "name": "newPauser",
          "type": "address"
        }
      ],
      "name": "setPauser",
      "outputs": [],
      "stateMutability": "nonpayable",
      "type": "function"
    },
    {
      "inputs": [
        {
          "internalType": "address",
          "name": "newSanctionsList",
          "type": "address"
        }
      ],
      "name": "setSanctionsList",
      "outputs": [],
      "stateMutability": "nonpayable",
      "type": "function"
    },
    {
      "inputs": [
        {
          "internalType": "string",
          "name": "newTerms",
          "type": "string"
        }
      ],
      "name": "setTerms",
      "outputs": [],
      "stateMutability": "nonpayable",
      "type": "function"
    },
    {
      "inputs": [],
      "name": "symbol",
      "outputs": [
        {
          "internalType": "string",
          "name": "",
          "type": "string"
        }
      ],
      "stateMutability": "view",
      "type": "function"
    },
    {
      "inputs": [],
      "name": "terms",
      "outputs": [
        {
          "internalType": "string",
          "name": "",
          "type": "string"
        }
      ],
      "stateMutability": "view",
      "type": "function"
    },
    {
      "inputs": [],
      "name": "totalSupply",
      "outputs": [
        {
          "internalType": "uint256",
          "name": "",
          "type": "uint256"
        }
      ],
      "stateMutability": "view",
      "type": "function"
    },
    {
      "inputs": [
        {
          "internalType": "address",
          "name": "to",
          "type": "address"
        },
        {
          "internalType": "uint256",
          "name": "amount",
          "type": "uint256"
        }
      ],
      "name": "transfer",
      "outputs": [
        {
          "internalType": "bool",
          "name": "",
          "type": "bool"
        }
      ],
      "stateMutability": "nonpayable",
      "type": "function"
    },
    {
      "inputs": [
        {
          "internalType": "address",
          "name": "from",
          "type": "address"
        },
        {
          "internalType": "address",
          "name": "to",
          "type": "address"
        },
        {
          "internalType": "uint256",
          "name": "amount",
          "type": "uint256"
        }
      ],
      "name": "transferFrom",
      "outputs": [
        {
          "internalType": "bool",
          "name": "",
          "type": "bool"
        }
      ],
      "stateMutability": "nonpayable",
      "type": "function"
    },
    {
      "inputs": [
        {
          "internalType": "address",
          "name": "newOwner",
          "type": "address"
        }
      ],
      "name": "transferOwnership",
      "outputs": [],
      "stateMutability": "nonpayable",
      "type": "function"
    }
  ],
  "transactionHash": "0xf2d8c902f5aeaccd3521af22c29310f6637325501fd26e43348ad2e4195c7b62",
  "args": [],
  "numDeployments": 1,
  "solcInputHash": "0321cc9c441b7f239048cc7200f8307b",
  "bytecode": "0x60806040523480156200001157600080fd5b50620000746040518060400160405280601b81526020017f4261636b656420546f6b656e20496d706c656d656e746174696f6e00000000008152506040518060400160405280600381526020016242544960e81b8152506200007a60201b60201c565b620006dd565b600054610100900460ff16158080156200009b5750600054600160ff909116105b80620000cb5750620000b830620001e860201b62000f5d1760201c565b158015620000cb575060005460ff166001145b620001345760405162461bcd60e51b815260206004820152602e60248201527f496e697469616c697a61626c653a20636f6e747261637420697320616c72656160448201526d191e481a5b9a5d1a585b1a5e995960921b60648201526084015b60405180910390fd5b6000805460ff19166001179055801562000158576000805461ff0019166101001790555b620001648383620001f7565b6200016e62000263565b62000178620002cb565b6200019c6040518060600160405280602f815260200162002bd7602f913962000376565b8015620001e3576000805461ff0019169055604051600181527f7f26b83ff96e1f2b6a682f133852f6798a09c465da95921460cefb38474024989060200160405180910390a15b505050565b6001600160a01b03163b151590565b600054610100900460ff16620002535760405162461bcd60e51b815260206004820152602b602482015260008051602062002c0683398151915260448201526a6e697469616c697a696e6760a81b60648201526084016200012b565b6200025f8282620003c8565b5050565b600054610100900460ff16620002bf5760405162461bcd60e51b815260206004820152602b602482015260008051602062002c0683398151915260448201526a6e697469616c697a696e6760a81b60648201526084016200012b565b620002c96200044f565b565b7f8b73c3c69bb8fe3d512ecc4cf759cc79239f7b179b0ffacaa9a75d522b39400f620002f6620004b6565b805160209182012060408051808201825260018152603160f81b90840152805192830193909352918101919091527fc89efdaa54c0f20c7adf612882df0950f5a951637e0307cdcb4c672f298b8bc660608201524660808201523060a082015260c00160408051601f198184030181529190528051602090910120609855565b80516200038b9060d0906020840190620005a2565b507f9c1e1a17a78053ad78b3801837ad5e515d429987252f2e1371b7b50fa8ff8bec81604051620003bd919062000648565b60405180910390a150565b600054610100900460ff16620004245760405162461bcd60e51b815260206004820152602b602482015260008051602062002c0683398151915260448201526a6e697469616c697a696e6760a81b60648201526084016200012b565b815162000439906068906020850190620005a2565b508051620001e3906069906020840190620005a2565b600054610100900460ff16620004ab5760405162461bcd60e51b815260206004820152602b602482015260008051602062002c0683398151915260448201526a6e697469616c697a696e6760a81b60648201526084016200012b565b620002c93362000550565b606060688054620004c790620006a0565b80601f0160208091040260200160405190810160405280929190818152602001828054620004f590620006a0565b8015620005465780601f106200051a5761010080835404028352916020019162000546565b820191906000526020600020905b8154815290600101906020018083116200052857829003601f168201915b5050505050905090565b603380546001600160a01b038381166001600160a01b0319831681179093556040519116919082907f8be0079c531659141344cd1fd0a4f28419497f9722a3daafe3b4186f6b6457e090600090a35050565b828054620005b090620006a0565b90600052602060002090601f016020900481019282620005d457600085556200061f565b82601f10620005ef57805160ff19168380011785556200061f565b828001600101855582156200061f579182015b828111156200061f57825182559160200191906001019062000602565b506200062d92915062000631565b5090565b5b808211156200062d576000815560010162000632565b600060208083528351808285015260005b81811015620006775785810183015185820160400152820162000659565b818111156200068a576000604083870101525b50601f01601f1916929092016040019392505050565b600181811c90821680620006b557607f821691505b60208210811415620006d757634e487b7160e01b600052602260045260246000fd5b50919050565b6124ea80620006ed6000396000f3fe608060405234801561001057600080fd5b50600436106102485760003560e01c80637f1205871161013b578063b187bd26116100b8578063dd62ed3e1161007c578063dd62ed3e1461053f578063ec571c6a14610552578063f2fde38b1461056a578063fca3b5aa1461057d578063ffa1ad741461059057600080fd5b8063b187bd26146104f1578063b6ca6e12146104fe578063bedb86fb14610511578063d502562514610524578063d505accf1461052c57600080fd5b8063a15f84da116100ff578063a15f84da14610492578063a457c2d7146104a5578063a9059cbb146104b8578063a996d6ce146104cb578063aea77ac3146104de57600080fd5b80637f1205871461042c5780638da5cb5b1461045357806395d89b41146104645780639dc29fac1461046c5780639fd0506d1461047f57600080fd5b80633644e515116101c95780635c575ef31161018d5780635c575ef3146103b457806370a08231146103c8578063715018a6146103f157806378f86afc146103f95780637ecebe001461040c57600080fd5b80633644e5151461035f578063395093511461036857806340c10f191461037b57806349dc5e8d1461038e5780634cd88b76146103a157600080fd5b806327810b6e1161021057806327810b6e146102de5780632cc5ecd5146102f15780632d88af4a1461031457806330adf81f14610329578063313ce5671461035057600080fd5b806306fdde031461024d578063075461721461026b578063095ea7b31461029657806318160ddd146102b957806323b872dd146102cb575b600080fd5b6102556105b4565b6040516102629190611ffc565b60405180910390f35b60cb5461027e906001600160a01b031681565b6040516001600160a01b039091168152602001610262565b6102a96102a436600461206d565b610646565b6040519015158152602001610262565b6067545b604051908152602001610262565b6102a96102d9366004612097565b61065e565b60cc5461027e906001600160a01b031681565b6102a96102ff3660046120d3565b60ce6020526000908152604090205460ff1681565b6103276103223660046120d3565b610682565b005b6102bd7f6e71edae12b1b97f4d1f60370fef10105fa2faae0126114a169c64845d6126c981565b60405160128152602001610262565b6102bd60985481565b6102a961037636600461206d565b6106d4565b61032761038936600461206d565b6106f6565b61032761039c3660046120d3565b61076c565b6103276103af366004612198565b610894565b60cd546102a990600160a01b900460ff1681565b6102bd6103d63660046120d3565b6001600160a01b031660009081526065602052604090205490565b6103276109da565b6103276104073660046121fc565b6109ee565b6102bd61041a3660046120d3565b60976020526000908152604090205481565b6102bd7f4eba51a08f56c21035fcbda11b779f91748d3ae295b24c3e032d1eeff84edc2e81565b6033546001600160a01b031661027e565b610255610a02565b61032761047a36600461206d565b610a11565b60cd5461027e906001600160a01b031681565b6103276104a0366004612247565b610ae9565b6102a96104b336600461206d565b610b49565b6102a96104c636600461206d565b610bc4565b6103276104d93660046120d3565b610bd2565b6103276104ec366004612264565b610c24565b60cf546102a99060ff1681565b61032761050c3660046122d7565b610c7f565b61032761051f366004612247565b610ce6565b610255610d8a565b61032761053a366004612264565b610e18565b6102bd61054d36600461230e565b610e6a565b60cf5461027e9061010090046001600160a01b031681565b6103276105783660046120d3565b610e95565b61032761058b3660046120d3565b610f0b565b610255604051806040016040528060058152602001640312e312e360dc1b81525081565b6060606880546105c390612341565b80601f01602080910402602001604051908101604052809291908181526020018280546105ef90612341565b801561063c5780601f106106115761010080835404028352916020019161063c565b820191906000526020600020905b81548152906001019060200180831161061f57829003601f168201915b5050505050905090565b600033610654818585610f6c565b5060019392505050565b60003361066c858285611090565b610677858585611176565b506001949350505050565b61068a61132e565b60cd80546001600160a01b0319166001600160a01b0383169081179091556040517f4f68150eb56c53cc9373649e35bc37dd235a0c86e10aa23b8a835378136ac6a090600090a250565b6000336106548185856106e78383610e6a565b6106f19190612392565b610f6c565b60cb546001600160a01b0316336001600160a01b03161461075e5760405162461bcd60e51b815260206004820152601860248201527f4261636b6564546f6b656e3a204f6e6c79206d696e746572000000000000000060448201526064015b60405180910390fd5b6107688282611388565b5050565b61077461132e565b60405163df592f7d60e01b81523060048201526001600160a01b0382169063df592f7d9060240160206040518083038186803b1580156107b357600080fd5b505afa1580156107c7573d6000803e3d6000fd5b505050506040513d601f19601f820116820180604052508101906107eb91906123aa565b156108425760405162461bcd60e51b815260206004820152602160248201527f4261636b6564546f6b656e3a2057726f6e67204c69737420696e7465726661636044820152606560f81b6064820152608401610755565b60cf8054610100600160a81b0319166101006001600160a01b038416908102919091179091556040517feff538eaa91b9b5384df4354f3841681487784258ac4b209182aef0755f9e0be90600090a250565b600054610100900460ff16158080156108b45750600054600160ff909116105b806108ce5750303b1580156108ce575060005460ff166001145b6109315760405162461bcd60e51b815260206004820152602e60248201527f496e697469616c697a61626c653a20636f6e747261637420697320616c72656160448201526d191e481a5b9a5d1a585b1a5e995960921b6064820152608401610755565b6000805460ff191660011790558015610954576000805461ff0019166101001790555b61095e8383611455565b610966611486565b61096e6114b5565b61098f6040518060600160405280602f8152602001612486602f913961155e565b80156109d5576000805461ff0019169055604051600181527f7f26b83ff96e1f2b6a682f133852f6798a09c465da95921460cefb38474024989060200160405180910390a15b505050565b6109e261132e565b6109ec60006115a1565b565b6109f661132e565b6109ff8161155e565b50565b6060606980546105c390612341565b60cc546001600160a01b0316336001600160a01b031614610a745760405162461bcd60e51b815260206004820152601860248201527f4261636b6564546f6b656e3a204f6e6c79206275726e657200000000000000006044820152606401610755565b6001600160a01b038216331480610a9357506001600160a01b03821630145b610adf5760405162461bcd60e51b815260206004820181905260248201527f4261636b6564546f6b656e3a2043616e6e6f74206275726e206163636f756e746044820152606401610755565b61076882826115f3565b610af161132e565b60cd8054821515600160a01b0260ff60a01b199091161790556040517f238422c0d720060023911dceeb8ba506952801637ad007844edcd4416364fecf90610b3e90831515815260200190565b60405180910390a150565b60003381610b578286610e6a565b905083811015610bb75760405162461bcd60e51b815260206004820152602560248201527f45524332303a2064656372656173656420616c6c6f77616e63652062656c6f77604482015264207a65726f60d81b6064820152608401610755565b6106778286868403610f6c565b600033610654818585611176565b610bda61132e565b60cc80546001600160a01b0319166001600160a01b0383169081179091556040517f5bb1db06eeb30d85c1e53ae2285b460ce83e4318c623bd1ca51df912f64c45a490600090a250565b60cd54600160a01b900460ff1680610c4b575033600090815260ce602052604090205460ff165b610c675760405162461bcd60e51b8152600401610755906123c7565b610c7687878787878787611733565b50505050505050565b610c8761132e565b6001600160a01b038216600081815260ce6020908152604091829020805460ff191685151590811790915591519182527f7459b9d2544fdaf790226b129ff473f8c8ce56bfc10bc3bdbe1c71b9d426a546910160405180910390a25050565b60cd546001600160a01b0316336001600160a01b031614610d495760405162461bcd60e51b815260206004820152601860248201527f4261636b6564546f6b656e3a204f6e6c792070617573657200000000000000006044820152606401610755565b60cf805460ff19168215159081179091556040519081527fb9bcdd890b4d4c213bab99cf96dc1adb9ede36bb2a54610c91a86de844b05fb890602001610b3e565b60d08054610d9790612341565b80601f0160208091040260200160405190810160405280929190818152602001828054610dc390612341565b8015610e105780601f10610de557610100808354040283529160200191610e10565b820191906000526020600020905b815481529060010190602001808311610df357829003601f168201915b505050505081565b60cd54600160a01b900460ff1680610e3f575033600090815260ce602052604090205460ff165b610e5b5760405162461bcd60e51b8152600401610755906123c7565b610c7687878787878787611824565b6001600160a01b03918216600090815260666020908152604080832093909416825291909152205490565b610e9d61132e565b6001600160a01b038116610f025760405162461bcd60e51b815260206004820152602660248201527f4f776e61626c653a206e6577206f776e657220697320746865207a65726f206160448201526564647265737360d01b6064820152608401610755565b6109ff816115a1565b610f1361132e565b60cb80546001600160a01b0319166001600160a01b0383169081179091556040517f6adffd5c93085d835dac6f3b40adf7c242ca4b3284048d20c3d8a501748dc97390600090a250565b6001600160a01b03163b151590565b6001600160a01b038316610fce5760405162461bcd60e51b8152602060048201526024808201527f45524332303a20617070726f76652066726f6d20746865207a65726f206164646044820152637265737360e01b6064820152608401610755565b6001600160a01b03821661102f5760405162461bcd60e51b815260206004820152602260248201527f45524332303a20617070726f766520746f20746865207a65726f206164647265604482015261737360f01b6064820152608401610755565b6001600160a01b0383811660008181526066602090815260408083209487168084529482529182902085905590518481527f8c5be1e5ebec7d5bd14f71427d1e84f3dd0314c0f7b2291e5b200ac8c7c3b925910160405180910390a3505050565b60cf5460405163df592f7d60e01b81526001600160a01b0384811660048301526101009092049091169063df592f7d9060240160206040518083038186803b1580156110db57600080fd5b505afa1580156110ef573d6000803e3d6000fd5b505050506040513d601f19601f8201168201806040525081019061111391906123aa565b1561116b5760405162461bcd60e51b815260206004820152602260248201527f4261636b6564546f6b656e3a207370656e6465722069732073616e6374696f6e604482015261195960f21b6064820152608401610755565b6109d583838361190b565b6001600160a01b0383166111da5760405162461bcd60e51b815260206004820152602560248201527f45524332303a207472616e736665722066726f6d20746865207a65726f206164604482015264647265737360d81b6064820152608401610755565b6001600160a01b03821661123c5760405162461bcd60e51b815260206004820152602360248201527f45524332303a207472616e7366657220746f20746865207a65726f206164647260448201526265737360e81b6064820152608401610755565b61124783838361197f565b6001600160a01b038316600090815260656020526040902054818110156112bf5760405162461bcd60e51b815260206004820152602660248201527f45524332303a207472616e7366657220616d6f756e7420657863656564732062604482015265616c616e636560d01b6064820152608401610755565b6001600160a01b0380851660008181526065602052604080822086860390559286168082529083902080548601905591517fddf252ad1be2c89b69c2b068fc378daa952ba7f163c4a11628f55a4df523b3ef9061131f9086815260200190565b60405180910390a35b50505050565b6033546001600160a01b031633146109ec5760405162461bcd60e51b815260206004820181905260248201527f4f776e61626c653a2063616c6c6572206973206e6f7420746865206f776e65726044820152606401610755565b6001600160a01b0382166113de5760405162461bcd60e51b815260206004820152601f60248201527f45524332303a206d696e7420746f20746865207a65726f2061646472657373006044820152606401610755565b6113ea6000838361197f565b80606760008282546113fc9190612392565b90915550506001600160a01b0382166000818152606560209081526040808320805486019055518481527fddf252ad1be2c89b69c2b068fc378daa952ba7f163c4a11628f55a4df523b3ef910160405180910390a35050565b600054610100900460ff1661147c5760405162461bcd60e51b815260040161075590612409565b6107688282611bbe565b600054610100900460ff166114ad5760405162461bcd60e51b815260040161075590612409565b6109ec611c0c565b7f8b73c3c69bb8fe3d512ecc4cf759cc79239f7b179b0ffacaa9a75d522b39400f6114de6105b4565b805160209182012060408051808201825260018152603160f81b90840152805192830193909352918101919091527fc89efdaa54c0f20c7adf612882df0950f5a951637e0307cdcb4c672f298b8bc660608201524660808201523060a082015260c00160408051601f198184030181529190528051602090910120609855565b80516115719060d0906020840190611f63565b507f9c1e1a17a78053ad78b3801837ad5e515d429987252f2e1371b7b50fa8ff8bec81604051610b3e9190611ffc565b603380546001600160a01b038381166001600160a01b0319831681179093556040519116919082907f8be0079c531659141344cd1fd0a4f28419497f9722a3daafe3b4186f6b6457e090600090a35050565b6001600160a01b0382166116535760405162461bcd60e51b815260206004820152602160248201527f45524332303a206275726e2066726f6d20746865207a65726f206164647265736044820152607360f81b6064820152608401610755565b61165f8260008361197f565b6001600160a01b038216600090815260656020526040902054818110156116d35760405162461bcd60e51b815260206004820152602260248201527f45524332303a206275726e20616d6f756e7420657863656564732062616c616e604482015261636560f01b6064820152608401610755565b6001600160a01b03831660008181526065602090815260408083208686039055606780548790039055518581529192917fddf252ad1be2c89b69c2b068fc378daa952ba7f163c4a11628f55a4df523b3ef910160405180910390a3505050565b834211156117835760405162461bcd60e51b815260206004820152601d60248201527f45524332305065726d69743a206578706972656420646561646c696e650000006044820152606401610755565b60007f4eba51a08f56c21035fcbda11b779f91748d3ae295b24c3e032d1eeff84edc2e8888886117b28c611c3c565b6040805160208101969096526001600160a01b0394851690860152929091166060840152608083015260a082015260c0810186905260e00160405160208183030381529060405280519060200120905061180f8882868686611c6d565b61181a888888611176565b5050505050505050565b834211156118745760405162461bcd60e51b815260206004820152601d60248201527f45524332305065726d69743a206578706972656420646561646c696e650000006044820152606401610755565b60007f6e71edae12b1b97f4d1f60370fef10105fa2faae0126114a169c64845d6126c98888886118a38c611c3c565b6040805160208101969096526001600160a01b0394851690860152929091166060840152608083015260a082015260c0810186905260e0016040516020818303038152906040528051906020012090506119008882868686611c6d565b61181a888888610f6c565b60006119178484610e6a565b9050600019811461132857818110156119725760405162461bcd60e51b815260206004820152601d60248201527f45524332303a20696e73756666696369656e7420616c6c6f77616e63650000006044820152606401610755565b6113288484848403610f6c565b60cf5460ff16156119e35760405162461bcd60e51b815260206004820152602860248201527f4261636b6564546f6b656e3a20746f6b656e207472616e73666572207768696c60448201526719481c185d5cd95960c21b6064820152608401610755565b6001600160a01b03831615801590611a0357506001600160a01b03821615155b156109d55760cf5460405163df592f7d60e01b81526001600160a01b0385811660048301526101009092049091169063df592f7d9060240160206040518083038186803b158015611a5357600080fd5b505afa158015611a67573d6000803e3d6000fd5b505050506040513d601f19601f82011682018060405250810190611a8b91906123aa565b15611ae25760405162461bcd60e51b815260206004820152602160248201527f4261636b6564546f6b656e3a2073656e6465722069732073616e6374696f6e656044820152601960fa1b6064820152608401610755565b60cf5460405163df592f7d60e01b81526001600160a01b0384811660048301526101009092049091169063df592f7d9060240160206040518083038186803b158015611b2d57600080fd5b505afa158015611b41573d6000803e3d6000fd5b505050506040513d601f19601f82011682018060405250810190611b6591906123aa565b156109d55760405162461bcd60e51b815260206004820152602360248201527f4261636b6564546f6b656e3a2072656365697665722069732073616e6374696f6044820152621b995960ea1b6064820152608401610755565b600054610100900460ff16611be55760405162461bcd60e51b815260040161075590612409565b8151611bf8906068906020850190611f63565b5080516109d5906069906020840190611f63565b600054610100900460ff16611c335760405162461bcd60e51b815260040161075590612409565b6109ec336115a1565b6001600160a01b0381166000908152609760205260408120805491829190611c6383612454565b9190505550919050565b6000611cb66098548660405161190160f01b6020820152602281018390526042810182905260009060620160405160208183030381529060405280519060200120905092915050565b90506000611cc682868686611d29565b9050866001600160a01b0316816001600160a01b031614610c765760405162461bcd60e51b815260206004820152601e60248201527f45524332305065726d69743a20696e76616c6964207369676e617475726500006044820152606401610755565b6000806000611d3a87878787611d51565b91509150611d4781611e15565b5095945050505050565b6000807f7fffffffffffffffffffffffffffffff5d576e7357a4501ddfe92f46681b20a0831115611d885750600090506003611e0c565b6040805160008082526020820180845289905260ff881692820192909252606081018690526080810185905260019060a0016020604051602081039080840390855afa158015611ddc573d6000803e3d6000fd5b5050604051601f1901519150506001600160a01b038116611e0557600060019250925050611e0c565b9150600090505b94509492505050565b6000816004811115611e2957611e2961246f565b1415611e325750565b6001816004811115611e4657611e4661246f565b1415611e945760405162461bcd60e51b815260206004820152601860248201527f45434453413a20696e76616c6964207369676e617475726500000000000000006044820152606401610755565b6002816004811115611ea857611ea861246f565b1415611ef65760405162461bcd60e51b815260206004820152601f60248201527f45434453413a20696e76616c6964207369676e6174757265206c656e677468006044820152606401610755565b6003816004811115611f0a57611f0a61246f565b14156109ff5760405162461bcd60e51b815260206004820152602260248201527f45434453413a20696e76616c6964207369676e6174757265202773272076616c604482015261756560f01b6064820152608401610755565b828054611f6f90612341565b90600052602060002090601f016020900481019282611f915760008555611fd7565b82601f10611faa57805160ff1916838001178555611fd7565b82800160010185558215611fd7579182015b82811115611fd7578251825591602001919060010190611fbc565b50611fe3929150611fe7565b5090565b5b80821115611fe35760008155600101611fe8565b600060208083528351808285015260005b818110156120295785810183015185820160400152820161200d565b8181111561203b576000604083870101525b50601f01601f1916929092016040019392505050565b80356001600160a01b038116811461206857600080fd5b919050565b6000806040838503121561208057600080fd5b61208983612051565b946020939093013593505050565b6000806000606084860312156120ac57600080fd5b6120b584612051565b92506120c360208501612051565b9150604084013590509250925092565b6000602082840312156120e557600080fd5b6120ee82612051565b9392505050565b634e487b7160e01b600052604160045260246000fd5b600082601f83011261211c57600080fd5b813567ffffffffffffffff80821115612137576121376120f5565b604051601f8301601f19908116603f0116810190828211818310171561215f5761215f6120f5565b8160405283815286602085880101111561217857600080fd5b836020870160208301376000602085830101528094505050505092915050565b600080604083850312156121ab57600080fd5b823567ffffffffffffffff808211156121c357600080fd5b6121cf8683870161210b565b935060208501359150808211156121e557600080fd5b506121f28582860161210b565b9150509250929050565b60006020828403121561220e57600080fd5b813567ffffffffffffffff81111561222557600080fd5b6122318482850161210b565b949350505050565b80151581146109ff57600080fd5b60006020828403121561225957600080fd5b81356120ee81612239565b600080600080600080600060e0888a03121561227f57600080fd5b61228888612051565b965061229660208901612051565b95506040880135945060608801359350608088013560ff811681146122ba57600080fd5b9699959850939692959460a0840135945060c09093013592915050565b600080604083850312156122ea57600080fd5b6122f383612051565b9150602083013561230381612239565b809150509250929050565b6000806040838503121561232157600080fd5b61232a83612051565b915061233860208401612051565b90509250929050565b600181811c9082168061235557607f821691505b6020821081141561237657634e487b7160e01b600052602260045260246000fd5b50919050565b634e487b7160e01b600052601160045260246000fd5b600082198211156123a5576123a561237c565b500190565b6000602082840312156123bc57600080fd5b81516120ee81612239565b60208082526022908201527f4261636b6564546f6b656e3a20556e617574686f72697a65642064656c656761604082015261746560f01b606082015260800190565b6020808252602b908201527f496e697469616c697a61626c653a20636f6e7472616374206973206e6f74206960408201526a6e697469616c697a696e6760a81b606082015260800190565b60006000198214156124685761246861237c565b5060010190565b634e487b7160e01b600052602160045260246000fdfe68747470733a2f2f7777772e6261636b65646173736574732e66692f6c6567616c2d646f63756d656e746174696f6ea264697066735822122048650b5b2b1e6f7939e7b6731595d2ab0ec3206b75829647f5944d58b250352864736f6c6343000809003368747470733a2f2f7777772e6261636b65646173736574732e66692f6c6567616c2d646f63756d656e746174696f6e496e697469616c697a61626c653a20636f6e7472616374206973206e6f742069",
  "devdoc": {
    "details": "This token contract is following the ERC20 standard. It inherits ERC20PermitDelegateTransfer.sol, which extends the basic ERC20 to also allow permit and delegateTransfer EIP-712 functionality. Enforces Sanctions List via the Chainalysis standard interface. The contract contains three roles:  - A minter, that can mint new tokens.  - A burner, that can burn its own tokens, or contract's tokens.  - A pauser, that can pause or restore all transfers in the contract.  - An owner, that can set the three above, and also the sanctionsList pointer. The owner can also set who can use the EIP-712 functionality, either specific accounts via a whitelist, or everyone. ",
    "kind": "dev",
    "methods": {
      "allowance(address,address)": {
        "details": "See {IERC20-allowance}."
      },
      "approve(address,uint256)": {
        "details": "See {IERC20-approve}. NOTE: If `amount` is the maximum `uint256`, the allowance is not updated on `transferFrom`. This is semantically equivalent to an infinite approval. Requirements: - `spender` cannot be the zero address."
      },
      "balanceOf(address)": {
        "details": "See {IERC20-balanceOf}."
      },
      "burn(address,uint256)": {
        "details": "Function to burn tokens. Allowed only for burner. The burned tokens  must be from the burner (msg.sender), or from the contract itself",
        "params": {
          "account": "The account from which the tokens will be burned",
          "amount": "The amount of tokens to be burned"
        }
      },
      "decimals()": {
        "details": "Returns the number of decimals used to get its user representation. For example, if `decimals` equals `2`, a balance of `505` tokens should be displayed to a user as `5.05` (`505 / 10 ** 2`). Tokens usually opt for a value of 18, imitating the relationship between Ether and Wei. This is the value {ERC20} uses, unless this function is overridden; NOTE: This information is only used for _display_ purposes: it in no way affects any of the arithmetic of the contract, including {IERC20-balanceOf} and {IERC20-transfer}."
      },
      "decreaseAllowance(address,uint256)": {
        "details": "Atomically decreases the allowance granted to `spender` by the caller. This is an alternative to {approve} that can be used as a mitigation for problems described in {IERC20-approve}. Emits an {Approval} event indicating the updated allowance. Requirements: - `spender` cannot be the zero address. - `spender` must have allowance for the caller of at least `subtractedValue`."
      },
      "delegatedTransfer(address,address,uint256,uint256,uint8,bytes32,bytes32)": {
        "details": "Perform an intended transfer on one account's behalf, from another account,  who actually pays fees for the transaction. Allowed only if the sender  is whitelisted, or the delegateMode is set to true",
        "params": {
          "deadline": "Expiration time, seconds since the epoch",
          "owner": "The account that provided the signature and from which the tokens will be taken",
          "r": "r part of the signature",
          "s": "s part of the signature",
          "to": "The account that will receive the tokens",
          "v": "v part of the signature",
          "value": "The amount of tokens to transfer"
        }
      },
      "increaseAllowance(address,uint256)": {
        "details": "Atomically increases the allowance granted to `spender` by the caller. This is an alternative to {approve} that can be used as a mitigation for problems described in {IERC20-approve}. Emits an {Approval} event indicating the updated allowance. Requirements: - `spender` cannot be the zero address."
      },
      "mint(address,uint256)": {
        "details": "Function to mint tokens. Allowed only for minter",
        "params": {
          "account": "The address that will receive the minted tokens",
          "amount": "The amount of tokens to mint"
        }
      },
      "name()": {
        "details": "Returns the name of the token."
      },
      "owner()": {
        "details": "Returns the address of the current owner."
      },
      "permit(address,address,uint256,uint256,uint8,bytes32,bytes32)": {
        "details": "Update allowance with a signed permit. Allowed only if  the sender is whitelisted, or the delegateMode is set to true",
        "params": {
          "deadline": "Expiration time, seconds since the epoch",
          "owner": "Token owner's address (Authorizer)",
          "r": "r part of the signature",
          "s": "s part of the signature",
          "spender": "Spender's address",
          "v": "v part of the signature",
          "value": "Amount of allowance"
        }
      },
      "renounceOwnership()": {
        "details": "Leaves the contract without owner. It will not be possible to call `onlyOwner` functions anymore. Can only be called by the current owner. NOTE: Renouncing ownership will leave the contract without an owner, thereby removing any functionality that is only available to the owner."
      },
      "setBurner(address)": {
        "details": "Function to change the contract burner. Allowed only for owner Emits a { NewBurner } event",
        "params": {
          "newBurner": "The address of the new burner"
        }
      },
      "setDelegateMode(bool)": {
        "details": "EIP-712 Function to change the contract delegate mode. Allowed  only for owner Emits a { DelegateModeChange } event",
        "params": {
          "_delegateMode": "The new delegate mode for the contract"
        }
      },
      "setDelegateWhitelist(address,bool)": {
        "details": "EIP-712 Function to change the delegate status of account.  Allowed only for owner Emits a { DelegateWhitelistChange } event",
        "params": {
          "status": "The new delegate status",
          "whitelistAddress": "The address for which to change the delegate status"
        }
      },
      "setMinter(address)": {
        "details": "Function to change the contract minter. Allowed only for owner Emits a { NewMinter } event",
        "params": {
          "newMinter": "The address of the new minter"
        }
      },
      "setPause(bool)": {
        "details": "Function to set the pause in order to block or restore all  transfers. Allowed only for pauser Emits a { PauseModeChange } event",
        "params": {
          "newPauseMode": "The new pause mode"
        }
      },
      "setPauser(address)": {
        "details": "Function to change the contract pauser. Allowed only for owner Emits a { NewPauser } event",
        "params": {
          "newPauser": "The address of the new pauser"
        }
      },
      "setSanctionsList(address)": {
        "details": "Function to change the contract Senctions List. Allowed only for owner Emits a { NewSanctionsList } event",
        "params": {
          "newSanctionsList": "The address of the new Senctions List following the Chainalysis standard"
        }
      },
      "setTerms(string)": {
        "details": "Function to change the contract terms. Allowed only for owner Emits a { NewTerms } event",
        "params": {
          "newTerms": "A string with the terms. Usually a web or IPFS link."
        }
      },
      "symbol()": {
        "details": "Returns the symbol of the token, usually a shorter version of the name."
      },
      "totalSupply()": {
        "details": "See {IERC20-totalSupply}."
      },
      "transfer(address,uint256)": {
        "details": "See {IERC20-transfer}. Requirements: - `to` cannot be the zero address. - the caller must have a balance of at least `amount`."
      },
      "transferFrom(address,address,uint256)": {
        "details": "See {IERC20-transferFrom}. Emits an {Approval} event indicating the updated allowance. This is not required by the EIP. See the note at the beginning of {ERC20}. NOTE: Does not update the allowance if the current allowance is the maximum `uint256`. Requirements: - `from` and `to` cannot be the zero address. - `from` must have a balance of at least `amount`. - the caller must have allowance for ``from``'s tokens of at least `amount`."
      },
      "transferOwnership(address)": {
        "details": "Transfers ownership of the contract to a new account (`newOwner`). Can only be called by the current owner."
      }
    },
    "stateVariables": {
      "__gap": {
        "details": "This empty reserved space is put in place to allow future versions to add new variables without shifting down storage in the inheritance chain. See https://docs.openzeppelin.com/contracts/4.x/upgradeable#storage_gaps"
      }
    },
    "version": 1
  },
  "userdoc": {
    "kind": "user",
    "methods": {},
    "version": 1
  },
  "storageLayout": {
    "storage": [
      {
        "astId": 138,
        "contract": "contracts/BackedFactory/BackedTokenImplementation.sol:BackedTokenImplementation",
        "label": "_initialized",
        "offset": 0,
        "slot": "0",
        "type": "t_uint8"
      },
      {
        "astId": 141,
        "contract": "contracts/BackedFactory/BackedTokenImplementation.sol:BackedTokenImplementation",
        "label": "_initializing",
        "offset": 1,
        "slot": "0",
        "type": "t_bool"
      },
      {
        "astId": 1340,
        "contract": "contracts/BackedFactory/BackedTokenImplementation.sol:BackedTokenImplementation",
        "label": "__gap",
        "offset": 0,
        "slot": "1",
        "type": "t_array(t_uint256)50_storage"
      },
      {
        "astId": 10,
        "contract": "contracts/BackedFactory/BackedTokenImplementation.sol:BackedTokenImplementation",
        "label": "_owner",
        "offset": 0,
        "slot": "51",
        "type": "t_address"
      },
      {
        "astId": 130,
        "contract": "contracts/BackedFactory/BackedTokenImplementation.sol:BackedTokenImplementation",
        "label": "__gap",
        "offset": 0,
        "slot": "52",
        "type": "t_array(t_uint256)49_storage"
      },
      {
        "astId": 319,
        "contract": "contracts/BackedFactory/BackedTokenImplementation.sol:BackedTokenImplementation",
        "label": "_balances",
        "offset": 0,
        "slot": "101",
        "type": "t_mapping(t_address,t_uint256)"
      },
      {
        "astId": 325,
        "contract": "contracts/BackedFactory/BackedTokenImplementation.sol:BackedTokenImplementation",
        "label": "_allowances",
        "offset": 0,
        "slot": "102",
        "type": "t_mapping(t_address,t_mapping(t_address,t_uint256))"
      },
      {
        "astId": 327,
        "contract": "contracts/BackedFactory/BackedTokenImplementation.sol:BackedTokenImplementation",
        "label": "_totalSupply",
        "offset": 0,
        "slot": "103",
        "type": "t_uint256"
      },
      {
        "astId": 329,
        "contract": "contracts/BackedFactory/BackedTokenImplementation.sol:BackedTokenImplementation",
        "label": "_name",
        "offset": 0,
        "slot": "104",
        "type": "t_string_storage"
      },
      {
        "astId": 331,
        "contract": "contracts/BackedFactory/BackedTokenImplementation.sol:BackedTokenImplementation",
        "label": "_symbol",
        "offset": 0,
        "slot": "105",
        "type": "t_string_storage"
      },
      {
        "astId": 911,
        "contract": "contracts/BackedFactory/BackedTokenImplementation.sol:BackedTokenImplementation",
        "label": "__gap",
        "offset": 0,
        "slot": "106",
        "type": "t_array(t_uint256)45_storage"
      },
      {
        "astId": 4758,
        "contract": "contracts/BackedFactory/BackedTokenImplementation.sol:BackedTokenImplementation",
        "label": "nonces",
        "offset": 0,
        "slot": "151",
        "type": "t_mapping(t_address,t_uint256)"
      },
      {
        "astId": 4770,
        "contract": "contracts/BackedFactory/BackedTokenImplementation.sol:BackedTokenImplementation",
        "label": "DOMAIN_SEPARATOR",
        "offset": 0,
        "slot": "152",
        "type": "t_bytes32"
      },
      {
        "astId": 4985,
        "contract": "contracts/BackedFactory/BackedTokenImplementation.sol:BackedTokenImplementation",
        "label": "__gap",
        "offset": 0,
        "slot": "153",
        "type": "t_array(t_uint256)50_storage"
      },
      {
        "astId": 4256,
        "contract": "contracts/BackedFactory/BackedTokenImplementation.sol:BackedTokenImplementation",
        "label": "minter",
        "offset": 0,
        "slot": "203",
        "type": "t_address"
      },
      {
        "astId": 4258,
        "contract": "contracts/BackedFactory/BackedTokenImplementation.sol:BackedTokenImplementation",
        "label": "burner",
        "offset": 0,
        "slot": "204",
        "type": "t_address"
      },
      {
        "astId": 4260,
        "contract": "contracts/BackedFactory/BackedTokenImplementation.sol:BackedTokenImplementation",
        "label": "pauser",
        "offset": 0,
        "slot": "205",
        "type": "t_address"
      },
      {
        "astId": 4262,
        "contract": "contracts/BackedFactory/BackedTokenImplementation.sol:BackedTokenImplementation",
        "label": "delegateMode",
        "offset": 20,
        "slot": "205",
        "type": "t_bool"
      },
      {
        "astId": 4266,
        "contract": "contracts/BackedFactory/BackedTokenImplementation.sol:BackedTokenImplementation",
        "label": "delegateWhitelist",
        "offset": 0,
        "slot": "206",
        "type": "t_mapping(t_address,t_bool)"
      },
      {
        "astId": 4268,
        "contract": "contracts/BackedFactory/BackedTokenImplementation.sol:BackedTokenImplementation",
        "label": "isPaused",
        "offset": 0,
        "slot": "207",
        "type": "t_bool"
      },
      {
        "astId": 4271,
        "contract": "contracts/BackedFactory/BackedTokenImplementation.sol:BackedTokenImplementation",
        "label": "sanctionsList",
        "offset": 1,
        "slot": "207",
        "type": "t_contract(SanctionsList)4997"
      },
      {
        "astId": 4273,
        "contract": "contracts/BackedFactory/BackedTokenImplementation.sol:BackedTokenImplementation",
        "label": "terms",
        "offset": 0,
        "slot": "208",
        "type": "t_string_storage"
      },
      {
        "astId": 4746,
        "contract": "contracts/BackedFactory/BackedTokenImplementation.sol:BackedTokenImplementation",
        "label": "__gap",
        "offset": 0,
        "slot": "209",
        "type": "t_array(t_uint256)49_storage"
      }
    ],
    "types": {
      "t_address": {
        "encoding": "inplace",
        "label": "address",
        "numberOfBytes": "20"
      },
      "t_array(t_uint256)45_storage": {
        "base": "t_uint256",
        "encoding": "inplace",
        "label": "uint256[45]",
        "numberOfBytes": "1440"
      },
      "t_array(t_uint256)49_storage": {
        "base": "t_uint256",
        "encoding": "inplace",
        "label": "uint256[49]",
        "numberOfBytes": "1568"
      },
      "t_array(t_uint256)50_storage": {
        "base": "t_uint256",
        "encoding": "inplace",
        "label": "uint256[50]",
        "numberOfBytes": "1600"
      },
      "t_bool": {
        "encoding": "inplace",
        "label": "bool",
        "numberOfBytes": "1"
      },
      "t_bytes32": {
        "encoding": "inplace",
        "label": "bytes32",
        "numberOfBytes": "32"
      },
      "t_contract(SanctionsList)4997": {
        "encoding": "inplace",
        "label": "contract SanctionsList",
        "numberOfBytes": "20"
      },
      "t_mapping(t_address,t_bool)": {
        "encoding": "mapping",
        "key": "t_address",
        "label": "mapping(address => bool)",
        "numberOfBytes": "32",
        "value": "t_bool"
      },
      "t_mapping(t_address,t_mapping(t_address,t_uint256))": {
        "encoding": "mapping",
        "key": "t_address",
        "label": "mapping(address => mapping(address => uint256))",
        "numberOfBytes": "32",
        "value": "t_mapping(t_address,t_uint256)"
      },
      "t_mapping(t_address,t_uint256)": {
        "encoding": "mapping",
        "key": "t_address",
        "label": "mapping(address => uint256)",
        "numberOfBytes": "32",
        "value": "t_uint256"
      },
      "t_string_storage": {
        "encoding": "bytes",
        "label": "string",
        "numberOfBytes": "32"
      },
      "t_uint256": {
        "encoding": "inplace",
        "label": "uint256",
        "numberOfBytes": "32"
      },
      "t_uint8": {
        "encoding": "inplace",
        "label": "uint8",
        "numberOfBytes": "1"
      }
    }
  }
}