{
  "address": "0x2B9Df4C0710Ee4D1c4e52F9dE839e267D17D89D8",
  "abi": [
    {
      "anonymous": false,
      "inputs": [
        {
          "indexed": false,
          "internalType": "address",
          "name": "_activePoolAddress",
          "type": "address"
        }
      ],
      "name": "ActivePoolAddressChanged",
      "type": "event"
    },
    {
      "anonymous": false,
      "inputs": [
        {
          "indexed": false,
          "internalType": "address",
          "name": "_b2bStakingAddress",
          "type": "address"
        }
      ],
      "name": "B2BStakingAddressChanged",
      "type": "event"
    },
    {
      "anonymous": false,
      "inputs": [
        {
          "indexed": true,
          "internalType": "address",
          "name": "_borrower",
          "type": "address"
        },
        {
          "indexed": false,
          "internalType": "uint256",
          "name": "_BUSDCFee",
          "type": "uint256"
        }
      ],
      "name": "BUSDCBorrowingFeePaid",
      "type": "event"
    },
    {
      "anonymous": false,
      "inputs": [
        {
          "indexed": false,
          "internalType": "address",
          "name": "_busdcTokenAddress",
          "type": "address"
        }
      ],
      "name": "BUSDCTokenAddressChanged",
      "type": "event"
    },
    {
      "anonymous": false,
      "inputs": [
        {
          "indexed": false,
          "internalType": "address",
          "name": "_collSurplusPoolAddress",
          "type": "address"
        }
      ],
      "name": "CollSurplusPoolAddressChanged",
      "type": "event"
    },
    {
      "anonymous": false,
      "inputs": [
        {
          "indexed": false,
          "internalType": "address",
          "name": "_defaultPoolAddress",
          "type": "address"
        }
      ],
      "name": "DefaultPoolAddressChanged",
      "type": "event"
    },
    {
      "anonymous": false,
      "inputs": [
        {
          "indexed": false,
          "internalType": "address",
          "name": "_gasPoolAddress",
          "type": "address"
        }
      ],
      "name": "GasPoolAddressChanged",
      "type": "event"
    },
    {
      "anonymous": false,
      "inputs": [
        {
          "indexed": true,
          "internalType": "address",
          "name": "previousOwner",
          "type": "address"
        },
        {
          "indexed": true,
          "internalType": "address",
          "name": "newOwner",
          "type": "address"
        }
      ],
      "name": "OwnershipTransferred",
      "type": "event"
    },
    {
      "anonymous": false,
      "inputs": [
        {
          "indexed": false,
          "internalType": "address",
          "name": "_newPriceFeedAddress",
          "type": "address"
        }
      ],
      "name": "PriceFeedAddressChanged",
      "type": "event"
    },
    {
      "anonymous": false,
      "inputs": [
        {
          "indexed": false,
          "internalType": "address",
          "name": "_sortedTrovesAddress",
          "type": "address"
        }
      ],
      "name": "SortedTrovesAddressChanged",
      "type": "event"
    },
    {
      "anonymous": false,
      "inputs": [
        {
          "indexed": false,
          "internalType": "address",
          "name": "_stabilityPoolAddress",
          "type": "address"
        }
      ],
      "name": "StabilityPoolAddressChanged",
      "type": "event"
    },
    {
      "anonymous": false,
      "inputs": [
        {
          "indexed": true,
          "internalType": "address",
          "name": "_borrower",
          "type": "address"
        },
        {
          "indexed": false,
          "internalType": "uint256",
          "name": "arrayIndex",
          "type": "uint256"
        }
      ],
      "name": "TroveCreated",
      "type": "event"
    },
    {
      "anonymous": false,
      "inputs": [
        {
          "indexed": false,
          "internalType": "address",
          "name": "_newTroveManagerAddress",
          "type": "address"
        }
      ],
      "name": "TroveManagerAddressChanged",
      "type": "event"
    },
    {
      "anonymous": false,
      "inputs": [
        {
          "indexed": true,
          "internalType": "address",
          "name": "_borrower",
          "type": "address"
        },
        {
          "indexed": false,
          "internalType": "uint256",
          "name": "_debt",
          "type": "uint256"
        },
        {
          "indexed": false,
          "internalType": "uint256",
          "name": "_coll",
          "type": "uint256"
        },
        {
          "indexed": false,
          "internalType": "uint256",
          "name": "stake",
          "type": "uint256"
        },
        {
          "indexed": false,
          "internalType": "enum BorrowerOperations.BorrowerOperation",
          "name": "operation",
          "type": "uint8"
        }
      ],
      "name": "TroveUpdated",
      "type": "event"
    },
    {
      "inputs": [],
      "name": "BORROWING_FEE_FLOOR",
      "outputs": [
        {
          "internalType": "uint256",
          "name": "",
          "type": "uint256"
        }
      ],
      "stateMutability": "view",
      "type": "function"
    },
    {
      "inputs": [],
      "name": "BUSDC_GAS_COMPENSATION",
      "outputs": [
        {
          "internalType": "uint256",
          "name": "",
          "type": "uint256"
        }
      ],
      "stateMutability": "view",
      "type": "function"
    },
    {
      "inputs": [],
      "name": "CCR",
      "outputs": [
        {
          "internalType": "uint256",
          "name": "",
          "type": "uint256"
        }
      ],
      "stateMutability": "view",
      "type": "function"
    },
    {
      "inputs": [],
      "name": "DECIMAL_PRECISION",
      "outputs": [
        {
          "internalType": "uint256",
          "name": "",
          "type": "uint256"
        }
      ],
      "stateMutability": "view",
      "type": "function"
    },
    {
      "inputs": [],
      "name": "MCR",
      "outputs": [
        {
          "internalType": "uint256",
          "name": "",
          "type": "uint256"
        }
      ],
      "stateMutability": "view",
      "type": "function"
    },
    {
      "inputs": [],
      "name": "MIN_NET_DEBT",
      "outputs": [
        {
          "internalType": "uint256",
          "name": "",
          "type": "uint256"
        }
      ],
      "stateMutability": "view",
      "type": "function"
    },
    {
      "inputs": [],
      "name": "NAME",
      "outputs": [
        {
          "internalType": "string",
          "name": "",
          "type": "string"
        }
      ],
      "stateMutability": "view",
      "type": "function"
    },
    {
      "inputs": [],
      "name": "PERCENT_DIVISOR",
      "outputs": [
        {
          "internalType": "uint256",
          "name": "",
          "type": "uint256"
        }
      ],
      "stateMutability": "view",
      "type": "function"
    },
    {
      "inputs": [],
      "name": "_100pct",
      "outputs": [
        {
          "internalType": "uint256",
          "name": "",
          "type": "uint256"
        }
      ],
      "stateMutability": "view",
      "type": "function"
    },
    {
      "inputs": [],
      "name": "activePool",
      "outputs": [
        {
          "internalType": "contract IActivePool",
          "name": "",
          "type": "address"
        }
      ],
      "stateMutability": "view",
      "type": "function"
    },
    {
      "inputs": [
        {
          "internalType": "address",
          "name": "_upperHint",
          "type": "address"
        },
        {
          "internalType": "address",
          "name": "_lowerHint",
          "type": "address"
        },
        {
          "internalType": "uint256",
          "name": "_backedAmount",
          "type": "uint256"
        }
      ],
      "name": "addColl",
      "outputs": [],
      "stateMutability": "nonpayable",
      "type": "function"
    },
    {
      "inputs": [
        {
          "internalType": "uint256",
          "name": "_maxFeePercentage",
          "type": "uint256"
        },
        {
          "internalType": "uint256",
          "name": "_collWithdrawal",
          "type": "uint256"
        },
        {
          "internalType": "uint256",
          "name": "_BUSDCChange",
          "type": "uint256"
        },
        {
          "internalType": "bool",
          "name": "_isDebtIncrease",
          "type": "bool"
        },
        {
          "internalType": "address",
          "name": "_upperHint",
          "type": "address"
        },
        {
          "internalType": "address",
          "name": "_lowerHint",
          "type": "address"
        },
        {
          "internalType": "uint256",
          "name": "_backedAmount",
          "type": "uint256"
        }
      ],
      "name": "adjustTrove",
      "outputs": [],
      "stateMutability": "nonpayable",
      "type": "function"
    },
    {
      "inputs": [],
      "name": "b2bStaking",
      "outputs": [
        {
          "internalType": "contract IB2BStaking",
          "name": "",
          "type": "address"
        }
      ],
      "stateMutability": "view",
      "type": "function"
    },
    {
      "inputs": [],
      "name": "b2bStakingAddress",
      "outputs": [
        {
          "internalType": "address",
          "name": "",
          "type": "address"
        }
      ],
      "stateMutability": "view",
      "type": "function"
    },
    {
      "inputs": [],
      "name": "backedTokenAddress",
      "outputs": [
        {
          "internalType": "address",
          "name": "",
          "type": "address"
        }
      ],
      "stateMutability": "view",
      "type": "function"
    },
    {
      "inputs": [],
      "name": "busdcToken",
      "outputs": [
        {
          "internalType": "contract IBUSDCToken",
          "name": "",
          "type": "address"
        }
      ],
      "stateMutability": "view",
      "type": "function"
    },
    {
      "inputs": [],
      "name": "claimCollateral",
      "outputs": [],
      "stateMutability": "nonpayable",
      "type": "function"
    },
    {
      "inputs": [],
      "name": "closeTrove",
      "outputs": [],
      "stateMutability": "nonpayable",
      "type": "function"
    },
    {
      "inputs": [],
      "name": "defaultPool",
      "outputs": [
        {
          "internalType": "contract IDefaultPool",
          "name": "",
          "type": "address"
        }
      ],
      "stateMutability": "view",
      "type": "function"
    },
    {
      "inputs": [
        {
          "internalType": "uint256",
          "name": "_debt",
          "type": "uint256"
        }
      ],
      "name": "getCompositeDebt",
      "outputs": [
        {
          "internalType": "uint256",
          "name": "",
          "type": "uint256"
        }
      ],
      "stateMutability": "pure",
      "type": "function"
    },
    {
      "inputs": [],
      "name": "getEntireSystemColl",
      "outputs": [
        {
          "internalType": "uint256",
          "name": "entireSystemColl",
          "type": "uint256"
        }
      ],
      "stateMutability": "view",
      "type": "function"
    },
    {
      "inputs": [],
      "name": "getEntireSystemDebt",
      "outputs": [
        {
          "internalType": "uint256",
          "name": "entireSystemDebt",
          "type": "uint256"
        }
      ],
      "stateMutability": "view",
      "type": "function"
    },
    {
      "inputs": [],
      "name": "isOwner",
      "outputs": [
        {
          "internalType": "bool",
          "name": "",
          "type": "bool"
        }
      ],
      "stateMutability": "view",
      "type": "function"
    },
    {
      "inputs": [
        {
          "internalType": "address",
          "name": "_borrower",
          "type": "address"
        },
        {
          "internalType": "address",
          "name": "_upperHint",
          "type": "address"
        },
        {
          "internalType": "address",
          "name": "_lowerHint",
          "type": "address"
        },
        {
          "internalType": "uint256",
          "name": "_backedAmount",
          "type": "uint256"
        }
      ],
      "name": "moveETHGainToTrove",
      "outputs": [],
      "stateMutability": "nonpayable",
      "type": "function"
    },
    {
      "inputs": [
        {
          "internalType": "uint256",
          "name": "_maxFeePercentage",
          "type": "uint256"
        },
        {
          "internalType": "uint256",
          "name": "_BUSDCamount",
          "type": "uint256"
        },
        {
          "internalType": "address",
          "name": "_upperHint",
          "type": "address"
        },
        {
          "internalType": "address",
          "name": "_lowerHint",
          "type": "address"
        },
        {
          "internalType": "uint256",
          "name": "_backedAmount",
          "type": "uint256"
        }
      ],
      "name": "openTrove",
      "outputs": [],
      "stateMutability": "nonpayable",
      "type": "function"
    },
    {
      "inputs": [],
      "name": "owner",
      "outputs": [
        {
          "internalType": "address",
          "name": "",
          "type": "address"
        }
      ],
      "stateMutability": "view",
      "type": "function"
    },
    {
      "inputs": [],
      "name": "priceFeed",
      "outputs": [
        {
          "internalType": "contract IPriceFeed",
          "name": "",
          "type": "address"
        }
      ],
      "stateMutability": "view",
      "type": "function"
    },
    {
      "inputs": [
        {
          "internalType": "uint256",
          "name": "_BUSDCamount",
          "type": "uint256"
        },
        {
          "internalType": "address",
          "name": "_upperHint",
          "type": "address"
        },
        {
          "internalType": "address",
          "name": "_lowerHint",
          "type": "address"
        }
      ],
      "name": "repayBUSDC",
      "outputs": [],
      "stateMutability": "nonpayable",
      "type": "function"
    },
    {
      "inputs": [
        {
          "internalType": "address",
          "name": "_troveManagerAddress",
          "type": "address"
        },
        {
          "internalType": "address",
          "name": "_activePoolAddress",
          "type": "address"
        },
        {
          "internalType": "address",
          "name": "_defaultPoolAddress",
          "type": "address"
        },
        {
          "internalType": "address",
          "name": "_stabilityPoolAddress",
          "type": "address"
        },
        {
          "internalType": "address",
          "name": "_gasPoolAddress",
          "type": "address"
        },
        {
          "internalType": "address",
          "name": "_collSurplusPoolAddress",
          "type": "address"
        },
        {
          "internalType": "address",
          "name": "_priceFeedAddress",
          "type": "address"
        },
        {
          "internalType": "address",
          "name": "_sortedTrovesAddress",
          "type": "address"
        },
        {
          "internalType": "address",
          "name": "_busdcTokenAddress",
          "type": "address"
        },
        {
          "internalType": "address",
          "name": "_b2bStakingAddress",
          "type": "address"
        },
        {
          "internalType": "address",
          "name": "_backedTokenAddress",
          "type": "address"
        },
        {
          "internalType": "address",
          "name": "_stableMintControllerAddress",
          "type": "address"
        }
      ],
      "name": "setAddresses",
      "outputs": [],
      "stateMutability": "nonpayable",
      "type": "function"
    },
    {
      "inputs": [],
      "name": "sortedTroves",
      "outputs": [
        {
          "internalType": "contract ISortedTroves",
          "name": "",
          "type": "address"
        }
      ],
      "stateMutability": "view",
      "type": "function"
    },
    {
      "inputs": [],
      "name": "stableMintController",
      "outputs": [
        {
          "internalType": "contract IStableMintController",
          "name": "",
          "type": "address"
        }
      ],
      "stateMutability": "view",
      "type": "function"
    },
    {
      "inputs": [],
      "name": "troveManager",
      "outputs": [
        {
          "internalType": "contract ITroveManager",
          "name": "",
          "type": "address"
        }
      ],
      "stateMutability": "view",
      "type": "function"
    },
    {
      "inputs": [
        {
          "internalType": "uint256",
          "name": "_maxFeePercentage",
          "type": "uint256"
        },
        {
          "internalType": "uint256",
          "name": "_BUSDCamount",
          "type": "uint256"
        },
        {
          "internalType": "address",
          "name": "_upperHint",
          "type": "address"
        },
        {
          "internalType": "address",
          "name": "_lowerHint",
          "type": "address"
        }
      ],
      "name": "withdrawBUSDC",
      "outputs": [],
      "stateMutability": "nonpayable",
      "type": "function"
    },
    {
      "inputs": [
        {
          "internalType": "uint256",
          "name": "_collWithdrawal",
          "type": "uint256"
        },
        {
          "internalType": "address",
          "name": "_upperHint",
          "type": "address"
        },
        {
          "internalType": "address",
          "name": "_lowerHint",
          "type": "address"
        }
      ],
      "name": "withdrawColl",
      "outputs": [],
      "stateMutability": "nonpayable",
      "type": "function"
    }
  ],
  "transactionHash": "0x0130a6651493ad92a8490cfb9940d349e98e626dd81096cc5e8309dbc600fcad",
  "args": [],
  "numDeployments": 1,
  "solcInputHash": "18508ab469106970bdcb4e830f974b4f",
  "bytecode": "0x608060405234801561001057600080fd5b50600380546001600160a01b031916339081179091556040516000907f8be0079c531659141344cd1fd0a4f28419497f9722a3daafe3b4186f6b6457e0908290a3613b57806100606000396000f3fe608060405234801561001057600080fd5b50600436106101c65760003560e01c8063794e5724116100fa57806395a119e61161009d57806395a119e614610427578063a20baee6146102d8578063a3f4df7e14610477578063ae918754146104f4578063c55956d2146104fc578063c890a0a514610504578063d290dcfc1461053e578063e486a56814610546578063f92d343314610582576101c6565b8063794e57241461036b578063795d26c3146103735780637e88d4081461037b5780637f7dde4a146103b1578063887105d3146103b95780638da5cb5b146103c15780638e6b3ac5146103c95780638f32d59b1461040b576101c6565b80633d83908a1161016d5780633d83908a146102675780634870dd9a1461026f5780634ff81443146102775780635530273c146102945780635733d58f146102c85780636f0b0c1c146102d057806372fe25aa146102d8578063734f622d146102e0578063741bef1a14610363576101c6565b80630a494612146101cb5780630e704d50146101ef57806319c6fa1e146101f95780631bf43555146102015780631c0925121461021b578063320dc7c614610223578063368214b7146102575780633cc742251461025f575b600080fd5b6101d361058a565b604080516001600160a01b039092168252519081900360200190f35b6101f7610599565b005b6101d3610994565b6102096109a3565b60408051918252519081900360200190f35b6102096109b0565b6101f76004803603606081101561023957600080fd5b508035906001600160a01b03602082013581169160400135166109bd565b6101d36109d5565b6101d36109e4565b6101d36109f3565b610209610a02565b6102096004803603602081101561028d57600080fd5b5035610a07565b6101f7600480360360608110156102aa57600080fd5b508035906001600160a01b0360208201358116916040013516610a18565b610209610a2a565b6101f7610a36565b610209610a9c565b6101f760048036036101808110156102f757600080fd5b506001600160a01b038135811691602081013582169160408201358116916060810135821691608082013581169160a081013582169160c082013581169160e0810135821691610100820135811691610120810135821691610140820135811691610160013516610aa8565b6101d3610e89565b610209610e98565b610209610ea4565b6101f76004803603606081101561039157600080fd5b506001600160a01b03813581169160208101359091169060400135610fa5565b6101d3610fb8565b610209610fc7565b6101d3611083565b6101f7600480360360a08110156103df57600080fd5b508035906020810135906001600160a01b03604082013581169160608101359091169060800135611092565b61041361174e565b604080519115158252519081900360200190f35b6101f7600480360360e081101561043d57600080fd5b5080359060208101359060408101359060608101351515906001600160a01b03608082013581169160a08101359091169060c0013561175f565b61047f611778565b6040805160208082528351818301528351919283929083019185019080838360005b838110156104b95781810151838201526020016104a1565b50505050905090810190601f1680156104e65780820380516001836020036101000a031916815260200191505b509250505060405180910390f35b6101d36117a6565b6101d36117b5565b6101f76004803603608081101561051a57600080fd5b508035906020810135906001600160a01b03604082013581169160600135166117c4565b6101d36117d7565b6101f76004803603608081101561055c57600080fd5b506001600160a01b038135811691602081013582169160408201351690606001356117e6565b610209611801565b600d546001600160a01b031681565b600454600054600a546001600160a01b039283169291821691166105bd833361180c565b60025460408051630fdb11cf60e01b815290516000926001600160a01b031691630fdb11cf91600480830192602092919082900301818787803b15801561060357600080fd5b505af1158015610617573d6000803e3d6000fd5b505050506040513d602081101561062d57600080fd5b5051905061063a816118d1565b60408051630b07655760e01b815233600482015290516001600160a01b03861691630b07655791602480830192600092919082900301818387803b15801561068157600080fd5b505af1158015610695573d6000803e3d6000fd5b5050604080516309019aaf60e31b81523360048201529051600093506001600160a01b038816925063480cd57891602480820192602092909190829003018186803b1580156106e357600080fd5b505afa1580156106f7573d6000803e3d6000fd5b505050506040513d602081101561070d57600080fd5b50516040805163d66a255360e01b815233600482015290519192506000916001600160a01b0388169163d66a2553916024808301926020929190829003018186803b15801561075b57600080fd5b505afa15801561076f573d6000803e3d6000fd5b505050506040513d602081101561078557600080fd5b505190506107ac84336107a784680ad78ebc5ac620000063ffffffff61191916565b611962565b60006107bd83600084600088611a22565b90506107c881611aad565b60408051631fc5750960e31b815233600482015290516001600160a01b0389169163fe2ba84891602480830192600092919082900301818387803b15801561080f57600080fd5b505af1158015610823573d6000803e3d6000fd5b5050604080516365e89c5760e11b815233600482015290516001600160a01b038b16935063cbd138ae9250602480830192600092919082900301818387803b15801561086e57600080fd5b505af1158015610882573d6000803e3d6000fd5b50505050336001600160a01b03166000805160206138f283398151915260008060006001604051808581526020018481526020018381526020018260028111156108c857fe5b60ff16815260200194505050505060405180910390a26109028686336108fd86680ad78ebc5ac620000063ffffffff61191916565b611af4565b60065461092590879087906001600160a01b0316680ad78ebc5ac6200000611af4565b604080516364a197f360e01b81523360048201526024810185905290516001600160a01b038816916364a197f391604480830192600092919082900301818387803b15801561097357600080fd5b505af1158015610987573d6000803e3d6000fd5b5050505050505050505050565b6008546001600160a01b031681565b686194049f30f720000081565b680ad78ebc5ac620000081565b6109d03360008560008686600080611c3b565b505050565b6009546001600160a01b031681565b6001546001600160a01b031681565b6004546001600160a01b031681565b60c881565b6000610a12826122f5565b92915050565b6109d033846000808686600080611c3b565b6714d1120d7b16000081565b6007546040805163b32beb5b60e01b815233600482015290516001600160a01b039092169163b32beb5b9160248082019260009290919082900301818387803b158015610a8257600080fd5b505af1158015610a96573d6000803e3d6000fd5b50505050565b670de0b6b3a764000081565b610ab061174e565b610b01576040805162461bcd60e51b815260206004820181905260248201527f4f776e61626c653a2063616c6c6572206973206e6f7420746865206f776e6572604482015290519081900360640190fd5b610b0a8c612310565b610b138b612310565b610b1c8a612310565b610b2589612310565b610b2e88612310565b610b3787612310565b610b4086612310565b610b4985612310565b610b5284612310565b610b5b83612310565b610b6482612310565b610b6d81612310565b600480546001600160a01b03199081166001600160a01b038f81169182179093556000805483168f85161790556001805483168e85161790556005805483168d85161790556006805483168c85161790556007805483168b85161790556002805483168a8516179055600b80548316898516179055600a805483168885161790556009805483168785169081179091556008805484169091179055600c80548316868516179055600d805490921692841692909217905560408051918252517f143219c9e69b09e07e095fcc889b43d8f46ca892bba65f08dc3a0050869a5678916020908290030190a1604080516001600160a01b038d16815290517f78f058b189175430c48dc02699e3a0031ea4ff781536dc2fab847de4babdd8829181900360200190a1604080516001600160a01b038c16815290517f5ee0cae2f063ed938bb55046f6a932fb6ae792bf43624806bb90abe68a50be9b9181900360200190a1604080516001600160a01b038b16815290517f82966d27eea39b038ee0fa30cd16532bb24f6e65d31cb58fb227aa5766cdcc7f9181900360200190a1604080516001600160a01b038a16815290517fcfb07d791fcafc032b35837b50eb84b74df518cf4cc287e8084f47630fa70fa09181900360200190a1604080516001600160a01b038916815290517fe67f36a6e961157d6eff83b91f3af5a62131ceb6f04954ef74f51c1c05e7f88d9181900360200190a1604080516001600160a01b038816815290517f8c537274438aa850a330284665d81a85dd38267d09e4050d416bfc94142db2649181900360200190a1604080516001600160a01b038716815290517f65f4cf077bc01e4742eb5ad98326f6e95b63548ea24b17f8d5e823111fe788009181900360200190a1604080516001600160a01b038616815290517f1825f1a57bf1f489b77ce5ad8e53525171443d614f252ad02dff4a43075a61e59181900360200190a1604080516001600160a01b038516815290517f5e371212c040c5a211d3352b9a1467cdc91837c83b57caf552fc2e01ebb032af9181900360200190a1610e7b6123c3565b505050505050505050505050565b6002546001600160a01b031681565b670f43fc2c04ee000081565b6000805460408051632a2c95e760e01b8152905183926001600160a01b031691632a2c95e7916004808301926020929190829003018186803b158015610ee957600080fd5b505afa158015610efd573d6000803e3d6000fd5b505050506040513d6020811015610f1357600080fd5b505160015460408051632a2c95e760e01b815290519293506000926001600160a01b0390921691632a2c95e791600480820192602092909190829003018186803b158015610f6057600080fd5b505afa158015610f74573d6000803e3d6000fd5b505050506040513d6020811015610f8a57600080fd5b50519050610f9e828263ffffffff61240d16565b9250505090565b6109d03360008060008787600088611c3b565b6000546001600160a01b031681565b6000805460408051630a7b61df60e11b8152905183926001600160a01b0316916314f6c3be916004808301926020929190829003018186803b15801561100c57600080fd5b505afa158015611020573d6000803e3d6000fd5b505050506040513d602081101561103657600080fd5b505160015460408051630a7b61df60e11b815290519293506000926001600160a01b03909216916314f6c3be91600480820192602092909190829003018186803b158015610f6057600080fd5b6003546001600160a01b031690565b61109a613672565b50604080516060810182526004546001600160a01b03908116825260005481166020830152600a5416918101919091526110d2613692565b600260009054906101000a90046001600160a01b03166001600160a01b0316630fdb11cf6040518163ffffffff1660e01b8152600401602060405180830381600087803b15801561112257600080fd5b505af1158015611136573d6000803e3d6000fd5b505050506040513d602081101561114c57600080fd5b505180825260009061115d90612467565b90506111698882612484565b82516111759033612530565b60408201879052806111b65761119583600001518460400151898b61260c565b6020830181905260408301516111b09163ffffffff61240d16565b60408301525b6111c382604001516128ef565b6111d082604001516122f5565b606083018190526111dd57fe5b600c54604080516323b872dd60e01b81523360048201523060248201526044810187905290516001600160a01b03909216916323b872dd916064808201926020929091908290030181600087803b15801561123757600080fd5b505af115801561124b573d6000803e3d6000fd5b505050506040513d602081101561126157600080fd5b505060608201518251611275918691612937565b6080830152606082015161128a908590612975565b60a083015280156112a7576112a282608001516129aa565b6112da565b6112b482608001516129f1565b60006112cd856001856060015160018760000151611a22565b90506112d881611aad565b505b825160408051635d6b480f60e01b81523360048201526001602482015290516001600160a01b0390921691635d6b480f9160448082019260009290919082900301818387803b15801561132c57600080fd5b505af1158015611340573d6000803e3d6000fd5b50508451604080516372423c1760e01b81523360048201526024810189905290516001600160a01b0390921693506372423c1792506044808201926020929091908290030181600087803b15801561139757600080fd5b505af11580156113ab573d6000803e3d6000fd5b505050506040513d60208110156113c157600080fd5b50508251606083015160408051639976cf4560e01b81523360048201526024810192909252516001600160a01b0390921691639976cf45916044808201926020929091908290030181600087803b15801561141b57600080fd5b505af115801561142f573d6000803e3d6000fd5b505050506040513d602081101561144557600080fd5b50508251604080516382fe3eb960e01b815233600482015290516001600160a01b03909216916382fe3eb99160248082019260009290919082900301818387803b15801561149257600080fd5b505af11580156114a6573d6000803e3d6000fd5b5050845160408051630c7940bd60e11b815233600482015290516001600160a01b0390921693506318f2817a92506024808201926020929091908290030181600087803b1580156114f657600080fd5b505af115801561150a573d6000803e3d6000fd5b505050506040513d602081101561152057600080fd5b505160c0830152600b5460a0830151604080516346f7cf8760e01b815233600482015260248101929092526001600160a01b038981166044840152888116606484015290519216916346f7cf879160848082019260009290919082900301818387803b15801561158f57600080fd5b505af11580156115a3573d6000803e3d6000fd5b50508451604080516315d549f160e01b815233600482015290516001600160a01b0390921693506315d549f192506024808201926020929091908290030181600087803b1580156115f357600080fd5b505af1158015611607573d6000803e3d6000fd5b505050506040513d602081101561161d57600080fd5b505160e08301819052604080519182525133917f59cfd0cd754bc5748b6770e94a4ffa5f678d885cb899dcfadc5734edb97c67ab919081900360200190a2611669836020015185612a38565b61168283602001518460400151338a8660400151612bb5565b602083015160408401516006546116ae9291906001600160a01b0316680ad78ebc5ac620000080612bb5565b336001600160a01b03166000805160206138f28339815191528360600151868560c001516000604051808581526020018481526020018381526020018260028111156116f657fe5b60ff16815260200194505050505060405180910390a2602080830151604080519182525133927fcdf12790cf4cc7273468d94fa9a27b20c10881e38d4591ca9544b3dd67efb197928290030190a25050505050505050565b6003546001600160a01b0316331490565b61176f3387878787878d88611c3b565b50505050505050565b60405180604001604052806012815260200171426f72726f7765724f7065726174696f6e7360701b81525081565b600b546001600160a01b031681565b600c546001600160a01b031681565b610a9633600085600186868a6000611c3b565b600a546001600160a01b031681565b6117ee612dc5565b610a968460008060008787600088611c3b565b6611c37937e0800081565b6000826001600160a01b03166321e37801836040518263ffffffff1660e01b815260040180826001600160a01b03166001600160a01b0316815260200191505060206040518083038186803b15801561186457600080fd5b505afa158015611878573d6000803e3d6000fd5b505050506040513d602081101561188e57600080fd5b50519050600181146109d05760405162461bcd60e51b815260040180806020018281038252602e8152602001806138c4602e913960400191505060405180910390fd5b6118da81612467565b156119165760405162461bcd60e51b81526004018080602001828103825260398152602001806137726039913960400191505060405180910390fd5b50565b600061195b83836040518060400160405280601e81526020017f536166654d6174683a207375627472616374696f6e206f766572666c6f770000815250612e10565b9392505050565b80836001600160a01b03166370a08231846040518263ffffffff1660e01b815260040180826001600160a01b03166001600160a01b0316815260200191505060206040518083038186803b1580156119b957600080fd5b505afa1580156119cd573d6000803e3d6000fd5b505050506040513d60208110156119e357600080fd5b505110156109d05760405162461bcd60e51b815260040180806020018281038252603e815260200180613912603e913960400191505060405180910390fd5b600080611a2d610fc7565b90506000611a39610ea4565b905086611a5557611a50828963ffffffff61191916565b611a65565b611a65828963ffffffff61240d16565b915084611a8157611a7c818763ffffffff61191916565b611a91565b611a91818763ffffffff61240d16565b90506000611aa0838387612937565b9998505050505050505050565b6714d1120d7b1600008110156119165760405162461bcd60e51b815260040180806020018281038252604981526020018061387b6049913960600191505060405180910390fd5b836001600160a01b031663dcf283b4826040518263ffffffff1660e01b815260040180828152602001915050600060405180830381600087803b158015611b3a57600080fd5b505af1158015611b4e573d6000803e3d6000fd5b5050600d546040805163055a9add60e51b81523060048201526024810186905290516001600160a01b03909216935063ab535ba0925060448082019260009290919082900301818387803b158015611ba557600080fd5b505af1158015611bb9573d6000803e3d6000fd5b50505050826001600160a01b0316639dc29fac83836040518363ffffffff1660e01b815260040180836001600160a01b03166001600160a01b0316815260200182815260200192505050600060405180830381600087803b158015611c1d57600080fd5b505af1158015611c31573d6000803e3d6000fd5b5050505050505050565b611c43613672565b50604080516060810182526004546001600160a01b03908116825260005481166020830152600a541691810191909152611c7b6136d7565b600260009054906101000a90046001600160a01b03166001600160a01b0316630fdb11cf6040518163ffffffff1660e01b8152600401602060405180830381600087803b158015611ccb57600080fd5b505af1158015611cdf573d6000803e3d6000fd5b505050506040513d6020811015611cf557600080fd5b5051808252600090611d0690612467565b90508715611d2157611d188582612484565b611d2189612ea7565b611d2b8a85612ee6565b611d368a8a86612f2c565b8251611d42908c61180c565b336001600160a01b038c161480611d7857506005546001600160a01b031633148015611d6e5750600084115b8015611d78575088155b611d7e57fe5b600c54604080516323b872dd60e01b81523360048201523060248201526044810187905290516001600160a01b03909216916323b872dd916064808201926020929091908290030181600087803b158015611dd857600080fd5b505af1158015611dec573d6000803e3d6000fd5b505050506040513d6020811015611e0257600080fd5b5050825160408051630b07655760e01b81526001600160a01b038e8116600483015291519190921691630b07655791602480830192600092919082900301818387803b158015611e5157600080fd5b505af1158015611e65573d6000803e3d6000fd5b50505050611e73848b612f7e565b15156060840152602083015260408201899052878015611e91575080155b15611ecc57611eaa836000015184604001518b8861260c565b61012083018190526040830151611ec69163ffffffff61240d16565b60408301525b82600001516001600160a01b031663d66a25538c6040518263ffffffff1660e01b815260040180826001600160a01b03166001600160a01b0316815260200191505060206040518083038186803b158015611f2657600080fd5b505afa158015611f3a573d6000803e3d6000fd5b505050506040513d6020811015611f5057600080fd5b505160808301528251604080516309019aaf60e31b81526001600160a01b038e811660048301529151919092169163480cd578916024808301926020929190829003018186803b158015611fa357600080fd5b505afa158015611fb7573d6000803e3d6000fd5b505050506040513d6020811015611fcd57600080fd5b505160a0830181905260808301518351611fe8929190612937565b8260c00181815250506120188260a0015183608001518460200151856060015186604001518d8860000151612f9d565b60e083015260a08201518a111561202b57fe5b612037818b8a85612fd0565b871580156120455750600089115b156120985761207361206e83604001516120628560800151613044565b9063ffffffff61191916565b6128ef565b6120858260800151836040015161305f565b61209883604001518c8460400151611962565b6120b683600001518c8460200151856060015186604001518d6130b6565b610140840152610160830152825160408051630c7940bd60e11b81526001600160a01b038e81166004830152915191909216916318f2817a9160248083019260209291908290030181600087803b15801561211057600080fd5b505af1158015612124573d6000803e3d6000fd5b505050506040513d602081101561213a57600080fd5b505161018083015260a0820151608083015160208401516060850151604086015160009461216e949093909290918e613316565b9050600b60009054906101000a90046001600160a01b03166001600160a01b0316632be212608d838b8b6040518563ffffffff1660e01b815260040180856001600160a01b03166001600160a01b03168152602001848152602001836001600160a01b03166001600160a01b03168152602001826001600160a01b03166001600160a01b03168152602001945050505050600060405180830381600087803b15801561221957600080fd5b505af115801561222d573d6000803e3d6000fd5b505050508b6001600160a01b03166000805160206138f283398151915284610140015185610160015186610180015160026040518085815260200184815260200183815260200182600281111561228057fe5b60ff16815260200194505050505060405180910390a2610120830151604080519182525133917fcdf12790cf4cc7273468d94fa9a27b20c10881e38d4591ca9544b3dd67efb197919081900360200190a2610e7b8460200151856040015133866020015187606001518f8f8a60400151613347565b6000610a1282680ad78ebc5ac620000063ffffffff61240d16565b6001600160a01b03811661236b576040805162461bcd60e51b815260206004820152601e60248201527f4163636f756e742063616e6e6f74206265207a65726f20616464726573730000604482015290519081900360640190fd5b803b806123bf576040805162461bcd60e51b815260206004820181905260248201527f4163636f756e7420636f64652073697a652063616e6e6f74206265207a65726f604482015290519081900360640190fd5b5050565b6003546040516000916001600160a01b0316907f8be0079c531659141344cd1fd0a4f28419497f9722a3daafe3b4186f6b6457e0908390a3600380546001600160a01b0319169055565b60008282018381101561195b576040805162461bcd60e51b815260206004820152601b60248201527f536166654d6174683a206164646974696f6e206f766572666c6f770000000000604482015290519081900360640190fd5b600080612473836133f4565b6714d1120d7b160000119392505050565b80156124d657670de0b6b3a76400008211156124d15760405162461bcd60e51b81526004018080602001828103825260328152602001806137e26032913960400191505060405180910390fd5b6123bf565b6611c37937e0800082108015906124f55750670de0b6b3a76400008211155b6123bf5760405162461bcd60e51b8152600401808060200182810382526030815260200180613a7d6030913960400191505060405180910390fd5b6000826001600160a01b03166321e37801836040518263ffffffff1660e01b815260040180826001600160a01b03166001600160a01b0316815260200191505060206040518083038186803b15801561258857600080fd5b505afa15801561259c573d6000803e3d6000fd5b505050506040513d60208110156125b257600080fd5b5051905060018114156109d0576040805162461bcd60e51b815260206004820152601c60248201527f426f72726f7765724f70733a2054726f76652069732061637469766500000000604482015290519081900360640190fd5b6000846001600160a01b0316635dba4c4a6040518163ffffffff1660e01b8152600401600060405180830381600087803b15801561264957600080fd5b505af115801561265d573d6000803e3d6000fd5b505050506000856001600160a01b031663631203b0856040518263ffffffff1660e01b81526004018082815260200191505060206040518083038186803b1580156126a757600080fd5b505afa1580156126bb573d6000803e3d6000fd5b505050506040513d60208110156126d157600080fd5b505190506126e0818585613420565b6008546040805163acb7becb60e01b81526004810184905290516001600160a01b039092169163acb7becb9160248082019260009290919082900301818387803b15801561272d57600080fd5b505af1158015612741573d6000803e3d6000fd5b5050600d546040805163654259dd60e01b815230600482015290518594506001600160a01b03909216925063654259dd916024808301926020929190829003018186803b15801561279157600080fd5b505afa1580156127a5573d6000803e3d6000fd5b505050506040513d60208110156127bb57600080fd5b5051101561280d576040805162461bcd60e51b815260206004820152601a6024820152794e6f7420656e6f75676820425553444320617661696c61626c6560301b604482015290519081900360640190fd5b600d546040805163ba55241360e01b81523060048201526024810184905290516001600160a01b039092169163ba5524139160448082019260009290919082900301818387803b15801561286057600080fd5b505af1158015612874573d6000803e3d6000fd5b5050600954604080516340c10f1960e01b81526001600160a01b03928316600482015260248101869052905191891693506340c10f19925060448082019260009290919082900301818387803b1580156128cd57600080fd5b505af11580156128e1573d6000803e3d6000fd5b509298975050505050505050565b686194049f30f72000008110156119165760405162461bcd60e51b815260040180806020018281038252603a8152602001806139d7603a913960400191505060405180910390fd5b6000821561296a57600061296184612955878663ffffffff61349516565b9063ffffffff6134ee16565b915061195b9050565b506000199392505050565b600081156129a15761299a826129558568056bc75e2d6310000063ffffffff61349516565b9050610a12565b50600019610a12565b6714d1120d7b1600008110156119165760405162461bcd60e51b81526004018080602001828103825260378152602001806137ab6037913960400191505060405180910390fd5b670f43fc2c04ee00008110156119165760405162461bcd60e51b815260040180806020018281038252604981526020018061398e6049913960600191505060405180910390fd5b81612a4281613530565b15612b2e57600c546040805163095ea7b360e01b81526001600160a01b038481166004830152602482018690529151919092169163095ea7b39160448083019260209291908290030181600087803b158015612a9d57600080fd5b505af1158015612ab1573d6000803e3d6000fd5b505050506040513d6020811015612ac757600080fd5b5050604080516319a834af60e11b81526004810184905290516001600160a01b03831691633350695e91602480830192600092919082900301818387803b158015612b1157600080fd5b505af1158015612b25573d6000803e3d6000fd5b505050506109d0565b600c546040805163a9059cbb60e01b81526001600160a01b038481166004830152602482018690529151919092169163a9059cbb9160448083019260209291908290030181600087803b158015612b8457600080fd5b505af1158015612b98573d6000803e3d6000fd5b505050506040513d6020811015612bae57600080fd5b5050505050565b846001600160a01b0316634d1e9c71826040518263ffffffff1660e01b815260040180828152602001915050600060405180830381600087803b158015612bfb57600080fd5b505af1158015612c0f573d6000803e3d6000fd5b5050600d546040805163654259dd60e01b815230600482015290518694506001600160a01b03909216925063654259dd916024808301926020929190829003018186803b158015612c5f57600080fd5b505afa158015612c73573d6000803e3d6000fd5b505050506040513d6020811015612c8957600080fd5b50511015612cdb576040805162461bcd60e51b815260206004820152601a6024820152794e6f7420656e6f75676820425553444320617661696c61626c6560301b604482015290519081900360640190fd5b600d546040805163ba55241360e01b81523060048201526024810185905290516001600160a01b039092169163ba5524139160448082019260009290919082900301818387803b158015612d2e57600080fd5b505af1158015612d42573d6000803e3d6000fd5b50505050836001600160a01b03166340c10f1984846040518363ffffffff1660e01b815260040180836001600160a01b03166001600160a01b0316815260200182815260200192505050600060405180830381600087803b158015612da657600080fd5b505af1158015612dba573d6000803e3d6000fd5b505050505050505050565b6005546001600160a01b03163314612e0e5760405162461bcd60e51b8152600401808060200182810382526029815260200180613a546029913960400191505060405180910390fd5b565b60008184841115612e9f5760405162461bcd60e51b81526004018080602001828103825283818151815260200191508051906020019080838360005b83811015612e64578181015183820152602001612e4c565b50505050905090810190601f168015612e915780820380516001836020036101000a031916815260200191505b509250505060405180910390fd5b505050900390565b600081116119165760405162461bcd60e51b8152600401808060200182810382526037815260200180613aad6037913960400191505060405180910390fd5b801580612ef1575081155b6123bf5760405162461bcd60e51b81526004018080602001828103825260308152602001806137426030913960400191505060405180910390fd5b80151580612f3957508215155b80612f4357508115155b6109d05760405162461bcd60e51b81526004018080602001828103825260468152602001806138146046913960600191505060405180910390fd5b6000808315612f9257508290506001612f96565b8291505b9250929050565b6000806000612fb08a8a8a8a8a8a613536565b915091506000612fc1838387612937565b9b9a5050505050505050505050565b831561300957612fdf83613591565b811561300457612ff28160e001516129aa565b6130048160e001518260c001516135ce565b610a96565b6130168160e001516129f1565b613033816020015182606001518360400151858560000151611a22565b6101008201819052610a9690611aad565b6000610a1282680ad78ebc5ac620000063ffffffff61191916565b61307882680ad78ebc5ac620000063ffffffff61191916565b8111156123bf5760405162461bcd60e51b8152600401808060200182810382526043815260200180613a116043913960600191505060405180910390fd5b60008060008561315157886001600160a01b031663d3d6f84389896040518363ffffffff1660e01b815260040180836001600160a01b03166001600160a01b0316815260200182815260200192505050602060405180830381600087803b15801561312057600080fd5b505af1158015613134573d6000803e3d6000fd5b505050506040513d602081101561314a57600080fd5b50516131de565b886001600160a01b03166372423c1789896040518363ffffffff1660e01b815260040180836001600160a01b03166001600160a01b0316815260200182815260200192505050602060405180830381600087803b1580156131b157600080fd5b505af11580156131c5573d6000803e3d6000fd5b505050506040513d60208110156131db57600080fd5b50515b905060008461327857896001600160a01b03166312610e928a886040518363ffffffff1660e01b815260040180836001600160a01b03166001600160a01b0316815260200182815260200192505050602060405180830381600087803b15801561324757600080fd5b505af115801561325b573d6000803e3d6000fd5b505050506040513d602081101561327157600080fd5b5051613305565b896001600160a01b0316639976cf458a886040518363ffffffff1660e01b815260040180836001600160a01b03166001600160a01b0316815260200182815260200192505050602060405180830381600087803b1580156132d857600080fd5b505af11580156132ec573d6000803e3d6000fd5b505050506040513d602081101561330257600080fd5b50515b919a91995090975050505050505050565b6000806000613329898989898989613536565b9150915060006133398383612975565b9a9950505050505050505050565b811561335f5761335a8888888685612bb5565b61336b565b61336b88888886611af4565b83156133805761337b8886612a38565b611c31565b876001600160a01b03166364a197f387876040518363ffffffff1660e01b815260040180836001600160a01b03166001600160a01b0316815260200182815260200192505050600060405180830381600087803b1580156133e057600080fd5b505af1158015610e7b573d6000803e3d6000fd5b6000806133ff610fc7565b9050600061340b610ea4565b9050613418828286612937565b949350505050565b600061343e8361295586670de0b6b3a764000063ffffffff61349516565b905081811115610a96576040805162461bcd60e51b815260206004820152601d60248201527f4665652065786365656465642070726f7669646564206d6178696d756d000000604482015290519081900360640190fd5b6000826134a457506000610a12565b828202828482816134b157fe5b041461195b5760405162461bcd60e51b815260040180806020018281038252602181526020018061385a6021913960400191505060405180910390fd5b600061195b83836040518060400160405280601a81526020017f536166654d6174683a206469766973696f6e206279207a65726f00000000000081525061360d565b3b151590565b600080878786613555576135508a8963ffffffff61191916565b613565565b6135658a8963ffffffff61240d16565b9150846135815761357c898763ffffffff61191916565b613305565b613305898763ffffffff61240d16565b80156119165760405162461bcd60e51b815260040180806020018281038252603e815260200180613950603e913960400191505060405180910390fd5b808210156123bf5760405162461bcd60e51b815260040180806020018281038252603e815260200180613ae4603e913960400191505060405180910390fd5b6000818361365c5760405162461bcd60e51b8152602060048201818152835160248401528351909283926044909101919085019080838360008315612e64578181015183820152602001612e4c565b50600083858161366857fe5b0495945050505050565b604080516060810182526000808252602082018190529181019190915290565b60405180610100016040528060008152602001600081526020016000815260200160008152602001600081526020016000815260200160008152602001600081525090565b604051806101a00160405280600081526020016000815260200160008152602001600015158152602001600081526020016000815260200160008152602001600081526020016000815260200160008152602001600081526020016000815260200160008152509056fe426f72726f7765724f7065726174696f6e733a2043616e6e6f7420776974686472617720616e642061646420636f6c6c426f72726f7765724f70733a204f7065726174696f6e206e6f74207065726d697474656420647572696e67205265636f76657279204d6f6465426f72726f7765724f70733a204f7065726174696f6e206d757374206c656176652074726f7665207769746820494352203e3d204343524d6178206665652070657263656e74616765206d757374206c657373207468616e206f7220657175616c20746f2031303025426f72726f7765724f70733a205468657265206d75737420626520656974686572206120636f6c6c61746572616c206368616e6765206f7220612064656274206368616e6765536166654d6174683a206d756c7469706c69636174696f6e206f766572666c6f77426f72726f7765724f70733a20416e206f7065726174696f6e207468617420776f756c6420726573756c7420696e20544352203c20434352206973206e6f74207065726d6974746564426f72726f7765724f70733a2054726f766520646f6573206e6f74206578697374206f7220697320636c6f736564c3770d654ed33aeea6bf11ac8ef05d02a6a04ed4686dd2f624d853bbec43cc8b426f72726f7765724f70733a2043616c6c657220646f65736e74206861766520656e6f75676820425553444320746f206d616b652072657061796d656e74426f72726f7765724f70733a20436f6c6c61746572616c207769746864726177616c206e6f74207065726d6974746564205265636f76657279204d6f6465426f72726f7765724f70733a20416e206f7065726174696f6e207468617420776f756c6420726573756c7420696e20494352203c204d4352206973206e6f74207065726d6974746564426f72726f7765724f70733a2054726f76652773206e65742064656274206d7573742062652067726561746572207468616e206d696e696d756d426f72726f7765724f70733a20416d6f756e7420726570616964206d757374206e6f74206265206c6172676572207468616e207468652054726f766527732064656274426f72726f7765724f70733a2043616c6c6572206973206e6f742053746162696c69747920506f6f6c4d6178206665652070657263656e74616765206d757374206265206265747765656e20302e352520616e642031303025426f72726f7765724f70733a204465627420696e637265617365207265717569726573206e6f6e2d7a65726f20646562744368616e6765426f72726f7765724f70733a2043616e6e6f7420646563726561736520796f75722054726f766527732049435220696e205265636f76657279204d6f6465a26469706673582212208c6c8c6306f97594ee4f93aab5374460afac7ae073dfbb195d056dbe080eb99b64736f6c634300060b0033",
  "devdoc": {
    "kind": "dev",
    "methods": {
      "isOwner()": {
        "details": "Returns true if the caller is the current owner."
      },
      "owner()": {
        "details": "Returns the address of the current owner."
      }
    },
    "version": 1
  },
  "userdoc": {
    "kind": "user",
    "methods": {
      "claimCollateral()": {
        "notice": "Claim remaining collateral from a redemption or from a liquidation with ICR > MCR in Recovery Mode"
      }
    },
    "version": 1
  },
  "storageLayout": {
    "storage": [
      {
        "astId": 7319,
        "contract": "contracts/B2BContracts/BorrowerOperations.sol:BorrowerOperations",
        "label": "activePool",
        "offset": 0,
        "slot": "0",
        "type": "t_contract(IActivePool)18578"
      },
      {
        "astId": 7321,
        "contract": "contracts/B2BContracts/BorrowerOperations.sol:BorrowerOperations",
        "label": "defaultPool",
        "offset": 0,
        "slot": "1",
        "type": "t_contract(IDefaultPool)19092"
      },
      {
        "astId": 7324,
        "contract": "contracts/B2BContracts/BorrowerOperations.sol:BorrowerOperations",
        "label": "priceFeed",
        "offset": 0,
        "slot": "2",
        "type": "t_contract(IPriceFeed)19198"
      },
      {
        "astId": 7805,
        "contract": "contracts/B2BContracts/BorrowerOperations.sol:BorrowerOperations",
        "label": "_owner",
        "offset": 0,
        "slot": "3",
        "type": "t_address"
      },
      {
        "astId": 3464,
        "contract": "contracts/B2BContracts/BorrowerOperations.sol:BorrowerOperations",
        "label": "troveManager",
        "offset": 0,
        "slot": "4",
        "type": "t_contract(ITroveManager)20027"
      },
      {
        "astId": 3466,
        "contract": "contracts/B2BContracts/BorrowerOperations.sol:BorrowerOperations",
        "label": "stabilityPoolAddress",
        "offset": 0,
        "slot": "5",
        "type": "t_address"
      },
      {
        "astId": 3468,
        "contract": "contracts/B2BContracts/BorrowerOperations.sol:BorrowerOperations",
        "label": "gasPoolAddress",
        "offset": 0,
        "slot": "6",
        "type": "t_address"
      },
      {
        "astId": 3470,
        "contract": "contracts/B2BContracts/BorrowerOperations.sol:BorrowerOperations",
        "label": "collSurplusPool",
        "offset": 0,
        "slot": "7",
        "type": "t_contract(ICollSurplusPool)19035"
      },
      {
        "astId": 3472,
        "contract": "contracts/B2BContracts/BorrowerOperations.sol:BorrowerOperations",
        "label": "b2bStaking",
        "offset": 0,
        "slot": "8",
        "type": "t_contract(IB2BStaking)18690"
      },
      {
        "astId": 3474,
        "contract": "contracts/B2BContracts/BorrowerOperations.sol:BorrowerOperations",
        "label": "b2bStakingAddress",
        "offset": 0,
        "slot": "9",
        "type": "t_address"
      },
      {
        "astId": 3476,
        "contract": "contracts/B2BContracts/BorrowerOperations.sol:BorrowerOperations",
        "label": "busdcToken",
        "offset": 0,
        "slot": "10",
        "type": "t_contract(IBUSDCToken)18787"
      },
      {
        "astId": 3478,
        "contract": "contracts/B2BContracts/BorrowerOperations.sol:BorrowerOperations",
        "label": "sortedTroves",
        "offset": 0,
        "slot": "11",
        "type": "t_contract(ISortedTroves)19330"
      },
      {
        "astId": 3480,
        "contract": "contracts/B2BContracts/BorrowerOperations.sol:BorrowerOperations",
        "label": "backedTokenAddress",
        "offset": 0,
        "slot": "12",
        "type": "t_address"
      },
      {
        "astId": 3482,
        "contract": "contracts/B2BContracts/BorrowerOperations.sol:BorrowerOperations",
        "label": "stableMintController",
        "offset": 0,
        "slot": "13",
        "type": "t_contract(IStableMintController)6784"
      }
    ],
    "types": {
      "t_address": {
        "encoding": "inplace",
        "label": "address",
        "numberOfBytes": "20"
      },
      "t_contract(IActivePool)18578": {
        "encoding": "inplace",
        "label": "contract IActivePool",
        "numberOfBytes": "20"
      },
      "t_contract(IB2BStaking)18690": {
        "encoding": "inplace",
        "label": "contract IB2BStaking",
        "numberOfBytes": "20"
      },
      "t_contract(IBUSDCToken)18787": {
        "encoding": "inplace",
        "label": "contract IBUSDCToken",
        "numberOfBytes": "20"
      },
      "t_contract(ICollSurplusPool)19035": {
        "encoding": "inplace",
        "label": "contract ICollSurplusPool",
        "numberOfBytes": "20"
      },
      "t_contract(IDefaultPool)19092": {
        "encoding": "inplace",
        "label": "contract IDefaultPool",
        "numberOfBytes": "20"
      },
      "t_contract(IPriceFeed)19198": {
        "encoding": "inplace",
        "label": "contract IPriceFeed",
        "numberOfBytes": "20"
      },
      "t_contract(ISortedTroves)19330": {
        "encoding": "inplace",
        "label": "contract ISortedTroves",
        "numberOfBytes": "20"
      },
      "t_contract(IStableMintController)6784": {
        "encoding": "inplace",
        "label": "contract IStableMintController",
        "numberOfBytes": "20"
      },
      "t_contract(ITroveManager)20027": {
        "encoding": "inplace",
        "label": "contract ITroveManager",
        "numberOfBytes": "20"
      }
    }
  }
}