{
  "address": "0x4E46C9B9E6CbFC5e57eA69187AC77617d670DeE7",
  "abi": [
    {
      "anonymous": false,
      "inputs": [
        {
          "indexed": false,
          "internalType": "address",
          "name": "_newActivePoolAddress",
          "type": "address"
        }
      ],
      "name": "ActivePoolAddressChanged",
      "type": "event"
    },
    {
      "anonymous": false,
      "inputs": [
        {
          "indexed": true,
          "internalType": "address",
          "name": "_depositor",
          "type": "address"
        },
        {
          "indexed": false,
          "internalType": "uint256",
          "name": "_B2B",
          "type": "uint256"
        }
      ],
      "name": "B2BPaidToDepositor",
      "type": "event"
    },
    {
      "anonymous": false,
      "inputs": [
        {
          "indexed": true,
          "internalType": "address",
          "name": "_frontEnd",
          "type": "address"
        },
        {
          "indexed": false,
          "internalType": "uint256",
          "name": "_B2B",
          "type": "uint256"
        }
      ],
      "name": "B2BPaidToFrontEnd",
      "type": "event"
    },
    {
      "anonymous": false,
      "inputs": [
        {
          "indexed": false,
          "internalType": "address",
          "name": "_newBUSDCTokenAddress",
          "type": "address"
        }
      ],
      "name": "BUSDCTokenAddressChanged",
      "type": "event"
    },
    {
      "anonymous": false,
      "inputs": [
        {
          "indexed": false,
          "internalType": "address",
          "name": "_newBorrowerOperationsAddress",
          "type": "address"
        }
      ],
      "name": "BorrowerOperationsAddressChanged",
      "type": "event"
    },
    {
      "anonymous": false,
      "inputs": [
        {
          "indexed": false,
          "internalType": "address",
          "name": "_newCommunityIssuanceAddress",
          "type": "address"
        }
      ],
      "name": "CommunityIssuanceAddressChanged",
      "type": "event"
    },
    {
      "anonymous": false,
      "inputs": [
        {
          "indexed": false,
          "internalType": "address",
          "name": "_newDefaultPoolAddress",
          "type": "address"
        }
      ],
      "name": "DefaultPoolAddressChanged",
      "type": "event"
    },
    {
      "anonymous": false,
      "inputs": [
        {
          "indexed": true,
          "internalType": "address",
          "name": "_depositor",
          "type": "address"
        },
        {
          "indexed": false,
          "internalType": "uint256",
          "name": "_P",
          "type": "uint256"
        },
        {
          "indexed": false,
          "internalType": "uint256",
          "name": "_S",
          "type": "uint256"
        },
        {
          "indexed": false,
          "internalType": "uint256",
          "name": "_G",
          "type": "uint256"
        }
      ],
      "name": "DepositSnapshotUpdated",
      "type": "event"
    },
    {
      "anonymous": false,
      "inputs": [
        {
          "indexed": true,
          "internalType": "address",
          "name": "_depositor",
          "type": "address"
        },
        {
          "indexed": false,
          "internalType": "uint256",
          "name": "_ETH",
          "type": "uint256"
        },
        {
          "indexed": false,
          "internalType": "uint256",
          "name": "_BUSDCLoss",
          "type": "uint256"
        }
      ],
      "name": "ETHGainWithdrawn",
      "type": "event"
    },
    {
      "anonymous": false,
      "inputs": [
        {
          "indexed": false,
          "internalType": "uint128",
          "name": "_currentEpoch",
          "type": "uint128"
        }
      ],
      "name": "EpochUpdated",
      "type": "event"
    },
    {
      "anonymous": false,
      "inputs": [
        {
          "indexed": false,
          "internalType": "address",
          "name": "_to",
          "type": "address"
        },
        {
          "indexed": false,
          "internalType": "uint256",
          "name": "_amount",
          "type": "uint256"
        }
      ],
      "name": "EtherSent",
      "type": "event"
    },
    {
      "anonymous": false,
      "inputs": [
        {
          "indexed": true,
          "internalType": "address",
          "name": "_frontEnd",
          "type": "address"
        },
        {
          "indexed": false,
          "internalType": "uint256",
          "name": "_kickbackRate",
          "type": "uint256"
        }
      ],
      "name": "FrontEndRegistered",
      "type": "event"
    },
    {
      "anonymous": false,
      "inputs": [
        {
          "indexed": true,
          "internalType": "address",
          "name": "_frontEnd",
          "type": "address"
        },
        {
          "indexed": false,
          "internalType": "uint256",
          "name": "_P",
          "type": "uint256"
        },
        {
          "indexed": false,
          "internalType": "uint256",
          "name": "_G",
          "type": "uint256"
        }
      ],
      "name": "FrontEndSnapshotUpdated",
      "type": "event"
    },
    {
      "anonymous": false,
      "inputs": [
        {
          "indexed": true,
          "internalType": "address",
          "name": "_frontEnd",
          "type": "address"
        },
        {
          "indexed": false,
          "internalType": "uint256",
          "name": "_newFrontEndStake",
          "type": "uint256"
        },
        {
          "indexed": false,
          "internalType": "address",
          "name": "_depositor",
          "type": "address"
        }
      ],
      "name": "FrontEndStakeChanged",
      "type": "event"
    },
    {
      "anonymous": false,
      "inputs": [
        {
          "indexed": true,
          "internalType": "address",
          "name": "_depositor",
          "type": "address"
        },
        {
          "indexed": true,
          "internalType": "address",
          "name": "_frontEnd",
          "type": "address"
        }
      ],
      "name": "FrontEndTagSet",
      "type": "event"
    },
    {
      "anonymous": false,
      "inputs": [
        {
          "indexed": false,
          "internalType": "uint256",
          "name": "_G",
          "type": "uint256"
        },
        {
          "indexed": false,
          "internalType": "uint128",
          "name": "_epoch",
          "type": "uint128"
        },
        {
          "indexed": false,
          "internalType": "uint128",
          "name": "_scale",
          "type": "uint128"
        }
      ],
      "name": "G_Updated",
      "type": "event"
    },
    {
      "anonymous": false,
      "inputs": [
        {
          "indexed": true,
          "internalType": "address",
          "name": "previousOwner",
          "type": "address"
        },
        {
          "indexed": true,
          "internalType": "address",
          "name": "newOwner",
          "type": "address"
        }
      ],
      "name": "OwnershipTransferred",
      "type": "event"
    },
    {
      "anonymous": false,
      "inputs": [
        {
          "indexed": false,
          "internalType": "uint256",
          "name": "_P",
          "type": "uint256"
        }
      ],
      "name": "P_Updated",
      "type": "event"
    },
    {
      "anonymous": false,
      "inputs": [
        {
          "indexed": false,
          "internalType": "address",
          "name": "_newPriceFeedAddress",
          "type": "address"
        }
      ],
      "name": "PriceFeedAddressChanged",
      "type": "event"
    },
    {
      "anonymous": false,
      "inputs": [
        {
          "indexed": false,
          "internalType": "uint256",
          "name": "_S",
          "type": "uint256"
        },
        {
          "indexed": false,
          "internalType": "uint128",
          "name": "_epoch",
          "type": "uint128"
        },
        {
          "indexed": false,
          "internalType": "uint128",
          "name": "_scale",
          "type": "uint128"
        }
      ],
      "name": "S_Updated",
      "type": "event"
    },
    {
      "anonymous": false,
      "inputs": [
        {
          "indexed": false,
          "internalType": "uint128",
          "name": "_currentScale",
          "type": "uint128"
        }
      ],
      "name": "ScaleUpdated",
      "type": "event"
    },
    {
      "anonymous": false,
      "inputs": [
        {
          "indexed": false,
          "internalType": "address",
          "name": "_newSortedTrovesAddress",
          "type": "address"
        }
      ],
      "name": "SortedTrovesAddressChanged",
      "type": "event"
    },
    {
      "anonymous": false,
      "inputs": [
        {
          "indexed": false,
          "internalType": "uint256",
          "name": "_newBalance",
          "type": "uint256"
        }
      ],
      "name": "StabilityPoolBUSDCBalanceUpdated",
      "type": "event"
    },
    {
      "anonymous": false,
      "inputs": [
        {
          "indexed": false,
          "internalType": "uint256",
          "name": "_newBalance",
          "type": "uint256"
        }
      ],
      "name": "StabilityPoolETHBalanceUpdated",
      "type": "event"
    },
    {
      "anonymous": false,
      "inputs": [
        {
          "indexed": false,
          "internalType": "address",
          "name": "_newTroveManagerAddress",
          "type": "address"
        }
      ],
      "name": "TroveManagerAddressChanged",
      "type": "event"
    },
    {
      "anonymous": false,
      "inputs": [
        {
          "indexed": true,
          "internalType": "address",
          "name": "_depositor",
          "type": "address"
        },
        {
          "indexed": false,
          "internalType": "uint256",
          "name": "_newDeposit",
          "type": "uint256"
        }
      ],
      "name": "UserDepositChanged",
      "type": "event"
    },
    {
      "inputs": [],
      "name": "BORROWING_FEE_FLOOR",
      "outputs": [
        {
          "internalType": "uint256",
          "name": "",
          "type": "uint256"
        }
      ],
      "stateMutability": "view",
      "type": "function"
    },
    {
      "inputs": [],
      "name": "BUSDC_GAS_COMPENSATION",
      "outputs": [
        {
          "internalType": "uint256",
          "name": "",
          "type": "uint256"
        }
      ],
      "stateMutability": "view",
      "type": "function"
    },
    {
      "inputs": [],
      "name": "CCR",
      "outputs": [
        {
          "internalType": "uint256",
          "name": "",
          "type": "uint256"
        }
      ],
      "stateMutability": "view",
      "type": "function"
    },
    {
      "inputs": [],
      "name": "DECIMAL_PRECISION",
      "outputs": [
        {
          "internalType": "uint256",
          "name": "",
          "type": "uint256"
        }
      ],
      "stateMutability": "view",
      "type": "function"
    },
    {
      "inputs": [],
      "name": "MCR",
      "outputs": [
        {
          "internalType": "uint256",
          "name": "",
          "type": "uint256"
        }
      ],
      "stateMutability": "view",
      "type": "function"
    },
    {
      "inputs": [],
      "name": "MIN_NET_DEBT",
      "outputs": [
        {
          "internalType": "uint256",
          "name": "",
          "type": "uint256"
        }
      ],
      "stateMutability": "view",
      "type": "function"
    },
    {
      "inputs": [],
      "name": "NAME",
      "outputs": [
        {
          "internalType": "string",
          "name": "",
          "type": "string"
        }
      ],
      "stateMutability": "view",
      "type": "function"
    },
    {
      "inputs": [],
      "name": "P",
      "outputs": [
        {
          "internalType": "uint256",
          "name": "",
          "type": "uint256"
        }
      ],
      "stateMutability": "view",
      "type": "function"
    },
    {
      "inputs": [],
      "name": "PERCENT_DIVISOR",
      "outputs": [
        {
          "internalType": "uint256",
          "name": "",
          "type": "uint256"
        }
      ],
      "stateMutability": "view",
      "type": "function"
    },
    {
      "inputs": [],
      "name": "SCALE_FACTOR",
      "outputs": [
        {
          "internalType": "uint256",
          "name": "",
          "type": "uint256"
        }
      ],
      "stateMutability": "view",
      "type": "function"
    },
    {
      "inputs": [],
      "name": "_100pct",
      "outputs": [
        {
          "internalType": "uint256",
          "name": "",
          "type": "uint256"
        }
      ],
      "stateMutability": "view",
      "type": "function"
    },
    {
      "inputs": [],
      "name": "activePool",
      "outputs": [
        {
          "internalType": "contract IActivePool",
          "name": "",
          "type": "address"
        }
      ],
      "stateMutability": "view",
      "type": "function"
    },
    {
      "inputs": [],
      "name": "backedTokenAddress",
      "outputs": [
        {
          "internalType": "address",
          "name": "",
          "type": "address"
        }
      ],
      "stateMutability": "view",
      "type": "function"
    },
    {
      "inputs": [],
      "name": "borrowerOperations",
      "outputs": [
        {
          "internalType": "contract IBorrowerOperations",
          "name": "",
          "type": "address"
        }
      ],
      "stateMutability": "view",
      "type": "function"
    },
    {
      "inputs": [],
      "name": "busdcToken",
      "outputs": [
        {
          "internalType": "contract IBUSDCToken",
          "name": "",
          "type": "address"
        }
      ],
      "stateMutability": "view",
      "type": "function"
    },
    {
      "inputs": [],
      "name": "communityIssuance",
      "outputs": [
        {
          "internalType": "contract ICommunityIssuance",
          "name": "",
          "type": "address"
        }
      ],
      "stateMutability": "view",
      "type": "function"
    },
    {
      "inputs": [],
      "name": "currentEpoch",
      "outputs": [
        {
          "internalType": "uint128",
          "name": "",
          "type": "uint128"
        }
      ],
      "stateMutability": "view",
      "type": "function"
    },
    {
      "inputs": [],
      "name": "currentScale",
      "outputs": [
        {
          "internalType": "uint128",
          "name": "",
          "type": "uint128"
        }
      ],
      "stateMutability": "view",
      "type": "function"
    },
    {
      "inputs": [],
      "name": "defaultPool",
      "outputs": [
        {
          "internalType": "contract IDefaultPool",
          "name": "",
          "type": "address"
        }
      ],
      "stateMutability": "view",
      "type": "function"
    },
    {
      "inputs": [
        {
          "internalType": "address",
          "name": "",
          "type": "address"
        }
      ],
      "name": "depositSnapshots",
      "outputs": [
        {
          "internalType": "uint256",
          "name": "S",
          "type": "uint256"
        },
        {
          "internalType": "uint256",
          "name": "P",
          "type": "uint256"
        },
        {
          "internalType": "uint256",
          "name": "G",
          "type": "uint256"
        },
        {
          "internalType": "uint128",
          "name": "scale",
          "type": "uint128"
        },
        {
          "internalType": "uint128",
          "name": "epoch",
          "type": "uint128"
        }
      ],
      "stateMutability": "view",
      "type": "function"
    },
    {
      "inputs": [
        {
          "internalType": "address",
          "name": "",
          "type": "address"
        }
      ],
      "name": "deposits",
      "outputs": [
        {
          "internalType": "uint256",
          "name": "initialValue",
          "type": "uint256"
        },
        {
          "internalType": "address",
          "name": "frontEndTag",
          "type": "address"
        }
      ],
      "stateMutability": "view",
      "type": "function"
    },
    {
      "inputs": [
        {
          "internalType": "uint128",
          "name": "",
          "type": "uint128"
        },
        {
          "internalType": "uint128",
          "name": "",
          "type": "uint128"
        }
      ],
      "name": "epochToScaleToG",
      "outputs": [
        {
          "internalType": "uint256",
          "name": "",
          "type": "uint256"
        }
      ],
      "stateMutability": "view",
      "type": "function"
    },
    {
      "inputs": [
        {
          "internalType": "uint128",
          "name": "",
          "type": "uint128"
        },
        {
          "internalType": "uint128",
          "name": "",
          "type": "uint128"
        }
      ],
      "name": "epochToScaleToSum",
      "outputs": [
        {
          "internalType": "uint256",
          "name": "",
          "type": "uint256"
        }
      ],
      "stateMutability": "view",
      "type": "function"
    },
    {
      "inputs": [
        {
          "internalType": "address",
          "name": "",
          "type": "address"
        }
      ],
      "name": "frontEndSnapshots",
      "outputs": [
        {
          "internalType": "uint256",
          "name": "S",
          "type": "uint256"
        },
        {
          "internalType": "uint256",
          "name": "P",
          "type": "uint256"
        },
        {
          "internalType": "uint256",
          "name": "G",
          "type": "uint256"
        },
        {
          "internalType": "uint128",
          "name": "scale",
          "type": "uint128"
        },
        {
          "internalType": "uint128",
          "name": "epoch",
          "type": "uint128"
        }
      ],
      "stateMutability": "view",
      "type": "function"
    },
    {
      "inputs": [
        {
          "internalType": "address",
          "name": "",
          "type": "address"
        }
      ],
      "name": "frontEndStakes",
      "outputs": [
        {
          "internalType": "uint256",
          "name": "",
          "type": "uint256"
        }
      ],
      "stateMutability": "view",
      "type": "function"
    },
    {
      "inputs": [
        {
          "internalType": "address",
          "name": "",
          "type": "address"
        }
      ],
      "name": "frontEnds",
      "outputs": [
        {
          "internalType": "uint256",
          "name": "kickbackRate",
          "type": "uint256"
        },
        {
          "internalType": "bool",
          "name": "registered",
          "type": "bool"
        }
      ],
      "stateMutability": "view",
      "type": "function"
    },
    {
      "inputs": [
        {
          "internalType": "address",
          "name": "_depositor",
          "type": "address"
        }
      ],
      "name": "getCompoundedBUSDCDeposit",
      "outputs": [
        {
          "internalType": "uint256",
          "name": "",
          "type": "uint256"
        }
      ],
      "stateMutability": "view",
      "type": "function"
    },
    {
      "inputs": [
        {
          "internalType": "address",
          "name": "_frontEnd",
          "type": "address"
        }
      ],
      "name": "getCompoundedFrontEndStake",
      "outputs": [
        {
          "internalType": "uint256",
          "name": "",
          "type": "uint256"
        }
      ],
      "stateMutability": "view",
      "type": "function"
    },
    {
      "inputs": [
        {
          "internalType": "address",
          "name": "_depositor",
          "type": "address"
        }
      ],
      "name": "getDepositorB2BGain",
      "outputs": [
        {
          "internalType": "uint256",
          "name": "",
          "type": "uint256"
        }
      ],
      "stateMutability": "view",
      "type": "function"
    },
    {
      "inputs": [
        {
          "internalType": "address",
          "name": "_depositor",
          "type": "address"
        }
      ],
      "name": "getDepositorETHGain",
      "outputs": [
        {
          "internalType": "uint256",
          "name": "",
          "type": "uint256"
        }
      ],
      "stateMutability": "view",
      "type": "function"
    },
    {
      "inputs": [],
      "name": "getETH",
      "outputs": [
        {
          "internalType": "uint256",
          "name": "",
          "type": "uint256"
        }
      ],
      "stateMutability": "view",
      "type": "function"
    },
    {
      "inputs": [],
      "name": "getEntireSystemColl",
      "outputs": [
        {
          "internalType": "uint256",
          "name": "entireSystemColl",
          "type": "uint256"
        }
      ],
      "stateMutability": "view",
      "type": "function"
    },
    {
      "inputs": [],
      "name": "getEntireSystemDebt",
      "outputs": [
        {
          "internalType": "uint256",
          "name": "entireSystemDebt",
          "type": "uint256"
        }
      ],
      "stateMutability": "view",
      "type": "function"
    },
    {
      "inputs": [
        {
          "internalType": "address",
          "name": "_frontEnd",
          "type": "address"
        }
      ],
      "name": "getFrontEndB2BGain",
      "outputs": [
        {
          "internalType": "uint256",
          "name": "",
          "type": "uint256"
        }
      ],
      "stateMutability": "view",
      "type": "function"
    },
    {
      "inputs": [],
      "name": "getTotalBUSDCDeposits",
      "outputs": [
        {
          "internalType": "uint256",
          "name": "",
          "type": "uint256"
        }
      ],
      "stateMutability": "view",
      "type": "function"
    },
    {
      "inputs": [],
      "name": "isOwner",
      "outputs": [
        {
          "internalType": "bool",
          "name": "",
          "type": "bool"
        }
      ],
      "stateMutability": "view",
      "type": "function"
    },
    {
      "inputs": [],
      "name": "lastB2BError",
      "outputs": [
        {
          "internalType": "uint256",
          "name": "",
          "type": "uint256"
        }
      ],
      "stateMutability": "view",
      "type": "function"
    },
    {
      "inputs": [],
      "name": "lastBUSDCLossError_Offset",
      "outputs": [
        {
          "internalType": "uint256",
          "name": "",
          "type": "uint256"
        }
      ],
      "stateMutability": "view",
      "type": "function"
    },
    {
      "inputs": [],
      "name": "lastETHError_Offset",
      "outputs": [
        {
          "internalType": "uint256",
          "name": "",
          "type": "uint256"
        }
      ],
      "stateMutability": "view",
      "type": "function"
    },
    {
      "inputs": [
        {
          "internalType": "uint256",
          "name": "_debtToOffset",
          "type": "uint256"
        },
        {
          "internalType": "uint256",
          "name": "_collToAdd",
          "type": "uint256"
        }
      ],
      "name": "offset",
      "outputs": [],
      "stateMutability": "nonpayable",
      "type": "function"
    },
    {
      "inputs": [],
      "name": "owner",
      "outputs": [
        {
          "internalType": "address",
          "name": "",
          "type": "address"
        }
      ],
      "stateMutability": "view",
      "type": "function"
    },
    {
      "inputs": [],
      "name": "priceFeed",
      "outputs": [
        {
          "internalType": "contract IPriceFeed",
          "name": "",
          "type": "address"
        }
      ],
      "stateMutability": "view",
      "type": "function"
    },
    {
      "inputs": [
        {
          "internalType": "uint256",
          "name": "_amount",
          "type": "uint256"
        },
        {
          "internalType": "address",
          "name": "_frontEndTag",
          "type": "address"
        }
      ],
      "name": "provideToSP",
      "outputs": [],
      "stateMutability": "nonpayable",
      "type": "function"
    },
    {
      "inputs": [
        {
          "internalType": "uint256",
          "name": "amount",
          "type": "uint256"
        }
      ],
      "name": "receiveBackedToken",
      "outputs": [],
      "stateMutability": "nonpayable",
      "type": "function"
    },
    {
      "inputs": [
        {
          "internalType": "uint256",
          "name": "_kickbackRate",
          "type": "uint256"
        }
      ],
      "name": "registerFrontEnd",
      "outputs": [],
      "stateMutability": "nonpayable",
      "type": "function"
    },
    {
      "inputs": [
        {
          "internalType": "address",
          "name": "_borrowerOperationsAddress",
          "type": "address"
        },
        {
          "internalType": "address",
          "name": "_troveManagerAddress",
          "type": "address"
        },
        {
          "internalType": "address",
          "name": "_activePoolAddress",
          "type": "address"
        },
        {
          "internalType": "address",
          "name": "_busdcTokenAddress",
          "type": "address"
        },
        {
          "internalType": "address",
          "name": "_sortedTrovesAddress",
          "type": "address"
        },
        {
          "internalType": "address",
          "name": "_priceFeedAddress",
          "type": "address"
        },
        {
          "internalType": "address",
          "name": "_communityIssuanceAddress",
          "type": "address"
        },
        {
          "internalType": "address",
          "name": "_backedTokenAddress",
          "type": "address"
        },
        {
          "internalType": "address",
          "name": "_stableMintControllerAddress",
          "type": "address"
        }
      ],
      "name": "setAddresses",
      "outputs": [],
      "stateMutability": "nonpayable",
      "type": "function"
    },
    {
      "inputs": [],
      "name": "sortedTroves",
      "outputs": [
        {
          "internalType": "contract ISortedTroves",
          "name": "",
          "type": "address"
        }
      ],
      "stateMutability": "view",
      "type": "function"
    },
    {
      "inputs": [],
      "name": "stableMintController",
      "outputs": [
        {
          "internalType": "contract IStableMintController",
          "name": "",
          "type": "address"
        }
      ],
      "stateMutability": "view",
      "type": "function"
    },
    {
      "inputs": [],
      "name": "troveManager",
      "outputs": [
        {
          "internalType": "contract ITroveManager",
          "name": "",
          "type": "address"
        }
      ],
      "stateMutability": "view",
      "type": "function"
    },
    {
      "inputs": [
        {
          "internalType": "address",
          "name": "_upperHint",
          "type": "address"
        },
        {
          "internalType": "address",
          "name": "_lowerHint",
          "type": "address"
        }
      ],
      "name": "withdrawETHGainToTrove",
      "outputs": [],
      "stateMutability": "nonpayable",
      "type": "function"
    },
    {
      "inputs": [
        {
          "internalType": "uint256",
          "name": "_amount",
          "type": "uint256"
        }
      ],
      "name": "withdrawFromSP",
      "outputs": [],
      "stateMutability": "nonpayable",
      "type": "function"
    }
  ],
  "transactionHash": "0xe02e7fb304df8f13d34774a96e9da4927d68db3cf8c531a68bea1fffb19c0620",
  "args": [],
  "numDeployments": 1,
  "solcInputHash": "18508ab469106970bdcb4e830f974b4f",
  "bytecode": "0x6080604052670de0b6b3a764000060125534801561001c57600080fd5b50600380546001600160a01b031916339081179091556040516000907f8be0079c531659141344cd1fd0a4f28419497f9722a3daafe3b4186f6b6457e0908290a36139c18061006c6000396000f3fe608060405234801561001057600080fd5b50600436106102c15760003560e01c806377553ad41161017d578063a3f4df7e116100d9578063d290dcfc11610092578063d290dcfc1461075f578063d7fb044314610767578063df9cd84f1461076f578063f376b1a614610795578063f92d34331461079d578063fc7e286d146107a5578063fda0101a146107ec576102c1565b8063a3f4df7e14610683578063a4e59ac814610700578063a7bfff9714610708578063ae91875414610747578063c55956d21461074f578063ce4b5bbe14610757576102c1565b8063887105d311610136578063887105d3146106215780638b8fbd92146106295780638da5cb5b146106315780638e6fb616146106395780638f32d59b1461065f57806395fb16bb1461067b578063a20baee614610579576102c1565b806377553ad4146105ad578063794e5724146105b5578063795d26c3146105bd5780637f7dde4a146105c557806382e0a574146105cd57806386da0824146105fb576102c1565b80633cc742251161022c5780635d2de642116101e55780635d2de642146104975780635f788d65146104bd57806366272044146104e95780636b9468601461055357806372fe25aa14610579578063741bef1a146105815780637667180814610589576102c1565b80633cc74225146104345780633d83908a1461043c57806347482072146104445780634870dd9a1461046a578063556be101146104725780635733d58f1461048f576102c1565b806322fb886f1161027e57806322fb886f1461037957806328a0a04d146103815780632e54bf95146103af5780633350695e146103ce578063335525ad146103eb578063389e92a51461040e576102c1565b80630a494612146102c65780630cd6a667146102ea57806314f6c3be1461030457806316b9d3c51461030c5780631bf43555146103695780631c09251214610371575b600080fd5b6102ce61081a565b604080516001600160a01b039092168252519081900360200190f35b6102f2610829565b60408051918252519081900360200190f35b6102f261082f565b6103326004803603602081101561032257600080fd5b50356001600160a01b0316610835565b604080519586526020860194909452848401929092526001600160801b039081166060850152166080830152519081900360a00190f35b6102f2610870565b6102f261087d565b6102f261088a565b6102f26004803603604081101561039757600080fd5b506001600160801b0381358116916020013516610890565b6103cc600480360360208110156103c557600080fd5b50356108ad565b005b6103cc600480360360208110156103e457600080fd5b5035610a36565b6103cc6004803603604081101561040157600080fd5b5080359060200135610b00565b6102f26004803603602081101561042457600080fd5b50356001600160a01b0316610b64565b6102ce610c0c565b6102ce610c1b565b6102f26004803603602081101561045a57600080fd5b50356001600160a01b0316610c2a565b6102f2610d2e565b6103cc6004803603602081101561048857600080fd5b5035610d33565b6102f2610da8565b6102f2600480360360208110156104ad57600080fd5b50356001600160a01b0316610db4565b6103cc600480360360408110156104d357600080fd5b50803590602001356001600160a01b0316610dc6565b6103cc600480360361012081101561050057600080fd5b506001600160a01b038135811691602081013582169160408201358116916060810135821691608082013581169160a081013582169160c082013581169160e08101358216916101009091013516610f47565b6102f26004803603602081101561056957600080fd5b50356001600160a01b0316611224565b6102f26112c1565b6102ce6112cd565b6105916112dc565b604080516001600160801b039092168252519081900360200190f35b6102ce6112f2565b6102f2611301565b6102f261130d565b6102ce61140e565b6102f2600480360360408110156105e357600080fd5b506001600160801b038135811691602001351661141d565b6103326004803603602081101561061157600080fd5b50356001600160a01b031661143a565b6102f2611475565b6102f2611531565b6102ce611537565b6102f26004803603602081101561064f57600080fd5b50356001600160a01b0316611546565b610667611643565b604080519115158252519081900360200190f35b6102ce611654565b61068b611663565b6040805160208082528351818301528351919283929083019185019080838360005b838110156106c55781810151838201526020016106ad565b50505050905090810190601f1680156106f25780820380516001836020036101000a031916815260200191505b509250505060405180910390f35b61059161168c565b61072e6004803603602081101561071e57600080fd5b50356001600160a01b031661169b565b6040805192835290151560208301528051918290030190f35b6102ce6116b7565b6102ce6116c6565b6102f26116d5565b6102ce6116dd565b6102f26116ec565b6102f26004803603602081101561078557600080fd5b50356001600160a01b03166116f2565b6102f261178f565b6102f2611795565b6107cb600480360360208110156107bb57600080fd5b50356001600160a01b03166117a0565b604080519283526001600160a01b0390911660208301528051918290030190f35b6103cc6004803603604081101561080257600080fd5b506001600160a01b03813581169160200135166117c2565b600a546001600160a01b031681565b60165481565b600b5490565b6011602052600090815260409020805460018201546002830154600390930154919290916001600160801b0380821691600160801b90041685565b686194049f30f720000081565b680ad78ebc5ac620000081565b60185481565b601460209081526000928352604080842090915290825290205481565b80156108bb576108bb611a7b565b336000908152600d60205260409020546108d481611c38565b6008546001600160a01b03166108e981611c7a565b60006108f433610b64565b9050600061090133611224565b9050600061090f8683611cee565b90506000610923868463ffffffff611d0816565b336000818152600d60205260409020600101549192506001600160a01b039091169061095190879083611d4a565b600061095c826116f2565b90506000610970828663ffffffff611d0816565b905061097c8382611ee9565b6040805182815233602082015281516001600160a01b038616926000805160206138db833981519152928290030190a26109b63386612035565b60006109c8878763ffffffff611d0816565b90506109d433826120bb565b6040805182815290513391600080516020613767833981519152919081900360200190a260408051898152602081018790528151339260008051602061382a833981519152928290030190a2610a2988612241565b5050505050505050505050565b610a3e612434565b600b54610a51908263ffffffff61247f16565b600b55600954604080516323b872dd60e01b81523360048201523060248201526044810184905290516001600160a01b03909216916323b872dd916064808201926020929091908290030181600087803b158015610aae57600080fd5b505af1158015610ac2573d6000803e3d6000fd5b505050506040513d6020811015610ad857600080fd5b5050600b5460408051918252516000805160206137168339815191529181900360200190a150565b610b086124d9565b600c54801580610b16575082155b15610b215750610b60565b600854610b36906001600160a01b0316611c7a565b600080610b44848685612522565b91509150610b52828261261b565b610b5c8486612915565b5050505b5050565b6001600160a01b0381166000908152600d602052604081205480610b8c576000915050610c07565b610b94613621565b506001600160a01b0383166000908152600e60209081526040808320815160a08101835281548152600182015493810193909352600281015491830191909152600301546001600160801b038082166060840152600160801b90910416608082015290610c018383612ac9565b93505050505b919050565b6001546001600160a01b031681565b6005546001600160a01b031681565b6001600160a01b03811660009081526010602052604081205480610c52576000915050610c07565b6001600160a01b0383166000908152600f602052604081205490610c84670de0b6b3a76400008363ffffffff611d0816565b9050610c8e613621565b506001600160a01b0385166000908152601160209081526040808320815160a08101835281548152600182015493810193909352600281015491830191909152600301546001600160801b038082166060840152600160801b90910416608082015290610d23670de0b6b3a7640000610d17610d0a8886612bba565b869063ffffffff612c4616565b9063ffffffff612c9f16565b979650505050505050565b60c881565b610d3c33612ce1565b610d4533612d3c565b610d4e81612d92565b336000818152600f60209081526040918290208481556001908101805460ff19169091179055815184815291517f19bc932fb9e16a8b5a1e41be9f4c2de59d5ddd7567b8b81405f532ca00a9880e9281900390910190a250565b6714d1120d7b16000081565b60106020526000908152604090205481565b610dcf81612dd9565b610dd833612ce1565b610de182612e45565b336000908152600d60205260409020546008546001600160a01b0316610e0681611c7a565b81610e1557610e153384612e84565b6000610e2033610b64565b90506000610e2d33611224565b90506000610e41858363ffffffff611d0816565b336000818152600d60205260409020600101549192506001600160a01b0390911690610e6f90869083611d4a565b6000610e7a826116f2565b90506000610e8e828b63ffffffff61247f16565b9050610e9a8382611ee9565b6040805182815233602082015281516001600160a01b038616926000805160206138db833981519152928290030190a2610ed4338b612ede565b6000610ee6868c63ffffffff61247f16565b9050610ef233826120bb565b6040805182815290513391600080516020613767833981519152919081900360200190a260408051888152602081018790528151339260008051602061382a833981519152928290030190a2610a2987612241565b610f4f611643565b610fa0576040805162461bcd60e51b815260206004820181905260248201527f4f776e61626c653a2063616c6c6572206973206e6f7420746865206f776e6572604482015290519081900360640190fd5b610fa989612fa8565b610fb288612fa8565b610fbb87612fa8565b610fc486612fa8565b610fcd85612fa8565b610fd684612fa8565b610fdf83612fa8565b610fe882612fa8565b610ff181612fa8565b600480546001600160a01b03199081166001600160a01b038c81169182179093556005805483168c85161790556000805483168b85161790556006805483168a8516179055600780548316898516179055600280548316888516179055600880548316878516179055600980548316868516179055600a805490921692841692909217905560408051918252517f3ca631ffcd2a9b5d9ae18543fc82f58eb4ca33af9e6ab01b7a8e95331e6ed985916020908290030190a1604080516001600160a01b038a16815290517f143219c9e69b09e07e095fcc889b43d8f46ca892bba65f08dc3a0050869a56789181900360200190a1604080516001600160a01b038916815290517f78f058b189175430c48dc02699e3a0031ea4ff781536dc2fab847de4babdd8829181900360200190a1604080516001600160a01b038816815290517f1825f1a57bf1f489b77ce5ad8e53525171443d614f252ad02dff4a43075a61e59181900360200190a1604080516001600160a01b038716815290517f65f4cf077bc01e4742eb5ad98326f6e95b63548ea24b17f8d5e823111fe788009181900360200190a1604080516001600160a01b038616815290517f8c537274438aa850a330284665d81a85dd38267d09e4050d416bfc94142db2649181900360200190a1604080516001600160a01b038516815290517f3055265812fb8447b9ada4a5d804ec43bd528ec40e89c952bbc7b85dc5ac68119181900360200190a1611219613057565b505050505050505050565b6001600160a01b0381166000908152600d60205260408120548061124c576000915050610c07565b611254613621565b506001600160a01b0383166000908152600e60209081526040808320815160a08101835281548152600182015493810193909352600281015491830191909152600301546001600160801b038082166060840152600160801b90910416608082015290610c0183836130a1565b670de0b6b3a764000081565b6002546001600160a01b031681565b601354600160801b90046001600160801b031681565b6004546001600160a01b031681565b670f43fc2c04ee000081565b6000805460408051632a2c95e760e01b8152905183926001600160a01b031691632a2c95e7916004808301926020929190829003018186803b15801561135257600080fd5b505afa158015611366573d6000803e3d6000fd5b505050506040513d602081101561137c57600080fd5b505160015460408051632a2c95e760e01b815290519293506000926001600160a01b0390921691632a2c95e791600480820192602092909190829003018186803b1580156113c957600080fd5b505afa1580156113dd573d6000803e3d6000fd5b505050506040513d60208110156113f357600080fd5b50519050611407828263ffffffff61247f16565b9250505090565b6000546001600160a01b031681565b601560209081526000928352604080842090915290825290205481565b600e602052600090815260409020805460018201546002830154600390930154919290916001600160801b0380821691600160801b90041685565b6000805460408051630a7b61df60e11b8152905183926001600160a01b0316916314f6c3be916004808301926020929190829003018186803b1580156114ba57600080fd5b505afa1580156114ce573d6000803e3d6000fd5b505050506040513d60208110156114e457600080fd5b505160015460408051630a7b61df60e11b815290519293506000926001600160a01b03909216916314f6c3be91600480820192602092909190829003018186803b1580156113c957600080fd5b60125481565b6003546001600160a01b031690565b6001600160a01b0381166000908152600d60205260408120548061156e576000915050610c07565b6001600160a01b038084166000908152600d60205260408120600101549091169081156115b3576001600160a01b0382166000908152600f60205260409020546115bd565b670de0b6b3a76400005b90506115c7613621565b506001600160a01b0385166000908152600e60209081526040808320815160a08101835281548152600182015493810193909352600281015491830191909152600301546001600160801b038082166060840152600160801b90910416608082015290610d23670de0b6b3a7640000610d17610d0a8886612bba565b6003546001600160a01b0316331490565b6008546001600160a01b031681565b6040518060400160405280600d81526020016c14dd18589a5b1a5d1e541bdbdb609a1b81525081565b6013546001600160801b031681565b600f602052600090815260409020805460019091015460ff1682565b6007546001600160a01b031681565b6009546001600160a01b031681565b633b9aca0081565b6006546001600160a01b031681565b60175481565b6001600160a01b0381166000908152601060205260408120548061171a576000915050610c07565b611722613621565b506001600160a01b0383166000908152601160209081526040808320815160a08101835281548152600182015493810193909352600281015491830191909152600301546001600160801b038082166060840152600160801b90910416608082015290610c0183836130a1565b600c5490565b6611c37937e0800081565b600d60205260009081526040902080546001909101546001600160a01b031682565b336000908152600d60205260409020546117db81611c38565b6117e43361319d565b6117ed33613254565b6008546001600160a01b031661180281611c7a565b600061180d33610b64565b9050600061181a33611224565b9050600061182e858363ffffffff611d0816565b336000818152600d60205260409020600101549192506001600160a01b039091169061185c90869083611d4a565b6000611867826116f2565b9050806118748382611ee9565b6040805182815233602082015281516001600160a01b038616926000805160206138db833981519152928290030190a26118ae33866120bb565b60408051878152602081018690528151339260008051602061382a833981519152928290030190a26040805186815290513391600080516020613767833981519152919081900360200190a2600b5461190d908763ffffffff611d0816565b600b81905560408051918252516000805160206137168339815191529181900360200190a1604080513381526020810188905281517f6109e2559dfa766aaec7118351d48a523f0a4157f49c8d68749c8ac41318ad12929181900390910190a1600954600480546040805163095ea7b360e01b81526001600160a01b0392831693810193909352602483018a90525192169163095ea7b3916044808201926020929091908290030181600087803b1580156119c757600080fd5b505af11580156119db573d6000803e3d6000fd5b505050506040513d60208110156119f157600080fd5b50506004805460408051631c90d4ad60e31b815233938101939093526001600160a01b038d811660248501528c81166044850152606484018a9052905191169163e486a56891608480830192600092919082900301818387803b158015611a5757600080fd5b505af1158015611a6b573d6000803e3d6000fd5b5050505050505050505050505050565b60025460408051630fdb11cf60e01b815290516000926001600160a01b031691630fdb11cf91600480830192602092919082900301818787803b158015611ac157600080fd5b505af1158015611ad5573d6000803e3d6000fd5b505050506040513d6020811015611aeb57600080fd5b505160075460408051634d62283160e01b815290519293506000926001600160a01b0390921691634d62283191600480820192602092909190829003018186803b158015611b3857600080fd5b505afa158015611b4c573d6000803e3d6000fd5b505050506040513d6020811015611b6257600080fd5b505160055460408051630d293c7160e41b81526001600160a01b038085166004830152602482018790529151939450600093919092169163d293c710916044808301926020929190829003018186803b158015611bbe57600080fd5b505afa158015611bd2573d6000803e3d6000fd5b505050506040513d6020811015611be857600080fd5b50519050670f43fc2c04ee0000811015611c335760405162461bcd60e51b81526004018080602001828103825260448152602001806139486044913960600191505060405180910390fd5b505050565b60008111611c775760405162461bcd60e51b81526004018080602001828103825260308152602001806138ab6030913960400191505060405180910390fd5b50565b6000816001600160a01b031663484e8dc46040518163ffffffff1660e01b8152600401602060405180830381600087803b158015611cb757600080fd5b505af1158015611ccb573d6000803e3d6000fd5b505050506040513d6020811015611ce157600080fd5b50519050610b60816132a0565b6000818310611cfd5781611cff565b825b90505b92915050565b6000611cff83836040518060400160405280601e81526020017f536166654d6174683a207375627472616374696f6e206f766572666c6f7700008152506133bb565b6001600160a01b03811615611e1f576000611d6482610c2a565b9050836001600160a01b03166337bc20f683836040518363ffffffff1660e01b815260040180836001600160a01b03166001600160a01b0316815260200182815260200192505050600060405180830381600087803b158015611dc657600080fd5b505af1158015611dda573d6000803e3d6000fd5b50506040805184815290516001600160a01b03861693507f8e19a151a058f50e2e01e8b0777db32fbb0e0239706714c1792ed02b6963755092509081900360200190a2505b6000611e2a83611546565b9050836001600160a01b03166337bc20f684836040518363ffffffff1660e01b815260040180836001600160a01b03166001600160a01b0316815260200182815260200192505050600060405180830381600087803b158015611e8c57600080fd5b505af1158015611ea0573d6000803e3d6000fd5b50506040805184815290516001600160a01b03871693507f72f0efedabcd5e45451b34d3583ef43d094bb8704cb6158a39927056cd7625f792509081900360200190a250505050565b6001600160a01b038216600090815260106020526040902081905580611f79576001600160a01b0382166000818152601160209081526040808320838155600181018490556002810184905560030183905580518381529182019290925281517fbb1322f85cc7cc8bac4e172a5bc5dcc0c1959007f9a030032abf9258205f0e45929181900390910190a2610b60565b6013546012546001600160801b03600160801b80840482166000818152601560209081526040808320978616808452978252808320546001600160a01b038b168085526011845293829020600181018990556002810182905560030180546001600160801b0319168a17909716958502959095179095558451868152908101849052845192959491927fbb1322f85cc7cc8bac4e172a5bc5dcc0c1959007f9a030032abf9258205f0e45929181900390910190a2505050505050565b8061203f57610b60565b60065460408051631062c15f60e11b81523060048201526001600160a01b03858116602483015260448201859052915191909216916320c582be91606480830192600092919082900301818387803b15801561209a57600080fd5b505af11580156120ae573d6000803e3d6000fd5b50505050610b6081613452565b6001600160a01b0382166000908152600d6020526040902081905580612169576001600160a01b0382166000818152600d60209081526040808320600190810180546001600160a01b0319169055600e83528184208481559081018490556002810184905560030183905580518381529182018390528181019290925290517f2d6cc0bcdf72c9486f6451bde6b80f44066f4558f77f44dbfedbe7d8b295225a9181900360600190a2610b60565b6013546012546001600160801b03600160801b8084048216600081815260146020908152604080832097861680845297825280832054848452601583528184208985528352818420546001600160a01b038c16808652600e855294839020600181018a90558281556002810182905560030180546001600160801b0319168b179098169686029690961790965580518781529182018690528181018590525192959493927f2d6cc0bcdf72c9486f6451bde6b80f44066f4558f77f44dbfedbe7d8b295225a916060908290030190a250505050505050565b8061224b57611c77565b600b54600090612261908363ffffffff611d0816565b600b819055604080518281529051919250600080516020613716833981519152919081900360200190a1604080513381526020810184905281517f6109e2559dfa766aaec7118351d48a523f0a4157f49c8d68749c8ac41318ad12929181900390910190a16122cf336134a8565b156123b0576009546040805163095ea7b360e01b81523360048201526024810185905290516001600160a01b039092169163095ea7b3916044808201926020929091908290030181600087803b15801561232857600080fd5b505af115801561233c573d6000803e3d6000fd5b505050506040513d602081101561235257600080fd5b5050604080516319a834af60e11b81526004810184905290513391633350695e91602480830192600092919082900301818387803b15801561239357600080fd5b505af11580156123a7573d6000803e3d6000fd5b50505050610b60565b6009546040805163a9059cbb60e01b81523360048201526024810185905290516001600160a01b039092169163a9059cbb916044808201926020929091908290030181600087803b15801561240457600080fd5b505af1158015612418573d6000803e3d6000fd5b505050506040513d602081101561242e57600080fd5b50505050565b6000546001600160a01b0316331461247d5760405162461bcd60e51b81526004018080602001828103825260278152602001806136ef6027913960400191505060405180910390fd5b565b600082820183811015611cff576040805162461bcd60e51b815260206004820152601b60248201527f536166654d6174683a206164646974696f6e206f766572666c6f770000000000604482015290519081900360640190fd5b6005546001600160a01b0316331461247d5760405162461bcd60e51b81526004018080602001828103825260298152602001806137876029913960400191505060405180910390fd5b6000806000612554601754612548670de0b6b3a764000089612c4690919063ffffffff16565b9063ffffffff61247f16565b90508385111561256057fe5b8385141561257d576000601855670de0b6b3a764000091506125dd565b6018546000906125ab9061259f88670de0b6b3a764000063ffffffff612c4616565b9063ffffffff611d0816565b90506125c26001612548838863ffffffff612c9f16565b92506125d88161259f858863ffffffff612c4616565b601855505b6125ed818563ffffffff612c9f16565b925061260f612602848663ffffffff612c4616565b829063ffffffff611d0816565b60175550935093915050565b6012546000670de0b6b3a764000083111561263257fe5b600061264c670de0b6b3a76400008563ffffffff611d0816565b6013546001600160801b03600160801b8204811660008181526014602090815260408083209490951680835293905292832054939450909290916126908988612c46565b905060006126a4838363ffffffff61247f16565b6001600160801b038086166000818152601460209081526040808320948b16808452948252918290208590558151858152908101929092528181019290925290519192507fe12e2cd2c9afa8069203ca07e7eff1edce4a075686d0736a8e7e0d593597b207919081900360600190a1856127db576127326001600160801b038516600163ffffffff6134ae16565b601380546001600160801b03908116600160801b938216840217918290556040805193909204168252517fb50f0f59e7cb5b421dc77581c3a9919e3806e076e5fa78a874c3f120cb7d874d916020908290030190a1601380546001600160801b0319169055604080516000815290517f1f9dfc70cd666adb18a39d60a797518f7b4febf4b6e24ef37d44f6e1e7219fbe9181900360200190a1670de0b6b3a764000096506128c7565b633b9aca006127fc670de0b6b3a7640000610d178b8a63ffffffff612c4616565b10156128a857612832670de0b6b3a7640000610d17633b9aca006128268c8b63ffffffff612c4616565b9063ffffffff612c4616565b965061284e6001600160801b038616600163ffffffff6134ae16565b601380546001600160801b0319166001600160801b0392831617908190556040805191909216815290517f1f9dfc70cd666adb18a39d60a797518f7b4febf4b6e24ef37d44f6e1e7219fbe916020908290030190a16128c7565b6128c4670de0b6b3a7640000610d178a8963ffffffff612c4616565b96505b600087116128d157fe5b60128790556040805188815290517fc1a9618cb59ebca77cbdbc2949f126823c407ff13edb285fd0262519a9c18e8c9181900360200190a150505050505050505050565b600080546040805163373ca0ed60e21b81526004810185905290516001600160a01b0390921692839263dcf283b492602480820193929182900301818387803b15801561296157600080fd5b505af1158015612975573d6000803e3d6000fd5b5050505061298282613452565b600a54600480546040805163055a9add60e51b81526001600160a01b0392831693810193909352602483018690525192169163ab535ba09160448082019260009290919082900301818387803b1580156129db57600080fd5b505af11580156129ef573d6000803e3d6000fd5b505060065460408051632770a7eb60e21b81523060048201526024810187905290516001600160a01b039092169350639dc29fac925060448082019260009290919082900301818387803b158015612a4657600080fd5b505af1158015612a5a573d6000803e3d6000fd5b5050604080516364a197f360e01b81523060048201526024810187905290516001600160a01b03851693506364a197f39250604480830192600092919082900301818387803b158015612aac57600080fd5b505af1158015612ac0573d6000803e3d6000fd5b50505050505050565b6080810151606082015182516020808501516001600160801b03808616600090815260148452604080822092871682529190935282205491949392918590612b17908463ffffffff611d0816565b6001600160801b03808716600090815260146020526040812092935091612b7a91633b9aca0091908490612b54908a16600163ffffffff6134ae16565b6001600160801b031681526020810191909152604001600020549063ffffffff612c9f16565b90506000612bac670de0b6b3a7640000610d178681612b9f888863ffffffff61247f16565b8f9063ffffffff612c4616565b9a9950505050505050505050565b608081015160608201516040808401516020808601516001600160801b03808716600090815260158452858120918716815292529281205490949392908590612c09908463ffffffff611d0816565b6001600160801b03808716600090815260156020526040812092935091612b7a91633b9aca0091908490612b54908a16600163ffffffff6134ae16565b600082612c5557506000611d02565b82820282848281612c6257fe5b0414611cff5760405162461bcd60e51b81526004018080602001828103825260218152602001806137b06021913960400191505060405180910390fd5b6000611cff83836040518060400160405280601a81526020017f536166654d6174683a206469766973696f6e206279207a65726f0000000000008152506134fe565b6001600160a01b0381166000908152600f602052604090206001015460ff1615611c775760405162461bcd60e51b815260040180806020018281038252603981526020018061384a6039913960400191505060405180910390fd5b6001600160a01b0381166000908152600d60205260409020548015610b605760405162461bcd60e51b81526004018080602001828103825260288152602001806138836028913960400191505060405180910390fd5b670de0b6b3a7640000811115611c775760405162461bcd60e51b81526004018080602001828103825260338152602001806137d16033913960400191505060405180910390fd5b6001600160a01b0381166000908152600f602052604090206001015460ff1680612e0a57506001600160a01b038116155b611c775760405162461bcd60e51b81526004018080602001828103825260468152602001806136a96046913960600191505060405180910390fd5b60008111611c775760405162461bcd60e51b81526004018080602001828103825260268152602001806138046026913960400191505060405180910390fd5b6001600160a01b038281166000818152600d602052604080822060010180546001600160a01b0319169486169485179055517f094c08e96a8890877a8390b4f967180a7507ad8622244d05fcd0f9f8e086564e9190a35050565b60065460408051632ee65eeb60e21b81526001600160a01b038581166004830152306024830152604482018590529151919092169163bb997bac91606480830192600092919082900301818387803b158015612f3957600080fd5b505af1158015612f4d573d6000803e3d6000fd5b5050600c5460009250612f6791508363ffffffff61247f16565b600c8190556040805182815290519192507f205b9a900322986b6b67380bbc9770235a30c91b12bc6915eb0c1ba8e45ee2d1919081900360200190a1505050565b6001600160a01b038116613003576040805162461bcd60e51b815260206004820152601e60248201527f4163636f756e742063616e6e6f74206265207a65726f20616464726573730000604482015290519081900360640190fd5b803b80610b60576040805162461bcd60e51b815260206004820181905260248201527f4163636f756e7420636f64652073697a652063616e6e6f74206265207a65726f604482015290519081900360640190fd5b6003546040516000916001600160a01b0316907f8be0079c531659141344cd1fd0a4f28419497f9722a3daafe3b4186f6b6457e0908390a3600380546001600160a01b0319169055565b6020810151606082015160808301516013546000939291906001600160801b03600160801b909104811690821610156130e05760009350505050611d02565b6013546000908190613101906001600160801b03168563ffffffff61356316565b90506001600160801b0381166131315761312a85610d176012548b612c4690919063ffffffff16565b9150613169565b806001600160801b0316600114156131645761312a633b9aca00610d1787610d176012548d612c4690919063ffffffff16565b600091505b61317d88633b9aca0063ffffffff612c9f16565b82101561319257600095505050505050611d02565b509695505050505050565b600554604080516321e3780160e01b81526001600160a01b038481166004830152915191909216916321e37801916024808301926020929190829003018186803b1580156131ea57600080fd5b505afa1580156131fe573d6000803e3d6000fd5b505050506040513d602081101561321457600080fd5b5051600114611c775760405162461bcd60e51b81526004018080602001828103825260468152602001806136636046913960600191505060405180910390fd5b600061325f82610b64565b905060008111610b605760405162461bcd60e51b81526004018080602001828103825260318152602001806137366031913960400191505060405180910390fd5b600c548015806132ae575081155b156132b95750611c77565b60006132c583836135bc565b905060006132de60125483612c4690919063ffffffff16565b6013546001600160801b03600160801b820481166000908152601560209081526040808320939094168252919091522054909150613322908263ffffffff61247f16565b601380546001600160801b03600160801b808304821660009081526015602081815260408084209686168452958152858320979097559454918204831680825294865283812091909216808352908552908290205482519081529384019290925282810191909152517f2d6127771b164a9cc8827d24b5955db2a77e7a81dac389107ebb8bce9fb649689181900360600190a150505050565b6000818484111561344a5760405162461bcd60e51b81526004018080602001828103825283818151815260200191508051906020019080838360005b8381101561340f5781810151838201526020016133f7565b50505050905090810190601f16801561343c5780820380516001836020036101000a031916815260200191505b509250505060405180910390fd5b505050900390565b600c54600090613468908363ffffffff611d0816565b600c8190556040805182815290519192507f205b9a900322986b6b67380bbc9770235a30c91b12bc6915eb0c1ba8e45ee2d1919081900360200190a15050565b3b151590565b60008282016001600160801b038085169082161015611cff5760405162461bcd60e51b81526004018080602001828103825260258152602001806139236025913960400191505060405180910390fd5b6000818361354d5760405162461bcd60e51b815260206004820181815283516024840152835190928392604490910191908501908083836000831561340f5781810151838201526020016133f7565b50600083858161355957fe5b0495945050505050565b6000826001600160801b0316826001600160801b031611156135b65760405162461bcd60e51b81526004018080602001828103825260288152602001806138fb6028913960400191505060405180910390fd5b50900390565b6000806135e0601654612548670de0b6b3a764000087612c4690919063ffffffff16565b905060006135f4828563ffffffff612c9f16565b9050613616613609828663ffffffff612c4616565b839063ffffffff611d0816565b601655949350505050565b6040518060a0016040528060008152602001600081526020016000815260200160006001600160801b0316815260200160006001600160801b03168152509056fe53746162696c697479506f6f6c3a2063616c6c6572206d757374206861766520616e206163746976652074726f766520746f207769746864726177204554484761696e20746f53746162696c697479506f6f6c3a20546167206d757374206265206120726567697374657265642066726f6e7420656e642c206f7220746865207a65726f206164647265737353746162696c697479506f6f6c3a2043616c6c6572206973206e6f7420416374697665506f6f6cceb6d671277d4354fd29977ada70695fbd93a16612abf765d6b0e25c28dc6db353746162696c697479506f6f6c3a2063616c6c6572206d7573742068617665206e6f6e2d7a65726f20455448204761696ebce78369dccab09eec1986f4d409ab09ffbb47d65423e5148fcf98411c5111c953746162696c697479506f6f6c3a2043616c6c6572206973206e6f742054726f76654d616e61676572536166654d6174683a206d756c7469706c69636174696f6e206f766572666c6f7753746162696c697479506f6f6c3a204b69636b6261636b2072617465206d75737420626520696e2072616e6765205b302c315d53746162696c697479506f6f6c3a20416d6f756e74206d757374206265206e6f6e2d7a65726f51457222ebca92c335c9c86e2baa1cc0e40ffaa9084a51452980d5ba8dec2f6353746162696c697479506f6f6c3a206d757374206e6f7420616c7265616479206265206120726567697374657265642066726f6e7420656e6453746162696c697479506f6f6c3a2055736572206d7573742068617665206e6f206465706f73697453746162696c697479506f6f6c3a2055736572206d75737420686176652061206e6f6e2d7a65726f206465706f73697499920012339b5a3368d3a04b8606ce412c46ed92b7dcd8602d41fc8862cb8f254c697175697479536166654d6174683132383a207375627472616374696f6e206f766572666c6f774c697175697479536166654d6174683132383a206164646974696f6e206f766572666c6f7753746162696c697479506f6f6c3a2043616e6e6f74207769746864726177207768696c65207468657265206172652074726f766573207769746820494352203c204d4352a2646970667358221220736870303d3aeef43168d2ead8ef9f19ea1f42a50e6020f0b67e433e5075d18764736f6c634300060b0033",
  "devdoc": {
    "kind": "dev",
    "methods": {
      "isOwner()": {
        "details": "Returns true if the caller is the current owner."
      },
      "owner()": {
        "details": "Returns the address of the current owner."
      }
    },
    "version": 1
  },
  "userdoc": {
    "kind": "user",
    "methods": {},
    "version": 1
  },
  "storageLayout": {
    "storage": [
      {
        "astId": 7319,
        "contract": "contracts/B2BContracts/StabilityPool.sol:StabilityPool",
        "label": "activePool",
        "offset": 0,
        "slot": "0",
        "type": "t_contract(IActivePool)18578"
      },
      {
        "astId": 7321,
        "contract": "contracts/B2BContracts/StabilityPool.sol:StabilityPool",
        "label": "defaultPool",
        "offset": 0,
        "slot": "1",
        "type": "t_contract(IDefaultPool)19092"
      },
      {
        "astId": 7324,
        "contract": "contracts/B2BContracts/StabilityPool.sol:StabilityPool",
        "label": "priceFeed",
        "offset": 0,
        "slot": "2",
        "type": "t_contract(IPriceFeed)19198"
      },
      {
        "astId": 7805,
        "contract": "contracts/B2BContracts/StabilityPool.sol:StabilityPool",
        "label": "_owner",
        "offset": 0,
        "slot": "3",
        "type": "t_address"
      },
      {
        "astId": 25024,
        "contract": "contracts/B2BContracts/StabilityPool.sol:StabilityPool",
        "label": "borrowerOperations",
        "offset": 0,
        "slot": "4",
        "type": "t_contract(IBorrowerOperations)18973"
      },
      {
        "astId": 25026,
        "contract": "contracts/B2BContracts/StabilityPool.sol:StabilityPool",
        "label": "troveManager",
        "offset": 0,
        "slot": "5",
        "type": "t_contract(ITroveManager)20027"
      },
      {
        "astId": 25028,
        "contract": "contracts/B2BContracts/StabilityPool.sol:StabilityPool",
        "label": "busdcToken",
        "offset": 0,
        "slot": "6",
        "type": "t_contract(IBUSDCToken)18787"
      },
      {
        "astId": 25030,
        "contract": "contracts/B2BContracts/StabilityPool.sol:StabilityPool",
        "label": "sortedTroves",
        "offset": 0,
        "slot": "7",
        "type": "t_contract(ISortedTroves)19330"
      },
      {
        "astId": 25032,
        "contract": "contracts/B2BContracts/StabilityPool.sol:StabilityPool",
        "label": "communityIssuance",
        "offset": 0,
        "slot": "8",
        "type": "t_contract(ICommunityIssuance)19069"
      },
      {
        "astId": 25034,
        "contract": "contracts/B2BContracts/StabilityPool.sol:StabilityPool",
        "label": "backedTokenAddress",
        "offset": 0,
        "slot": "9",
        "type": "t_address"
      },
      {
        "astId": 25036,
        "contract": "contracts/B2BContracts/StabilityPool.sol:StabilityPool",
        "label": "stableMintController",
        "offset": 0,
        "slot": "10",
        "type": "t_contract(IStableMintController)6784"
      },
      {
        "astId": 25038,
        "contract": "contracts/B2BContracts/StabilityPool.sol:StabilityPool",
        "label": "ETH",
        "offset": 0,
        "slot": "11",
        "type": "t_uint256"
      },
      {
        "astId": 25040,
        "contract": "contracts/B2BContracts/StabilityPool.sol:StabilityPool",
        "label": "totalBUSDCDeposits",
        "offset": 0,
        "slot": "12",
        "type": "t_uint256"
      },
      {
        "astId": 25065,
        "contract": "contracts/B2BContracts/StabilityPool.sol:StabilityPool",
        "label": "deposits",
        "offset": 0,
        "slot": "13",
        "type": "t_mapping(t_address,t_struct(Deposit)25050_storage)"
      },
      {
        "astId": 25069,
        "contract": "contracts/B2BContracts/StabilityPool.sol:StabilityPool",
        "label": "depositSnapshots",
        "offset": 0,
        "slot": "14",
        "type": "t_mapping(t_address,t_struct(Snapshots)25061_storage)"
      },
      {
        "astId": 25073,
        "contract": "contracts/B2BContracts/StabilityPool.sol:StabilityPool",
        "label": "frontEnds",
        "offset": 0,
        "slot": "15",
        "type": "t_mapping(t_address,t_struct(FrontEnd)25045_storage)"
      },
      {
        "astId": 25077,
        "contract": "contracts/B2BContracts/StabilityPool.sol:StabilityPool",
        "label": "frontEndStakes",
        "offset": 0,
        "slot": "16",
        "type": "t_mapping(t_address,t_uint256)"
      },
      {
        "astId": 25081,
        "contract": "contracts/B2BContracts/StabilityPool.sol:StabilityPool",
        "label": "frontEndSnapshots",
        "offset": 0,
        "slot": "17",
        "type": "t_mapping(t_address,t_struct(Snapshots)25061_storage)"
      },
      {
        "astId": 25084,
        "contract": "contracts/B2BContracts/StabilityPool.sol:StabilityPool",
        "label": "P",
        "offset": 0,
        "slot": "18",
        "type": "t_uint256"
      },
      {
        "astId": 25089,
        "contract": "contracts/B2BContracts/StabilityPool.sol:StabilityPool",
        "label": "currentScale",
        "offset": 0,
        "slot": "19",
        "type": "t_uint128"
      },
      {
        "astId": 25091,
        "contract": "contracts/B2BContracts/StabilityPool.sol:StabilityPool",
        "label": "currentEpoch",
        "offset": 16,
        "slot": "19",
        "type": "t_uint128"
      },
      {
        "astId": 25097,
        "contract": "contracts/B2BContracts/StabilityPool.sol:StabilityPool",
        "label": "epochToScaleToSum",
        "offset": 0,
        "slot": "20",
        "type": "t_mapping(t_uint128,t_mapping(t_uint128,t_uint256))"
      },
      {
        "astId": 25103,
        "contract": "contracts/B2BContracts/StabilityPool.sol:StabilityPool",
        "label": "epochToScaleToG",
        "offset": 0,
        "slot": "21",
        "type": "t_mapping(t_uint128,t_mapping(t_uint128,t_uint256))"
      },
      {
        "astId": 25105,
        "contract": "contracts/B2BContracts/StabilityPool.sol:StabilityPool",
        "label": "lastB2BError",
        "offset": 0,
        "slot": "22",
        "type": "t_uint256"
      },
      {
        "astId": 25107,
        "contract": "contracts/B2BContracts/StabilityPool.sol:StabilityPool",
        "label": "lastETHError_Offset",
        "offset": 0,
        "slot": "23",
        "type": "t_uint256"
      },
      {
        "astId": 25109,
        "contract": "contracts/B2BContracts/StabilityPool.sol:StabilityPool",
        "label": "lastBUSDCLossError_Offset",
        "offset": 0,
        "slot": "24",
        "type": "t_uint256"
      }
    ],
    "types": {
      "t_address": {
        "encoding": "inplace",
        "label": "address",
        "numberOfBytes": "20"
      },
      "t_bool": {
        "encoding": "inplace",
        "label": "bool",
        "numberOfBytes": "1"
      },
      "t_contract(IActivePool)18578": {
        "encoding": "inplace",
        "label": "contract IActivePool",
        "numberOfBytes": "20"
      },
      "t_contract(IBUSDCToken)18787": {
        "encoding": "inplace",
        "label": "contract IBUSDCToken",
        "numberOfBytes": "20"
      },
      "t_contract(IBorrowerOperations)18973": {
        "encoding": "inplace",
        "label": "contract IBorrowerOperations",
        "numberOfBytes": "20"
      },
      "t_contract(ICommunityIssuance)19069": {
        "encoding": "inplace",
        "label": "contract ICommunityIssuance",
        "numberOfBytes": "20"
      },
      "t_contract(IDefaultPool)19092": {
        "encoding": "inplace",
        "label": "contract IDefaultPool",
        "numberOfBytes": "20"
      },
      "t_contract(IPriceFeed)19198": {
        "encoding": "inplace",
        "label": "contract IPriceFeed",
        "numberOfBytes": "20"
      },
      "t_contract(ISortedTroves)19330": {
        "encoding": "inplace",
        "label": "contract ISortedTroves",
        "numberOfBytes": "20"
      },
      "t_contract(IStableMintController)6784": {
        "encoding": "inplace",
        "label": "contract IStableMintController",
        "numberOfBytes": "20"
      },
      "t_contract(ITroveManager)20027": {
        "encoding": "inplace",
        "label": "contract ITroveManager",
        "numberOfBytes": "20"
      },
      "t_mapping(t_address,t_struct(Deposit)25050_storage)": {
        "encoding": "mapping",
        "key": "t_address",
        "label": "mapping(address => struct StabilityPool.Deposit)",
        "numberOfBytes": "32",
        "value": "t_struct(Deposit)25050_storage"
      },
      "t_mapping(t_address,t_struct(FrontEnd)25045_storage)": {
        "encoding": "mapping",
        "key": "t_address",
        "label": "mapping(address => struct StabilityPool.FrontEnd)",
        "numberOfBytes": "32",
        "value": "t_struct(FrontEnd)25045_storage"
      },
      "t_mapping(t_address,t_struct(Snapshots)25061_storage)": {
        "encoding": "mapping",
        "key": "t_address",
        "label": "mapping(address => struct StabilityPool.Snapshots)",
        "numberOfBytes": "32",
        "value": "t_struct(Snapshots)25061_storage"
      },
      "t_mapping(t_address,t_uint256)": {
        "encoding": "mapping",
        "key": "t_address",
        "label": "mapping(address => uint256)",
        "numberOfBytes": "32",
        "value": "t_uint256"
      },
      "t_mapping(t_uint128,t_mapping(t_uint128,t_uint256))": {
        "encoding": "mapping",
        "key": "t_uint128",
        "label": "mapping(uint128 => mapping(uint128 => uint256))",
        "numberOfBytes": "32",
        "value": "t_mapping(t_uint128,t_uint256)"
      },
      "t_mapping(t_uint128,t_uint256)": {
        "encoding": "mapping",
        "key": "t_uint128",
        "label": "mapping(uint128 => uint256)",
        "numberOfBytes": "32",
        "value": "t_uint256"
      },
      "t_struct(Deposit)25050_storage": {
        "encoding": "inplace",
        "label": "struct StabilityPool.Deposit",
        "members": [
          {
            "astId": 25047,
            "contract": "contracts/B2BContracts/StabilityPool.sol:StabilityPool",
            "label": "initialValue",
            "offset": 0,
            "slot": "0",
            "type": "t_uint256"
          },
          {
            "astId": 25049,
            "contract": "contracts/B2BContracts/StabilityPool.sol:StabilityPool",
            "label": "frontEndTag",
            "offset": 0,
            "slot": "1",
            "type": "t_address"
          }
        ],
        "numberOfBytes": "64"
      },
      "t_struct(FrontEnd)25045_storage": {
        "encoding": "inplace",
        "label": "struct StabilityPool.FrontEnd",
        "members": [
          {
            "astId": 25042,
            "contract": "contracts/B2BContracts/StabilityPool.sol:StabilityPool",
            "label": "kickbackRate",
            "offset": 0,
            "slot": "0",
            "type": "t_uint256"
          },
          {
            "astId": 25044,
            "contract": "contracts/B2BContracts/StabilityPool.sol:StabilityPool",
            "label": "registered",
            "offset": 0,
            "slot": "1",
            "type": "t_bool"
          }
        ],
        "numberOfBytes": "64"
      },
      "t_struct(Snapshots)25061_storage": {
        "encoding": "inplace",
        "label": "struct StabilityPool.Snapshots",
        "members": [
          {
            "astId": 25052,
            "contract": "contracts/B2BContracts/StabilityPool.sol:StabilityPool",
            "label": "S",
            "offset": 0,
            "slot": "0",
            "type": "t_uint256"
          },
          {
            "astId": 25054,
            "contract": "contracts/B2BContracts/StabilityPool.sol:StabilityPool",
            "label": "P",
            "offset": 0,
            "slot": "1",
            "type": "t_uint256"
          },
          {
            "astId": 25056,
            "contract": "contracts/B2BContracts/StabilityPool.sol:StabilityPool",
            "label": "G",
            "offset": 0,
            "slot": "2",
            "type": "t_uint256"
          },
          {
            "astId": 25058,
            "contract": "contracts/B2BContracts/StabilityPool.sol:StabilityPool",
            "label": "scale",
            "offset": 0,
            "slot": "3",
            "type": "t_uint128"
          },
          {
            "astId": 25060,
            "contract": "contracts/B2BContracts/StabilityPool.sol:StabilityPool",
            "label": "epoch",
            "offset": 16,
            "slot": "3",
            "type": "t_uint128"
          }
        ],
        "numberOfBytes": "128"
      },
      "t_uint128": {
        "encoding": "inplace",
        "label": "uint128",
        "numberOfBytes": "16"
      },
      "t_uint256": {
        "encoding": "inplace",
        "label": "uint256",
        "numberOfBytes": "32"
      }
    }
  }
}