{
  "address": "0x1fC2E8E17391811e63Fbd4fef6223c3738407cB6",
  "abi": [
    {
      "anonymous": false,
      "inputs": [
        {
          "indexed": true,
          "internalType": "address",
          "name": "previousOwner",
          "type": "address"
        },
        {
          "indexed": true,
          "internalType": "address",
          "name": "newOwner",
          "type": "address"
        }
      ],
      "name": "OwnershipTransferred",
      "type": "event"
    },
    {
      "inputs": [],
      "name": "ADJUST_RATIO",
      "outputs": [
        {
          "internalType": "uint256",
          "name": "",
          "type": "uint256"
        }
      ],
      "stateMutability": "view",
      "type": "function"
    },
    {
      "inputs": [],
      "name": "BACKED_RATIO",
      "outputs": [
        {
          "internalType": "uint256",
          "name": "",
          "type": "uint256"
        }
      ],
      "stateMutability": "view",
      "type": "function"
    },
    {
      "inputs": [],
      "name": "DECIMAL_PRECISION",
      "outputs": [
        {
          "internalType": "uint256",
          "name": "",
          "type": "uint256"
        }
      ],
      "stateMutability": "view",
      "type": "function"
    },
    {
      "inputs": [],
      "name": "ETH_RATIO",
      "outputs": [
        {
          "internalType": "uint256",
          "name": "",
          "type": "uint256"
        }
      ],
      "stateMutability": "view",
      "type": "function"
    },
    {
      "inputs": [
        {
          "internalType": "address",
          "name": "borrowerOperations",
          "type": "address"
        }
      ],
      "name": "availableAmount",
      "outputs": [
        {
          "internalType": "uint256",
          "name": "",
          "type": "uint256"
        }
      ],
      "stateMutability": "view",
      "type": "function"
    },
    {
      "inputs": [],
      "name": "backedBoAddress",
      "outputs": [
        {
          "internalType": "address",
          "name": "",
          "type": "address"
        }
      ],
      "stateMutability": "view",
      "type": "function"
    },
    {
      "inputs": [
        {
          "internalType": "address",
          "name": "borrowerOperations",
          "type": "address"
        },
        {
          "internalType": "uint256",
          "name": "amount",
          "type": "uint256"
        }
      ],
      "name": "decreaseMint",
      "outputs": [],
      "stateMutability": "nonpayable",
      "type": "function"
    },
    {
      "inputs": [],
      "name": "ethBoAddress",
      "outputs": [
        {
          "internalType": "address",
          "name": "",
          "type": "address"
        }
      ],
      "stateMutability": "view",
      "type": "function"
    },
    {
      "inputs": [
        {
          "internalType": "address",
          "name": "borrowerOperations",
          "type": "address"
        },
        {
          "internalType": "uint256",
          "name": "amount",
          "type": "uint256"
        }
      ],
      "name": "increaseMint",
      "outputs": [],
      "stateMutability": "nonpayable",
      "type": "function"
    },
    {
      "inputs": [
        {
          "internalType": "address",
          "name": "",
          "type": "address"
        }
      ],
      "name": "initMintCaps",
      "outputs": [
        {
          "internalType": "uint256",
          "name": "",
          "type": "uint256"
        }
      ],
      "stateMutability": "view",
      "type": "function"
    },
    {
      "inputs": [],
      "name": "isOwner",
      "outputs": [
        {
          "internalType": "bool",
          "name": "",
          "type": "bool"
        }
      ],
      "stateMutability": "view",
      "type": "function"
    },
    {
      "inputs": [],
      "name": "owner",
      "outputs": [
        {
          "internalType": "address",
          "name": "",
          "type": "address"
        }
      ],
      "stateMutability": "view",
      "type": "function"
    },
    {
      "inputs": [
        {
          "internalType": "address",
          "name": "_troveManagerAddress",
          "type": "address"
        },
        {
          "internalType": "address",
          "name": "_stabilityPoolAddress",
          "type": "address"
        },
        {
          "internalType": "address",
          "name": "_ethBoAddress",
          "type": "address"
        },
        {
          "internalType": "address",
          "name": "_backedBoAddress",
          "type": "address"
        },
        {
          "internalType": "uint256",
          "name": "_initMintCapsOfEthBO",
          "type": "uint256"
        },
        {
          "internalType": "uint256",
          "name": "_initMintCapsOfBackedBO",
          "type": "uint256"
        }
      ],
      "name": "setAddresses",
      "outputs": [],
      "stateMutability": "nonpayable",
      "type": "function"
    },
    {
      "inputs": [],
      "name": "stabilityPoolAddress",
      "outputs": [
        {
          "internalType": "address",
          "name": "",
          "type": "address"
        }
      ],
      "stateMutability": "view",
      "type": "function"
    },
    {
      "inputs": [
        {
          "internalType": "address",
          "name": "",
          "type": "address"
        }
      ],
      "name": "totalSupplys",
      "outputs": [
        {
          "internalType": "uint256",
          "name": "",
          "type": "uint256"
        }
      ],
      "stateMutability": "view",
      "type": "function"
    },
    {
      "inputs": [],
      "name": "troveManagerAddress",
      "outputs": [
        {
          "internalType": "address",
          "name": "",
          "type": "address"
        }
      ],
      "stateMutability": "view",
      "type": "function"
    }
  ],
  "transactionHash": "0x9f30ce19e18151d73535a8fa25adf52d8484a9c056ebbfb0fc104e98b972223e",
  "args": [],
  "numDeployments": 1,
  "solcInputHash": "18508ab469106970bdcb4e830f974b4f",
  "bytecode": "0x608060405234801561001057600080fd5b50600080546001600160a01b0319163390811782556040519091907f8be0079c531659141344cd1fd0a4f28419497f9722a3daafe3b4186f6b6457e0908290a3610d298061005f6000396000f3fe608060405234801561001057600080fd5b50600436106100e05760003560e01c80638da5cb5b116100875780638da5cb5b146101715780638ee31172146101795780638f32d59b1461019f578063a20baee6146101bb578063ab535ba0146101c3578063ba552413146101f1578063c40cbb961461021d578063f8c7068814610243576100e0565b8063052908bb146100e55780630b622ab21461010957806334e952ff146101115780635199e67c1461012b5780635a4d28bb14610133578063654259dd1461013b5780638031cd71146101615780638663e28b14610169575b600080fd5b6100ed61028f565b604080516001600160a01b039092168252519081900360200190f35b6100ed61029e565b6101196102ad565b60408051918252519081900360200190f35b6100ed6102b9565b6100ed6102c8565b6101196004803603602081101561015157600080fd5b50356001600160a01b03166102d7565b61011961052a565b61011961052f565b6100ed610534565b6101196004803603602081101561018f57600080fd5b50356001600160a01b0316610543565b6101a7610555565b604080519115158252519081900360200190f35b610119610566565b6101ef600480360360408110156101d957600080fd5b506001600160a01b038135169060200135610572565b005b6101ef6004803603604081101561020757600080fd5b506001600160a01b03813516906020013561063a565b6101196004803603602081101561023357600080fd5b50356001600160a01b03166106e2565b6101ef600480360360c081101561025957600080fd5b506001600160a01b0381358116916020810135821691604082013581169160608101359091169060808101359060a001356106f4565b6004546001600160a01b031681565b6002546001600160a01b031681565b670f43fc2c04ee000081565b6003546001600160a01b031681565b6001546001600160a01b031681565b6003546000906001600160a01b0383811691161480159061030657506004546001600160a01b03838116911614155b1561031357506000610525565b60035460009081906001600160a01b0385811691161415610430576003546001600160a01b03166000908152600660209081526040808320546005909252909120541115610386576003546001600160a01b03166000908152600660209081526040808320546005909252909120540391505b6004546001600160a01b03166000908152600660205260408120546103e590670de0b6b3a7640000906103cd90670f43fc2c04ee0000906103d99060029084906008610966565b9063ffffffff6109c816565b9063ffffffff61096616565b6003546001600160a01b031660009081526006602052604090205490915081111561042a576003546001600160a01b0316600090815260066020526040902054810391505b50610516565b6004546001600160a01b03166000908152600660209081526040808320546005909252909120541115610488576004546001600160a01b03166000908152600660209081526040808320546005909252909120540391505b6003546001600160a01b03166000908152600660205260408120546104cf90670de0b6b3a7640000906103cd90670f43fc2c04ee0000906103d99060089084906002610966565b6004546001600160a01b0316600090815260066020526040902054909150811115610514576004546001600160a01b0316600090815260066020526040902054810391505b505b6105208282610a0a565b925050505b919050565b600281565b600881565b6000546001600160a01b031690565b60066020526000908152604090205481565b6000546001600160a01b0316331490565b670de0b6b3a764000081565b61057a610a21565b6003546001600160a01b03838116911614806105a357506004546001600160a01b038381169116145b6105f1576040805162461bcd60e51b815260206004820152601a602482015279696e76616c696420626f72726f7765724f7065726174696f6e7360301b604482015290519081900360640190fd5b6001600160a01b03821660009081526006602052604090205461061a908263ffffffff610aab16565b6001600160a01b0390921660009081526006602052604090209190915550565b610642610a21565b6003546001600160a01b038381169116148061066b57506004546001600160a01b038381169116145b6106b9576040805162461bcd60e51b815260206004820152601a602482015279696e76616c696420626f72726f7765724f7065726174696f6e7360301b604482015290519081900360640190fd5b6001600160a01b03821660009081526006602052604090205461061a908263ffffffff610aed16565b60056020526000908152604090205481565b6106fc610555565b61074d576040805162461bcd60e51b815260206004820181905260248201527f4f776e61626c653a2063616c6c6572206973206e6f7420746865206f776e6572604482015290519081900360640190fd5b6001600160a01b0386166107925760405162461bcd60e51b8152600401808060200182810382526024815260200180610cd06024913960400191505060405180910390fd5b6001600160a01b0385166107d75760405162461bcd60e51b8152600401808060200182810382526024815260200180610c8b6024913960400191505060405180910390fd5b6001600160a01b038416610832576040805162461bcd60e51b815260206004820152601d60248201527f5f657468426f41646472657373206973207a65726f2061646472657373000000604482015290519081900360640190fd5b6001600160a01b03831661088d576040805162461bcd60e51b815260206004820181905260248201527f5f6261636b6564426f41646472657373206973207a65726f2061646472657373604482015290519081900360640190fd5b826001600160a01b0316846001600160a01b031614156108f4576040805162461bcd60e51b815260206004820152601e60248201527f626f20616464726573732073686f756c6420626520646966666572656e740000604482015290519081900360640190fd5b600180546001600160a01b03199081166001600160a01b0398891617909155600280548216968816969096179095556003805486169487169490941793849055600480549095169286169290921784559184166000908152600560205260408082209390935592549093168252902055565b600082610975575060006109c2565b8282028284828161098257fe5b04146109bf5760405162461bcd60e51b8152600401808060200182810382526021815260200180610caf6021913960400191505060405180910390fd5b90505b92915050565b60006109bf83836040518060400160405280601a81526020017f536166654d6174683a206469766973696f6e206279207a65726f000000000000815250610b47565b600081831015610a1a57816109bf565b5090919050565b6003546001600160a01b0316331480610a4457506004546001600160a01b031633145b80610a5957506001546001600160a01b031633145b80610a6e57506002546001600160a01b031633145b610aa95760405162461bcd60e51b8152600401808060200182810382526047815260200180610c446047913960600191505060405180910390fd5b565b60006109bf83836040518060400160405280601e81526020017f536166654d6174683a207375627472616374696f6e206f766572666c6f770000815250610be9565b6000828201838110156109bf576040805162461bcd60e51b815260206004820152601b60248201527f536166654d6174683a206164646974696f6e206f766572666c6f770000000000604482015290519081900360640190fd5b60008183610bd35760405162461bcd60e51b81526004018080602001828103825283818151815260200191508051906020019080838360005b83811015610b98578181015183820152602001610b80565b50505050905090810190601f168015610bc55780820380516001836020036101000a031916815260200191505b509250505060405180910390fd5b506000838581610bdf57fe5b0495945050505050565b60008184841115610c3b5760405162461bcd60e51b8152602060048201818152835160248401528351909283926044909101919085019080838360008315610b98578181015183820152602001610b80565b50505090039056fe43616c6c6572206973206e65697468657220426f72726f7765724f7065726174696f6e73206e6f722054726f76654d616e61676572206e6f722053746162696c697479506f6f6c73746162696c697479506f6f6c41646472657373206973207a65726f2061646472657373536166654d6174683a206d756c7469706c69636174696f6e206f766572666c6f775f74726f76654d616e6167657241646472657373206973207a65726f2061646472657373a264697066735822122088e5d662b43cf85ae318bd7fa0f3f28f1bcc17978e6c38720d4c951fab5f618f64736f6c634300060b0033",
  "devdoc": {
    "kind": "dev",
    "methods": {
      "isOwner()": {
        "details": "Returns true if the caller is the current owner."
      },
      "owner()": {
        "details": "Returns the address of the current owner."
      }
    },
    "version": 1
  },
  "userdoc": {
    "kind": "user",
    "methods": {},
    "version": 1
  },
  "storageLayout": {
    "storage": [
      {
        "astId": 7805,
        "contract": "contracts/B2BContracts/StableMintController.sol:StableMintController",
        "label": "_owner",
        "offset": 0,
        "slot": "0",
        "type": "t_address"
      },
      {
        "astId": 27523,
        "contract": "contracts/B2BContracts/StableMintController.sol:StableMintController",
        "label": "troveManagerAddress",
        "offset": 0,
        "slot": "1",
        "type": "t_address"
      },
      {
        "astId": 27525,
        "contract": "contracts/B2BContracts/StableMintController.sol:StableMintController",
        "label": "stabilityPoolAddress",
        "offset": 0,
        "slot": "2",
        "type": "t_address"
      },
      {
        "astId": 27527,
        "contract": "contracts/B2BContracts/StableMintController.sol:StableMintController",
        "label": "ethBoAddress",
        "offset": 0,
        "slot": "3",
        "type": "t_address"
      },
      {
        "astId": 27529,
        "contract": "contracts/B2BContracts/StableMintController.sol:StableMintController",
        "label": "backedBoAddress",
        "offset": 0,
        "slot": "4",
        "type": "t_address"
      },
      {
        "astId": 27533,
        "contract": "contracts/B2BContracts/StableMintController.sol:StableMintController",
        "label": "initMintCaps",
        "offset": 0,
        "slot": "5",
        "type": "t_mapping(t_address,t_uint256)"
      },
      {
        "astId": 27537,
        "contract": "contracts/B2BContracts/StableMintController.sol:StableMintController",
        "label": "totalSupplys",
        "offset": 0,
        "slot": "6",
        "type": "t_mapping(t_address,t_uint256)"
      }
    ],
    "types": {
      "t_address": {
        "encoding": "inplace",
        "label": "address",
        "numberOfBytes": "20"
      },
      "t_mapping(t_address,t_uint256)": {
        "encoding": "mapping",
        "key": "t_address",
        "label": "mapping(address => uint256)",
        "numberOfBytes": "32",
        "value": "t_uint256"
      },
      "t_uint256": {
        "encoding": "inplace",
        "label": "uint256",
        "numberOfBytes": "32"
      }
    }
  }
}