{
  "address": "0x163B1d1EcFb4A122751B23A572f62cEf1cbc9D32",
  "abi": [
    {
      "anonymous": false,
      "inputs": [
        {
          "indexed": false,
          "internalType": "address",
          "name": "_activePoolAddress",
          "type": "address"
        }
      ],
      "name": "ActivePoolAddressChanged",
      "type": "event"
    },
    {
      "anonymous": false,
      "inputs": [
        {
          "indexed": false,
          "internalType": "address",
          "name": "_b2bStakingAddress",
          "type": "address"
        }
      ],
      "name": "B2BStakingAddressChanged",
      "type": "event"
    },
    {
      "anonymous": false,
      "inputs": [
        {
          "indexed": false,
          "internalType": "address",
          "name": "_b2bTokenAddress",
          "type": "address"
        }
      ],
      "name": "B2BTokenAddressChanged",
      "type": "event"
    },
    {
      "anonymous": false,
      "inputs": [
        {
          "indexed": false,
          "internalType": "address",
          "name": "_newBUSDCTokenAddress",
          "type": "address"
        }
      ],
      "name": "BUSDCTokenAddressChanged",
      "type": "event"
    },
    {
      "anonymous": false,
      "inputs": [
        {
          "indexed": false,
          "internalType": "uint256",
          "name": "_baseRate",
          "type": "uint256"
        }
      ],
      "name": "BaseRateUpdated",
      "type": "event"
    },
    {
      "anonymous": false,
      "inputs": [
        {
          "indexed": false,
          "internalType": "address",
          "name": "_newBorrowerOperationsAddress",
          "type": "address"
        }
      ],
      "name": "BorrowerOperationsAddressChanged",
      "type": "event"
    },
    {
      "anonymous": false,
      "inputs": [
        {
          "indexed": false,
          "internalType": "address",
          "name": "_collSurplusPoolAddress",
          "type": "address"
        }
      ],
      "name": "CollSurplusPoolAddressChanged",
      "type": "event"
    },
    {
      "anonymous": false,
      "inputs": [
        {
          "indexed": false,
          "internalType": "address",
          "name": "_defaultPoolAddress",
          "type": "address"
        }
      ],
      "name": "DefaultPoolAddressChanged",
      "type": "event"
    },
    {
      "anonymous": false,
      "inputs": [
        {
          "indexed": false,
          "internalType": "address",
          "name": "_gasPoolAddress",
          "type": "address"
        }
      ],
      "name": "GasPoolAddressChanged",
      "type": "event"
    },
    {
      "anonymous": false,
      "inputs": [
        {
          "indexed": false,
          "internalType": "uint256",
          "name": "_L_ETH",
          "type": "uint256"
        },
        {
          "indexed": false,
          "internalType": "uint256",
          "name": "_L_BUSDCDebt",
          "type": "uint256"
        }
      ],
      "name": "LTermsUpdated",
      "type": "event"
    },
    {
      "anonymous": false,
      "inputs": [
        {
          "indexed": false,
          "internalType": "uint256",
          "name": "_lastFeeOpTime",
          "type": "uint256"
        }
      ],
      "name": "LastFeeOpTimeUpdated",
      "type": "event"
    },
    {
      "anonymous": false,
      "inputs": [
        {
          "indexed": false,
          "internalType": "uint256",
          "name": "_liquidatedDebt",
          "type": "uint256"
        },
        {
          "indexed": false,
          "internalType": "uint256",
          "name": "_liquidatedColl",
          "type": "uint256"
        },
        {
          "indexed": false,
          "internalType": "uint256",
          "name": "_collGasCompensation",
          "type": "uint256"
        },
        {
          "indexed": false,
          "internalType": "uint256",
          "name": "_BUSDCGasCompensation",
          "type": "uint256"
        }
      ],
      "name": "Liquidation",
      "type": "event"
    },
    {
      "anonymous": false,
      "inputs": [
        {
          "indexed": true,
          "internalType": "address",
          "name": "previousOwner",
          "type": "address"
        },
        {
          "indexed": true,
          "internalType": "address",
          "name": "newOwner",
          "type": "address"
        }
      ],
      "name": "OwnershipTransferred",
      "type": "event"
    },
    {
      "anonymous": false,
      "inputs": [
        {
          "indexed": false,
          "internalType": "address",
          "name": "_newPriceFeedAddress",
          "type": "address"
        }
      ],
      "name": "PriceFeedAddressChanged",
      "type": "event"
    },
    {
      "anonymous": false,
      "inputs": [
        {
          "indexed": false,
          "internalType": "uint256",
          "name": "_attemptedBUSDCAmount",
          "type": "uint256"
        },
        {
          "indexed": false,
          "internalType": "uint256",
          "name": "_actualBUSDCAmount",
          "type": "uint256"
        },
        {
          "indexed": false,
          "internalType": "uint256",
          "name": "_ETHSent",
          "type": "uint256"
        },
        {
          "indexed": false,
          "internalType": "uint256",
          "name": "_ETHFee",
          "type": "uint256"
        }
      ],
      "name": "Redemption",
      "type": "event"
    },
    {
      "anonymous": false,
      "inputs": [
        {
          "indexed": false,
          "internalType": "address",
          "name": "_sortedTrovesAddress",
          "type": "address"
        }
      ],
      "name": "SortedTrovesAddressChanged",
      "type": "event"
    },
    {
      "anonymous": false,
      "inputs": [
        {
          "indexed": false,
          "internalType": "address",
          "name": "_stabilityPoolAddress",
          "type": "address"
        }
      ],
      "name": "StabilityPoolAddressChanged",
      "type": "event"
    },
    {
      "anonymous": false,
      "inputs": [
        {
          "indexed": false,
          "internalType": "uint256",
          "name": "_totalStakesSnapshot",
          "type": "uint256"
        },
        {
          "indexed": false,
          "internalType": "uint256",
          "name": "_totalCollateralSnapshot",
          "type": "uint256"
        }
      ],
      "name": "SystemSnapshotsUpdated",
      "type": "event"
    },
    {
      "anonymous": false,
      "inputs": [
        {
          "indexed": false,
          "internalType": "uint256",
          "name": "_newTotalStakes",
          "type": "uint256"
        }
      ],
      "name": "TotalStakesUpdated",
      "type": "event"
    },
    {
      "anonymous": false,
      "inputs": [
        {
          "indexed": false,
          "internalType": "address",
          "name": "_borrower",
          "type": "address"
        },
        {
          "indexed": false,
          "internalType": "uint256",
          "name": "_newIndex",
          "type": "uint256"
        }
      ],
      "name": "TroveIndexUpdated",
      "type": "event"
    },
    {
      "anonymous": false,
      "inputs": [
        {
          "indexed": true,
          "internalType": "address",
          "name": "_borrower",
          "type": "address"
        },
        {
          "indexed": false,
          "internalType": "uint256",
          "name": "_debt",
          "type": "uint256"
        },
        {
          "indexed": false,
          "internalType": "uint256",
          "name": "_coll",
          "type": "uint256"
        },
        {
          "indexed": false,
          "internalType": "enum TroveManager.TroveManagerOperation",
          "name": "_operation",
          "type": "uint8"
        }
      ],
      "name": "TroveLiquidated",
      "type": "event"
    },
    {
      "anonymous": false,
      "inputs": [
        {
          "indexed": false,
          "internalType": "uint256",
          "name": "_L_ETH",
          "type": "uint256"
        },
        {
          "indexed": false,
          "internalType": "uint256",
          "name": "_L_BUSDCDebt",
          "type": "uint256"
        }
      ],
      "name": "TroveSnapshotsUpdated",
      "type": "event"
    },
    {
      "anonymous": false,
      "inputs": [
        {
          "indexed": true,
          "internalType": "address",
          "name": "_borrower",
          "type": "address"
        },
        {
          "indexed": false,
          "internalType": "uint256",
          "name": "_debt",
          "type": "uint256"
        },
        {
          "indexed": false,
          "internalType": "uint256",
          "name": "_coll",
          "type": "uint256"
        },
        {
          "indexed": false,
          "internalType": "uint256",
          "name": "_stake",
          "type": "uint256"
        },
        {
          "indexed": false,
          "internalType": "enum TroveManager.TroveManagerOperation",
          "name": "_operation",
          "type": "uint8"
        }
      ],
      "name": "TroveUpdated",
      "type": "event"
    },
    {
      "inputs": [],
      "name": "BETA",
      "outputs": [
        {
          "internalType": "uint256",
          "name": "",
          "type": "uint256"
        }
      ],
      "stateMutability": "view",
      "type": "function"
    },
    {
      "inputs": [],
      "name": "BOOTSTRAP_PERIOD",
      "outputs": [
        {
          "internalType": "uint256",
          "name": "",
          "type": "uint256"
        }
      ],
      "stateMutability": "view",
      "type": "function"
    },
    {
      "inputs": [],
      "name": "BORROWING_FEE_FLOOR",
      "outputs": [
        {
          "internalType": "uint256",
          "name": "",
          "type": "uint256"
        }
      ],
      "stateMutability": "view",
      "type": "function"
    },
    {
      "inputs": [],
      "name": "BUSDC_GAS_COMPENSATION",
      "outputs": [
        {
          "internalType": "uint256",
          "name": "",
          "type": "uint256"
        }
      ],
      "stateMutability": "view",
      "type": "function"
    },
    {
      "inputs": [],
      "name": "CCR",
      "outputs": [
        {
          "internalType": "uint256",
          "name": "",
          "type": "uint256"
        }
      ],
      "stateMutability": "view",
      "type": "function"
    },
    {
      "inputs": [],
      "name": "DECIMAL_PRECISION",
      "outputs": [
        {
          "internalType": "uint256",
          "name": "",
          "type": "uint256"
        }
      ],
      "stateMutability": "view",
      "type": "function"
    },
    {
      "inputs": [],
      "name": "L_BUSDCDebt",
      "outputs": [
        {
          "internalType": "uint256",
          "name": "",
          "type": "uint256"
        }
      ],
      "stateMutability": "view",
      "type": "function"
    },
    {
      "inputs": [],
      "name": "L_ETH",
      "outputs": [
        {
          "internalType": "uint256",
          "name": "",
          "type": "uint256"
        }
      ],
      "stateMutability": "view",
      "type": "function"
    },
    {
      "inputs": [],
      "name": "MAX_BORROWING_FEE",
      "outputs": [
        {
          "internalType": "uint256",
          "name": "",
          "type": "uint256"
        }
      ],
      "stateMutability": "view",
      "type": "function"
    },
    {
      "inputs": [],
      "name": "MCR",
      "outputs": [
        {
          "internalType": "uint256",
          "name": "",
          "type": "uint256"
        }
      ],
      "stateMutability": "view",
      "type": "function"
    },
    {
      "inputs": [],
      "name": "MINUTE_DECAY_FACTOR",
      "outputs": [
        {
          "internalType": "uint256",
          "name": "",
          "type": "uint256"
        }
      ],
      "stateMutability": "view",
      "type": "function"
    },
    {
      "inputs": [],
      "name": "MIN_NET_DEBT",
      "outputs": [
        {
          "internalType": "uint256",
          "name": "",
          "type": "uint256"
        }
      ],
      "stateMutability": "view",
      "type": "function"
    },
    {
      "inputs": [],
      "name": "NAME",
      "outputs": [
        {
          "internalType": "string",
          "name": "",
          "type": "string"
        }
      ],
      "stateMutability": "view",
      "type": "function"
    },
    {
      "inputs": [],
      "name": "PERCENT_DIVISOR",
      "outputs": [
        {
          "internalType": "uint256",
          "name": "",
          "type": "uint256"
        }
      ],
      "stateMutability": "view",
      "type": "function"
    },
    {
      "inputs": [],
      "name": "REDEMPTION_FEE_FLOOR",
      "outputs": [
        {
          "internalType": "uint256",
          "name": "",
          "type": "uint256"
        }
      ],
      "stateMutability": "view",
      "type": "function"
    },
    {
      "inputs": [],
      "name": "SECONDS_IN_ONE_MINUTE",
      "outputs": [
        {
          "internalType": "uint256",
          "name": "",
          "type": "uint256"
        }
      ],
      "stateMutability": "view",
      "type": "function"
    },
    {
      "inputs": [
        {
          "internalType": "uint256",
          "name": "",
          "type": "uint256"
        }
      ],
      "name": "TroveOwners",
      "outputs": [
        {
          "internalType": "address",
          "name": "",
          "type": "address"
        }
      ],
      "stateMutability": "view",
      "type": "function"
    },
    {
      "inputs": [
        {
          "internalType": "address",
          "name": "",
          "type": "address"
        }
      ],
      "name": "Troves",
      "outputs": [
        {
          "internalType": "uint256",
          "name": "debt",
          "type": "uint256"
        },
        {
          "internalType": "uint256",
          "name": "coll",
          "type": "uint256"
        },
        {
          "internalType": "uint256",
          "name": "stake",
          "type": "uint256"
        },
        {
          "internalType": "enum TroveManager.Status",
          "name": "status",
          "type": "uint8"
        },
        {
          "internalType": "uint128",
          "name": "arrayIndex",
          "type": "uint128"
        }
      ],
      "stateMutability": "view",
      "type": "function"
    },
    {
      "inputs": [],
      "name": "_100pct",
      "outputs": [
        {
          "internalType": "uint256",
          "name": "",
          "type": "uint256"
        }
      ],
      "stateMutability": "view",
      "type": "function"
    },
    {
      "inputs": [],
      "name": "activePool",
      "outputs": [
        {
          "internalType": "contract IActivePool",
          "name": "",
          "type": "address"
        }
      ],
      "stateMutability": "view",
      "type": "function"
    },
    {
      "inputs": [
        {
          "internalType": "address",
          "name": "_borrower",
          "type": "address"
        }
      ],
      "name": "addTroveOwnerToArray",
      "outputs": [
        {
          "internalType": "uint256",
          "name": "index",
          "type": "uint256"
        }
      ],
      "stateMutability": "nonpayable",
      "type": "function"
    },
    {
      "inputs": [
        {
          "internalType": "address",
          "name": "_borrower",
          "type": "address"
        }
      ],
      "name": "applyPendingRewards",
      "outputs": [],
      "stateMutability": "nonpayable",
      "type": "function"
    },
    {
      "inputs": [],
      "name": "b2bStaking",
      "outputs": [
        {
          "internalType": "contract IB2BStaking",
          "name": "",
          "type": "address"
        }
      ],
      "stateMutability": "view",
      "type": "function"
    },
    {
      "inputs": [],
      "name": "b2bToken",
      "outputs": [
        {
          "internalType": "contract IB2BToken",
          "name": "",
          "type": "address"
        }
      ],
      "stateMutability": "view",
      "type": "function"
    },
    {
      "inputs": [],
      "name": "baseRate",
      "outputs": [
        {
          "internalType": "uint256",
          "name": "",
          "type": "uint256"
        }
      ],
      "stateMutability": "view",
      "type": "function"
    },
    {
      "inputs": [
        {
          "internalType": "address[]",
          "name": "_troveArray",
          "type": "address[]"
        }
      ],
      "name": "batchLiquidateTroves",
      "outputs": [],
      "stateMutability": "nonpayable",
      "type": "function"
    },
    {
      "inputs": [],
      "name": "borrowerOperationsAddress",
      "outputs": [
        {
          "internalType": "address",
          "name": "",
          "type": "address"
        }
      ],
      "stateMutability": "view",
      "type": "function"
    },
    {
      "inputs": [],
      "name": "busdcToken",
      "outputs": [
        {
          "internalType": "contract IBUSDCToken",
          "name": "",
          "type": "address"
        }
      ],
      "stateMutability": "view",
      "type": "function"
    },
    {
      "inputs": [
        {
          "internalType": "uint256",
          "name": "_price",
          "type": "uint256"
        }
      ],
      "name": "checkRecoveryMode",
      "outputs": [
        {
          "internalType": "bool",
          "name": "",
          "type": "bool"
        }
      ],
      "stateMutability": "view",
      "type": "function"
    },
    {
      "inputs": [
        {
          "internalType": "address",
          "name": "_borrower",
          "type": "address"
        }
      ],
      "name": "closeTrove",
      "outputs": [],
      "stateMutability": "nonpayable",
      "type": "function"
    },
    {
      "inputs": [],
      "name": "decayBaseRateFromBorrowing",
      "outputs": [],
      "stateMutability": "nonpayable",
      "type": "function"
    },
    {
      "inputs": [
        {
          "internalType": "address",
          "name": "_borrower",
          "type": "address"
        },
        {
          "internalType": "uint256",
          "name": "_collDecrease",
          "type": "uint256"
        }
      ],
      "name": "decreaseTroveColl",
      "outputs": [
        {
          "internalType": "uint256",
          "name": "",
          "type": "uint256"
        }
      ],
      "stateMutability": "nonpayable",
      "type": "function"
    },
    {
      "inputs": [
        {
          "internalType": "address",
          "name": "_borrower",
          "type": "address"
        },
        {
          "internalType": "uint256",
          "name": "_debtDecrease",
          "type": "uint256"
        }
      ],
      "name": "decreaseTroveDebt",
      "outputs": [
        {
          "internalType": "uint256",
          "name": "",
          "type": "uint256"
        }
      ],
      "stateMutability": "nonpayable",
      "type": "function"
    },
    {
      "inputs": [],
      "name": "defaultPool",
      "outputs": [
        {
          "internalType": "contract IDefaultPool",
          "name": "",
          "type": "address"
        }
      ],
      "stateMutability": "view",
      "type": "function"
    },
    {
      "inputs": [
        {
          "internalType": "uint256",
          "name": "_BUSDCDebt",
          "type": "uint256"
        }
      ],
      "name": "getBorrowingFee",
      "outputs": [
        {
          "internalType": "uint256",
          "name": "",
          "type": "uint256"
        }
      ],
      "stateMutability": "view",
      "type": "function"
    },
    {
      "inputs": [
        {
          "internalType": "uint256",
          "name": "_BUSDCDebt",
          "type": "uint256"
        }
      ],
      "name": "getBorrowingFeeWithDecay",
      "outputs": [
        {
          "internalType": "uint256",
          "name": "",
          "type": "uint256"
        }
      ],
      "stateMutability": "view",
      "type": "function"
    },
    {
      "inputs": [],
      "name": "getBorrowingRate",
      "outputs": [
        {
          "internalType": "uint256",
          "name": "",
          "type": "uint256"
        }
      ],
      "stateMutability": "view",
      "type": "function"
    },
    {
      "inputs": [],
      "name": "getBorrowingRateWithDecay",
      "outputs": [
        {
          "internalType": "uint256",
          "name": "",
          "type": "uint256"
        }
      ],
      "stateMutability": "view",
      "type": "function"
    },
    {
      "inputs": [
        {
          "internalType": "address",
          "name": "_borrower",
          "type": "address"
        },
        {
          "internalType": "uint256",
          "name": "_price",
          "type": "uint256"
        }
      ],
      "name": "getCurrentICR",
      "outputs": [
        {
          "internalType": "uint256",
          "name": "",
          "type": "uint256"
        }
      ],
      "stateMutability": "view",
      "type": "function"
    },
    {
      "inputs": [
        {
          "internalType": "address",
          "name": "_borrower",
          "type": "address"
        }
      ],
      "name": "getEntireDebtAndColl",
      "outputs": [
        {
          "internalType": "uint256",
          "name": "debt",
          "type": "uint256"
        },
        {
          "internalType": "uint256",
          "name": "coll",
          "type": "uint256"
        },
        {
          "internalType": "uint256",
          "name": "pendingBUSDCDebtReward",
          "type": "uint256"
        },
        {
          "internalType": "uint256",
          "name": "pendingETHReward",
          "type": "uint256"
        }
      ],
      "stateMutability": "view",
      "type": "function"
    },
    {
      "inputs": [],
      "name": "getEntireSystemColl",
      "outputs": [
        {
          "internalType": "uint256",
          "name": "entireSystemColl",
          "type": "uint256"
        }
      ],
      "stateMutability": "view",
      "type": "function"
    },
    {
      "inputs": [],
      "name": "getEntireSystemDebt",
      "outputs": [
        {
          "internalType": "uint256",
          "name": "entireSystemDebt",
          "type": "uint256"
        }
      ],
      "stateMutability": "view",
      "type": "function"
    },
    {
      "inputs": [
        {
          "internalType": "address",
          "name": "_borrower",
          "type": "address"
        }
      ],
      "name": "getNominalICR",
      "outputs": [
        {
          "internalType": "uint256",
          "name": "",
          "type": "uint256"
        }
      ],
      "stateMutability": "view",
      "type": "function"
    },
    {
      "inputs": [
        {
          "internalType": "address",
          "name": "_borrower",
          "type": "address"
        }
      ],
      "name": "getPendingBUSDCDebtReward",
      "outputs": [
        {
          "internalType": "uint256",
          "name": "",
          "type": "uint256"
        }
      ],
      "stateMutability": "view",
      "type": "function"
    },
    {
      "inputs": [
        {
          "internalType": "address",
          "name": "_borrower",
          "type": "address"
        }
      ],
      "name": "getPendingETHReward",
      "outputs": [
        {
          "internalType": "uint256",
          "name": "",
          "type": "uint256"
        }
      ],
      "stateMutability": "view",
      "type": "function"
    },
    {
      "inputs": [
        {
          "internalType": "uint256",
          "name": "_ETHDrawn",
          "type": "uint256"
        }
      ],
      "name": "getRedemptionFeeWithDecay",
      "outputs": [
        {
          "internalType": "uint256",
          "name": "",
          "type": "uint256"
        }
      ],
      "stateMutability": "view",
      "type": "function"
    },
    {
      "inputs": [],
      "name": "getRedemptionRate",
      "outputs": [
        {
          "internalType": "uint256",
          "name": "",
          "type": "uint256"
        }
      ],
      "stateMutability": "view",
      "type": "function"
    },
    {
      "inputs": [],
      "name": "getRedemptionRateWithDecay",
      "outputs": [
        {
          "internalType": "uint256",
          "name": "",
          "type": "uint256"
        }
      ],
      "stateMutability": "view",
      "type": "function"
    },
    {
      "inputs": [
        {
          "internalType": "uint256",
          "name": "_price",
          "type": "uint256"
        }
      ],
      "name": "getTCR",
      "outputs": [
        {
          "internalType": "uint256",
          "name": "",
          "type": "uint256"
        }
      ],
      "stateMutability": "view",
      "type": "function"
    },
    {
      "inputs": [
        {
          "internalType": "address",
          "name": "_borrower",
          "type": "address"
        }
      ],
      "name": "getTroveColl",
      "outputs": [
        {
          "internalType": "uint256",
          "name": "",
          "type": "uint256"
        }
      ],
      "stateMutability": "view",
      "type": "function"
    },
    {
      "inputs": [
        {
          "internalType": "address",
          "name": "_borrower",
          "type": "address"
        }
      ],
      "name": "getTroveDebt",
      "outputs": [
        {
          "internalType": "uint256",
          "name": "",
          "type": "uint256"
        }
      ],
      "stateMutability": "view",
      "type": "function"
    },
    {
      "inputs": [
        {
          "internalType": "uint256",
          "name": "_index",
          "type": "uint256"
        }
      ],
      "name": "getTroveFromTroveOwnersArray",
      "outputs": [
        {
          "internalType": "address",
          "name": "",
          "type": "address"
        }
      ],
      "stateMutability": "view",
      "type": "function"
    },
    {
      "inputs": [],
      "name": "getTroveOwnersCount",
      "outputs": [
        {
          "internalType": "uint256",
          "name": "",
          "type": "uint256"
        }
      ],
      "stateMutability": "view",
      "type": "function"
    },
    {
      "inputs": [
        {
          "internalType": "address",
          "name": "_borrower",
          "type": "address"
        }
      ],
      "name": "getTroveStake",
      "outputs": [
        {
          "internalType": "uint256",
          "name": "",
          "type": "uint256"
        }
      ],
      "stateMutability": "view",
      "type": "function"
    },
    {
      "inputs": [
        {
          "internalType": "address",
          "name": "_borrower",
          "type": "address"
        }
      ],
      "name": "getTroveStatus",
      "outputs": [
        {
          "internalType": "uint256",
          "name": "",
          "type": "uint256"
        }
      ],
      "stateMutability": "view",
      "type": "function"
    },
    {
      "inputs": [
        {
          "internalType": "address",
          "name": "_borrower",
          "type": "address"
        }
      ],
      "name": "hasPendingRewards",
      "outputs": [
        {
          "internalType": "bool",
          "name": "",
          "type": "bool"
        }
      ],
      "stateMutability": "view",
      "type": "function"
    },
    {
      "inputs": [
        {
          "internalType": "address",
          "name": "_borrower",
          "type": "address"
        },
        {
          "internalType": "uint256",
          "name": "_collIncrease",
          "type": "uint256"
        }
      ],
      "name": "increaseTroveColl",
      "outputs": [
        {
          "internalType": "uint256",
          "name": "",
          "type": "uint256"
        }
      ],
      "stateMutability": "nonpayable",
      "type": "function"
    },
    {
      "inputs": [
        {
          "internalType": "address",
          "name": "_borrower",
          "type": "address"
        },
        {
          "internalType": "uint256",
          "name": "_debtIncrease",
          "type": "uint256"
        }
      ],
      "name": "increaseTroveDebt",
      "outputs": [
        {
          "internalType": "uint256",
          "name": "",
          "type": "uint256"
        }
      ],
      "stateMutability": "nonpayable",
      "type": "function"
    },
    {
      "inputs": [],
      "name": "isOwner",
      "outputs": [
        {
          "internalType": "bool",
          "name": "",
          "type": "bool"
        }
      ],
      "stateMutability": "view",
      "type": "function"
    },
    {
      "inputs": [],
      "name": "lastBUSDCDebtError_Redistribution",
      "outputs": [
        {
          "internalType": "uint256",
          "name": "",
          "type": "uint256"
        }
      ],
      "stateMutability": "view",
      "type": "function"
    },
    {
      "inputs": [],
      "name": "lastETHError_Redistribution",
      "outputs": [
        {
          "internalType": "uint256",
          "name": "",
          "type": "uint256"
        }
      ],
      "stateMutability": "view",
      "type": "function"
    },
    {
      "inputs": [],
      "name": "lastFeeOperationTime",
      "outputs": [
        {
          "internalType": "uint256",
          "name": "",
          "type": "uint256"
        }
      ],
      "stateMutability": "view",
      "type": "function"
    },
    {
      "inputs": [
        {
          "internalType": "address",
          "name": "_borrower",
          "type": "address"
        }
      ],
      "name": "liquidate",
      "outputs": [],
      "stateMutability": "nonpayable",
      "type": "function"
    },
    {
      "inputs": [
        {
          "internalType": "uint256",
          "name": "_n",
          "type": "uint256"
        }
      ],
      "name": "liquidateTroves",
      "outputs": [],
      "stateMutability": "nonpayable",
      "type": "function"
    },
    {
      "inputs": [],
      "name": "owner",
      "outputs": [
        {
          "internalType": "address",
          "name": "",
          "type": "address"
        }
      ],
      "stateMutability": "view",
      "type": "function"
    },
    {
      "inputs": [],
      "name": "priceFeed",
      "outputs": [
        {
          "internalType": "contract IPriceFeed",
          "name": "",
          "type": "address"
        }
      ],
      "stateMutability": "view",
      "type": "function"
    },
    {
      "inputs": [
        {
          "internalType": "uint256",
          "name": "_BUSDCamount",
          "type": "uint256"
        },
        {
          "internalType": "address",
          "name": "_firstRedemptionHint",
          "type": "address"
        },
        {
          "internalType": "address",
          "name": "_upperPartialRedemptionHint",
          "type": "address"
        },
        {
          "internalType": "address",
          "name": "_lowerPartialRedemptionHint",
          "type": "address"
        },
        {
          "internalType": "uint256",
          "name": "_partialRedemptionHintNICR",
          "type": "uint256"
        },
        {
          "internalType": "uint256",
          "name": "_maxIterations",
          "type": "uint256"
        },
        {
          "internalType": "uint256",
          "name": "_maxFeePercentage",
          "type": "uint256"
        }
      ],
      "name": "redeemCollateral",
      "outputs": [],
      "stateMutability": "nonpayable",
      "type": "function"
    },
    {
      "inputs": [
        {
          "internalType": "address",
          "name": "_borrower",
          "type": "address"
        }
      ],
      "name": "removeStake",
      "outputs": [],
      "stateMutability": "nonpayable",
      "type": "function"
    },
    {
      "inputs": [
        {
          "internalType": "address",
          "name": "",
          "type": "address"
        }
      ],
      "name": "rewardSnapshots",
      "outputs": [
        {
          "internalType": "uint256",
          "name": "ETH",
          "type": "uint256"
        },
        {
          "internalType": "uint256",
          "name": "BUSDCDebt",
          "type": "uint256"
        }
      ],
      "stateMutability": "view",
      "type": "function"
    },
    {
      "inputs": [
        {
          "internalType": "address",
          "name": "_borrowerOperationsAddress",
          "type": "address"
        },
        {
          "internalType": "address",
          "name": "_activePoolAddress",
          "type": "address"
        },
        {
          "internalType": "address",
          "name": "_defaultPoolAddress",
          "type": "address"
        },
        {
          "internalType": "address",
          "name": "_stabilityPoolAddress",
          "type": "address"
        },
        {
          "internalType": "address",
          "name": "_gasPoolAddress",
          "type": "address"
        },
        {
          "internalType": "address",
          "name": "_collSurplusPoolAddress",
          "type": "address"
        },
        {
          "internalType": "address",
          "name": "_priceFeedAddress",
          "type": "address"
        },
        {
          "internalType": "address",
          "name": "_busdcTokenAddress",
          "type": "address"
        },
        {
          "internalType": "address",
          "name": "_sortedTrovesAddress",
          "type": "address"
        },
        {
          "internalType": "address",
          "name": "_b2bTokenAddress",
          "type": "address"
        },
        {
          "internalType": "address",
          "name": "_b2bStakingAddress",
          "type": "address"
        },
        {
          "internalType": "address",
          "name": "_stableMintControllerAddress",
          "type": "address"
        }
      ],
      "name": "setAddresses",
      "outputs": [],
      "stateMutability": "nonpayable",
      "type": "function"
    },
    {
      "inputs": [
        {
          "internalType": "address",
          "name": "_borrower",
          "type": "address"
        },
        {
          "internalType": "uint256",
          "name": "_num",
          "type": "uint256"
        }
      ],
      "name": "setTroveStatus",
      "outputs": [],
      "stateMutability": "nonpayable",
      "type": "function"
    },
    {
      "inputs": [],
      "name": "sortedTroves",
      "outputs": [
        {
          "internalType": "contract ISortedTroves",
          "name": "",
          "type": "address"
        }
      ],
      "stateMutability": "view",
      "type": "function"
    },
    {
      "inputs": [],
      "name": "stabilityPool",
      "outputs": [
        {
          "internalType": "contract IStabilityPool",
          "name": "",
          "type": "address"
        }
      ],
      "stateMutability": "view",
      "type": "function"
    },
    {
      "inputs": [],
      "name": "stableMintController",
      "outputs": [
        {
          "internalType": "contract IStableMintController",
          "name": "",
          "type": "address"
        }
      ],
      "stateMutability": "view",
      "type": "function"
    },
    {
      "inputs": [],
      "name": "totalCollateralSnapshot",
      "outputs": [
        {
          "internalType": "uint256",
          "name": "",
          "type": "uint256"
        }
      ],
      "stateMutability": "view",
      "type": "function"
    },
    {
      "inputs": [],
      "name": "totalStakes",
      "outputs": [
        {
          "internalType": "uint256",
          "name": "",
          "type": "uint256"
        }
      ],
      "stateMutability": "view",
      "type": "function"
    },
    {
      "inputs": [],
      "name": "totalStakesSnapshot",
      "outputs": [
        {
          "internalType": "uint256",
          "name": "",
          "type": "uint256"
        }
      ],
      "stateMutability": "view",
      "type": "function"
    },
    {
      "inputs": [
        {
          "internalType": "address",
          "name": "_borrower",
          "type": "address"
        }
      ],
      "name": "updateStakeAndTotalStakes",
      "outputs": [
        {
          "internalType": "uint256",
          "name": "",
          "type": "uint256"
        }
      ],
      "stateMutability": "nonpayable",
      "type": "function"
    },
    {
      "inputs": [
        {
          "internalType": "address",
          "name": "_borrower",
          "type": "address"
        }
      ],
      "name": "updateTroveRewardSnapshots",
      "outputs": [],
      "stateMutability": "nonpayable",
      "type": "function"
    }
  ],
  "transactionHash": "0x02b9593e5f617a8a5ad4d2b015099db8c1d861db54b4b36595bd37bff9c845f1",
  "args": [],
  "numDeployments": 1,
  "solcInputHash": "052db1b2977a134e65dd28d6a893080d",
  "bytecode": "0x608060405234801561001057600080fd5b50600380546001600160a01b031916339081179091556040516000907f8be0079c531659141344cd1fd0a4f28419497f9722a3daafe3b4186f6b6457e0908290a3615bc780620000616000396000f3fe608060405234801561001057600080fd5b50600436106104655760003560e01c8063741bef1a11610257578063b82f263d11610146578063d380a37c116100c3578063e2ac77b011610087578063e2ac77b014610caf578063e89db58514610cd5578063f36b242514610cdd578063f92d343314610680578063fe2ba84814610ce557610465565b8063d380a37c14610c1b578063d3d6f84314610c23578063d5b3563514610c4f578063d66a255314610c6c578063d9a7244414610c9257610465565b8063c52861f21161010a578063c52861f214610bb1578063c7b5548114610bb9578063cbd138ae14610bc1578063d290dcfc14610be7578063d293c71014610bef57610465565b8063b82f263d14610aea578063b91af97c14610b07578063bcd3752614610b53578063bf9befb114610ba1578063c35bc55014610ba957610465565b80638f32d59b116101d4578063a20baee611610198578063a20baee6146108bf578063a3f4df7e14610a37578063ae91875414610ab4578063b0d8e18114610abc578063b7f8cf9b14610ae257610465565b80638f32d59b146109cd57806394caf2cb146109d557806396d711ff146109fb5780639976cf4514610a035780639dd233d214610a2f57610465565b80637f7dde4a1161021b5780637f7dde4a14610987578063807d138d1461098f57806382fe3eb914610997578063887105d3146109bd5780638da5cb5b146109c557610465565b8063741bef1a1461094a578063756b253e14610952578063794e57241461096f578063795d26c314610977578063797250e31461097f57610465565b8063477d66cf1161037357806361ec893d116102f057806366ca4a21116102b457806366ca4a211461081c5780636ef643381461082457806372423c171461089357806372fe25aa146108bf578063734f622d146108c757610465565b806361ec893d146107ac578063631203b0146107b457806364cee260146107d1578063653d46e7146107f75780636590c9721461081457610465565b80635733d58f116103375780635733d58f146107425780635a8aa7d11461074a5780635d6b480f146107525780635d8c96091461077e5780635dba4c4a146107a457610465565b8063477d66cf146106be578063480cd578146106db5780634870dd9a1461070157806349eefeee146107095780634e443d9e1461071157610465565b80631bf435551161040157806324092669116103c5578063240926691461067857806328d28b5b146106805780632b11551a146106885780632f865568146106905780633cc74225146106b657610465565b80631bf43555146105975780631c0925121461059f5780631e8b1c2b146105a75780631f68f20a1461064a57806321e378011461065257610465565b8063048c661d1461046a578063071a75411461048e5780630a494612146104a85780630b076557146104b057806312610e92146104d857806315d549f1146105045780631673c79a1461052a57806318f2817a1461056957806319c6fa1e1461058f575b600080fd5b610472610d0b565b604080516001600160a01b039092168252519081900360200190f35b610496610d1a565b60408051918252519081900360200190f35b610472610d1f565b6104d6600480360360208110156104c657600080fd5b50356001600160a01b0316610d2e565b005b610496600480360360408110156104ee57600080fd5b506001600160a01b038135169060200135610d56565b6104966004803603602081101561051a57600080fd5b50356001600160a01b0316610dae565b6105506004803603602081101561054057600080fd5b50356001600160a01b0316610dd2565b6040805192835260208301919091528051918290030190f35b6104966004803603602081101561057f57600080fd5b50356001600160a01b0316610deb565b610472610dfe565b610496610e0d565b610496610e1a565b6104d6600480360360208110156105bd57600080fd5b8101906020810181356401000000008111156105d857600080fd5b8201836020820111156105ea57600080fd5b8035906020019184602083028401116401000000008311171561060c57600080fd5b919080806020026020016040519081016040528093929190818152602001838360200280828437600092019190915250929550610e27945050505050565b6104966111c9565b6104966004803603602081101561066857600080fd5b50356001600160a01b03166111cf565b6104966111f9565b61049661120c565b61049661121d565b6104d6600480360360208110156106a657600080fd5b50356001600160a01b031661122f565b610472611295565b610496600480360360208110156106d457600080fd5b50356112a4565b610496600480360360208110156106f157600080fd5b50356001600160a01b03166112b7565b6104966112d5565b6104966112da565b61072e6004803603602081101561072757600080fd5b50356112e0565b604080519115158252519081900360200190f35b6104966112eb565b6104966112f7565b6104d66004803603604081101561076857600080fd5b506001600160a01b0381351690602001356112fd565b6104966004803603602081101561079457600080fd5b50356001600160a01b0316611349565b6104d661140f565b610496611475565b610496600480360360208110156107ca57600080fd5b503561147a565b610496600480360360208110156107e757600080fd5b50356001600160a01b0316611487565b6104d66004803603602081101561080d57600080fd5b50356114a5565b610472611853565b610496611862565b61084a6004803603602081101561083a57600080fd5b50356001600160a01b0316611874565b6040518086815260200185815260200184815260200183600481111561086c57fe5b60ff1681526001600160801b03909216602083015250604080519182900301945092505050f35b610496600480360360408110156108a957600080fd5b506001600160a01b0381351690602001356118ae565b61049661190b565b6104d660048036036101808110156108de57600080fd5b506001600160a01b038135811691602081013582169160408201358116916060810135821691608082013581169160a081013582169160c082013581169160e0810135821691610100820135811691610120810135821691610140820135811691610160013516611917565b610472611d26565b6104726004803603602081101561096857600080fd5b5035611d35565b610496611d5c565b610496611d68565b610496611e69565b610472611e6f565b610496611e7e565b6104d6600480360360208110156109ad57600080fd5b50356001600160a01b0316611e84565b610496611e95565b610472611f51565b61072e611f60565b610496600480360360208110156109eb57600080fd5b50356001600160a01b0316611f71565b610496611fa2565b61049660048036036040811015610a1957600080fd5b506001600160a01b038135169060200135611fa8565b610496611fdb565b610a3f611fe1565b6040805160208082528351818301528351919283929083019185019080838360005b83811015610a79578181015183820152602001610a61565b50505050905090810190601f168015610aa65780820380516001836020036101000a031916815260200191505b509250505060405180910390f35b610472612009565b61049660048036036020811015610ad257600080fd5b50356001600160a01b0316612018565b61047261203f565b61049660048036036020811015610b0057600080fd5b503561204e565b610b2d60048036036020811015610b1d57600080fd5b50356001600160a01b0316612059565b604080519485526020850193909352838301919091526060830152519081900360800190f35b6104d6600480360360e0811015610b6957600080fd5b508035906001600160a01b03602082013581169160408101358216916060820135169060808101359060a08101359060c001356120bd565b6104966128d6565b6104966128dc565b6104966128e3565b6104966128f5565b6104d660048036036020811015610bd757600080fd5b50356001600160a01b0316612901565b610472612914565b61049660048036036040811015610c0557600080fd5b506001600160a01b038135169060200135612923565b610496612942565b61049660048036036040811015610c3957600080fd5b506001600160a01b038135169060200135612948565b61049660048036036020811015610c6557600080fd5b503561297e565b61049660048036036020811015610c8257600080fd5b50356001600160a01b0316612991565b61047260048036036020811015610ca857600080fd5b50356129ac565b61072e60048036036020811015610cc557600080fd5b50356001600160a01b03166129d6565b610496612a34565b610496612a3a565b6104d660048036036020811015610cfb57600080fd5b50356001600160a01b0316612a47565b6005546001600160a01b031681565b600281565b600c546001600160a01b031681565b610d36612a58565b600054600154610d53916001600160a01b03908116911683612aa3565b50565b6000610d60612a58565b6001600160a01b0383166000908152600f6020526040812054610d89908463ffffffff612bc516565b6001600160a01b0385166000908152600f602052604090208190559150505b92915050565b6000610db8612a58565b610dc182612c0e565b6001600160801b031690505b919050565b6015602052600090815260409020805460019091015482565b6000610df5612a58565b610da882612ca8565b600a546001600160a01b031681565b686194049f30f720000081565b680ad78ebc5ac620000081565b8051610e645760405162461bcd60e51b81526004018080602001828103825260368152602001806159fe6036913960400191505060405180910390fd5b6000546001546005546001600160a01b03928316929182169116610e86615744565b610e8e615775565b600260009054906101000a90046001600160a01b03166001600160a01b0316630fdb11cf6040518163ffffffff1660e01b8152600401602060405180830381600087803b158015610ede57600080fd5b505af1158015610ef2573d6000803e3d6000fd5b505050506040513d6020811015610f0857600080fd5b50518252604080516379bb58d360e11b815290516001600160a01b0385169163f376b1a6916004808301926020929190829003018186803b158015610f4c57600080fd5b505afa158015610f60573d6000803e3d6000fd5b505050506040513d6020811015610f7657600080fd5b505160208301528151610f8890612d57565b1580156040840152610fb057610fa98585846000015185602001518a612d74565b9050610fc8565b610fc58585846000015185602001518a612fa4565b90505b600081602001511161100b5760405162461bcd60e51b8152600401808060200182810382526022815260200180615b416022913960400191505060405180910390fd5b826001600160a01b031663335525ad82608001518360a001516040518363ffffffff1660e01b81526004018083815260200182815260200192505050600060405180830381600087803b15801561106157600080fd5b505af1158015611075573d6000803e3d6000fd5b5050505061108d85858360c001518460e0015161306c565b6101008101511561110c57600754610100820151604080516364a197f360e01b81526001600160a01b039384166004820152602481019290925251918716916364a197f39160448082019260009290919082900301818387803b1580156110f357600080fd5b505af1158015611107573d6000803e3d6000fd5b505050505b61111a8582604001516132e4565b60208101516060830152610100810151604082015182516111529291611146919063ffffffff612bc516565b9063ffffffff612bc516565b608080840182905260608085015160408086015186840151825193845260208401969096528282015291810193909352517f4152c73dd2614c4f9fc35e8c9cf16013cd588c75b49a4c1673ecffdcbcda94039281900390910190a16111c185338360600151846040015161342b565b505050505050565b600d5481565b6001600160a01b0381166000908152600f602052604081206003015460ff166004811115610da857fe5b6064670de0b6b3a76400005b0460050281565b6103e8670de0b6b3a7640000611205565b600061122a600d5461352e565b905090565b61123881613564565b60408051600180825281830190925260609160208083019080368337019050509050818160008151811061126857fe5b60200260200101906001600160a01b031690816001600160a01b03168152505061129181610e27565b5050565b6001546001600160a01b031681565b6000610da86112b1611862565b836135cc565b6001600160a01b03166000908152600f602052604090206001015490565b60c881565b60165490565b6000610da882612d57565b6714d1120d7b16000081565b60185481565b611305612a58565b80600481111561131157fe5b6001600160a01b0383166000908152600f60205260409020600301805460ff1916600183600481111561134057fe5b02179055505050565b6001600160a01b0381166000908152601560205260408120546013548290611377908363ffffffff612bc516565b90508015806113b0575060016001600160a01b0385166000908152600f602052604090206003015460ff1660048111156113ad57fe5b14155b156113c057600092505050610dcd565b6001600160a01b0384166000908152600f602052604081206002015490611405670de0b6b3a76400006113f9848663ffffffff6135ea16565b9063ffffffff61364316565b9695505050505050565b611417612a58565b6000611421613685565b9050670de0b6b3a764000081111561143557fe5b600d8190556040805182815290517fc454ee9b76c52f782a256af821b857ca6e125d1e3333bcede402fec2bed9600c9181900360200190a1610d536136c9565b603c81565b6000610da86112b1612a3a565b6001600160a01b03166000908152600f602052604090206002015490565b6114ad6157c1565b506040805160e081018252600080546001600160a01b0390811683526001548116602084015292820181905260608201819052600b548316608083015260a0820181905260c0820152600554909116611504615744565b61150c615775565b600260009054906101000a90046001600160a01b03166001600160a01b0316630fdb11cf6040518163ffffffff1660e01b8152600401602060405180830381600087803b15801561155c57600080fd5b505af1158015611570573d6000803e3d6000fd5b505050506040513d602081101561158657600080fd5b50518252604080516379bb58d360e11b815290516001600160a01b0385169163f376b1a6916004808301926020929190829003018186803b1580156115ca57600080fd5b505afa1580156115de573d6000803e3d6000fd5b505050506040513d60208110156115f457600080fd5b50516020830152815161160690612d57565b158015604084015261162d57611626848360000151846020015188613725565b905061164d565b61164a846000015185602001518460000151856020015189613ac0565b90505b60008160200151116116905760405162461bcd60e51b8152600401808060200182810382526022815260200180615b416022913960400191505060405180910390fd5b826001600160a01b031663335525ad82608001518360a001516040518363ffffffff1660e01b81526004018083815260200182815260200192505050600060405180830381600087803b1580156116e657600080fd5b505af11580156116fa573d6000803e3d6000fd5b5050505061171a846000015185602001518360c001518460e0015161306c565b6101008101511561179b578351600754610100830151604080516364a197f360e01b81526001600160a01b03938416600482015260248101929092525191909216916364a197f391604480830192600092919082900301818387803b15801561178257600080fd5b505af1158015611796573d6000803e3d6000fd5b505050505b6117ad846000015182604001516132e4565b60208101516060830152610100810151604082015182516117d99291611146919063ffffffff612bc516565b608080840182905260608085015160408086015186840151825193845260208401969096528282015291810193909352517f4152c73dd2614c4f9fc35e8c9cf16013cd588c75b49a4c1673ecffdcbcda94039281900390910190a161184c8460000151338360600151846040015161342b565b5050505050565b6009546001600160a01b031681565b600061122a61186f613685565b613bf2565b600f6020526000908152604090208054600182015460028301546003909301549192909160ff81169061010090046001600160801b031685565b60006118b8612a58565b6001600160a01b0383166000908152600f60205260408120600101546118e4908463ffffffff613c1916565b6001600160a01b0385166000908152600f6020526040902060010181905591505092915050565b670de0b6b3a764000081565b61191f611f60565b611970576040805162461bcd60e51b815260206004820181905260248201527f4f776e61626c653a2063616c6c6572206973206e6f7420746865206f776e6572604482015290519081900360640190fd5b6119798c613c73565b6119828b613c73565b61198b8a613c73565b61199489613c73565b61199d88613c73565b6119a687613c73565b6119af86613c73565b6119b885613c73565b6119c184613c73565b6119ca83613c73565b6119d382613c73565b6119dc81613c73565b600480546001600160a01b03199081166001600160a01b038f81169182179093556000805483168f85161790556001805483168e85161790556005805483168d85161790556006805483168c85161790556007805483168b85161790556002805483168a8516179055600880548316898516179055600b80548316888516179055600980548316878516179055600a80548316868516179055600c805490921692841692909217905560408051918252517f3ca631ffcd2a9b5d9ae18543fc82f58eb4ca33af9e6ab01b7a8e95331e6ed985916020908290030190a1604080516001600160a01b038d16815290517f78f058b189175430c48dc02699e3a0031ea4ff781536dc2fab847de4babdd8829181900360200190a1604080516001600160a01b038c16815290517f5ee0cae2f063ed938bb55046f6a932fb6ae792bf43624806bb90abe68a50be9b9181900360200190a1604080516001600160a01b038b16815290517f82966d27eea39b038ee0fa30cd16532bb24f6e65d31cb58fb227aa5766cdcc7f9181900360200190a1604080516001600160a01b038a16815290517fcfb07d791fcafc032b35837b50eb84b74df518cf4cc287e8084f47630fa70fa09181900360200190a1604080516001600160a01b038916815290517fe67f36a6e961157d6eff83b91f3af5a62131ceb6f04954ef74f51c1c05e7f88d9181900360200190a1604080516001600160a01b038816815290517f8c537274438aa850a330284665d81a85dd38267d09e4050d416bfc94142db2649181900360200190a1604080516001600160a01b038716815290517f1825f1a57bf1f489b77ce5ad8e53525171443d614f252ad02dff4a43075a61e59181900360200190a1604080516001600160a01b038616815290517f65f4cf077bc01e4742eb5ad98326f6e95b63548ea24b17f8d5e823111fe788009181900360200190a1604080516001600160a01b038516815290517f6a3559bd91ff08bdf91530f14b06fc492cad4972e5155ca9ad4c466d10bcc8709181900360200190a1604080516001600160a01b038416815290517f5e371212c040c5a211d3352b9a1467cdc91837c83b57caf552fc2e01ebb032af9181900360200190a1611d18613d22565b505050505050505050505050565b6002546001600160a01b031681565b60168181548110611d4257fe5b6000918252602090912001546001600160a01b0316905081565b670f43fc2c04ee000081565b6000805460408051632a2c95e760e01b8152905183926001600160a01b031691632a2c95e7916004808301926020929190829003018186803b158015611dad57600080fd5b505afa158015611dc1573d6000803e3d6000fd5b505050506040513d6020811015611dd757600080fd5b505160015460408051632a2c95e760e01b815290519293506000926001600160a01b0390921691632a2c95e791600480820192602092909190829003018186803b158015611e2457600080fd5b505afa158015611e38573d6000803e3d6000fd5b505050506040513d6020811015611e4e57600080fd5b50519050611e62828263ffffffff613c1916565b9250505090565b60175481565b6000546001600160a01b031681565b60115481565b611e8c612a58565b610d5381613d6c565b6000805460408051630a7b61df60e11b8152905183926001600160a01b0316916314f6c3be916004808301926020929190829003018186803b158015611eda57600080fd5b505afa158015611eee573d6000803e3d6000fd5b505050506040513d6020811015611f0457600080fd5b505160015460408051630a7b61df60e11b815290519293506000926001600160a01b03909216916314f6c3be91600480820192602092909190829003018186803b158015611e2457600080fd5b6003546001600160a01b031690565b6003546001600160a01b0316331490565b6001600160a01b0381166000908152601560205260408120600101546014548290611377908363ffffffff612bc516565b60125481565b6000611fb2612a58565b6001600160a01b0383166000908152600f6020526040812054610d89908463ffffffff613c1916565b60135481565b6040518060400160405280600c81526020016b2a3937bb32a6b0b730b3b2b960a11b81525081565b600b546001600160a01b031681565b600080600061202684613dd7565b9150915060006120368383613e5d565b95945050505050565b6004546001600160a01b031681565b6000610da882613e92565b6001600160a01b0381166000908152600f60205260408120805460019091015490918061208585611f71565b915061209085611349565b90506120a2848363ffffffff613c1916565b93506120b4838263ffffffff613c1916565b92509193509193565b6120c56157c1565b506040805160e0810182526000546001600160a01b03908116825260015481166020830152600854811692820192909252600a5482166060820152600b5482166080820152600754821660a082015260065490911660c08201526121276157fd565b61213083613ebe565b612138613f18565b600260009054906101000a90046001600160a01b03166001600160a01b0316630fdb11cf6040518163ffffffff1660e01b8152600401602060405180830381600087803b15801561218857600080fd5b505af115801561219c573d6000803e3d6000fd5b505050506040513d60208110156121b257600080fd5b505160c082018190526121c490613fdc565b6121cd8961402b565b6121dc8260400151338b61406a565b6121e4611d68565b60e0820181905260408084015181516370a0823160e01b815233600482015291516001600160a01b03909116916370a08231916024808301926020929190829003018186803b15801561223657600080fd5b505afa15801561224a573d6000803e3d6000fd5b505050506040513d602081101561226057600080fd5b5051111561226a57fe5b888152608082015160c0820151600091612285918b9061412a565b156122915750876123bb565b82608001516001600160a01b0316634d6228316040518163ffffffff1660e01b815260040160206040518083038186803b1580156122ce57600080fd5b505afa1580156122e2573d6000803e3d6000fd5b505050506040513d60208110156122f857600080fd5b505190505b6001600160a01b038116158015906123295750670f43fc2c04ee0000612327828460c00151612923565b105b156123bb5782608001516001600160a01b031663b72703ac826040518263ffffffff1660e01b815260040180826001600160a01b03166001600160a01b0316815260200191505060206040518083038186803b15801561238857600080fd5b505afa15801561239c573d6000803e3d6000fd5b505050506040513d60208110156123b257600080fd5b505190506122fd565b846123c65760001994505b6001600160a01b038116158015906123de5750815115155b80156123ea5750600085115b1561251e57848060019003955050600083608001516001600160a01b031663b72703ac836040518263ffffffff1660e01b815260040180826001600160a01b03166001600160a01b0316815260200191505060206040518083038186803b15801561245457600080fd5b505afa158015612468573d6000803e3d6000fd5b505050506040513d602081101561247e57600080fd5b5051845160208601519192506124949184612aa3565b61249c615842565b6124b3858486600001518760c001518e8e8e61429d565b90508060400151156124c657505061251e565b805160208501516124dc9163ffffffff613c1916565b60208086019190915281015160408501516124fc9163ffffffff613c1916565b6040850152805184516125149163ffffffff612bc516565b84525090506123c6565b60008260400151116125615760405162461bcd60e51b81526004018080602001828103825260298152602001806158ef6029913960400191505060405180910390fd5b61257882604001518360c001518460e00151614550565b5061258682604001516145f8565b60608301819052604083015161259d919086614605565b82600001516001600160a01b03166364a197f3846060015184606001516040518363ffffffff1660e01b815260040180836001600160a01b03166001600160a01b0316815260200182815260200192505050600060405180830381600087803b15801561260957600080fd5b505af115801561261d573d6000803e3d6000fd5b5050505082606001516001600160a01b0316631e3e2a1a83606001516040518263ffffffff1660e01b815260040180828152602001915050600060405180830381600087803b15801561266f57600080fd5b505af1158015612683573d6000803e3d6000fd5b505050506060820151604083015161269a91612bc5565b8260800181815250507f43a3f4082a4dbc33d78e317d2497d3a730bc7fc3574159dcea1056e62e5d9ad88a8360200151846040015185606001516040518085815260200184815260200183815260200182815260200194505050505060405180910390a1600c546004805460208501516040805163055a9add60e51b81526001600160a01b039384169481019490945260248401919091525192169163ab535ba09160448082019260009290919082900301818387803b15801561275d57600080fd5b505af1158015612771573d6000803e3d6000fd5b5050505082604001516001600160a01b0316639dc29fac3384602001516040518363ffffffff1660e01b815260040180836001600160a01b03166001600160a01b0316815260200182815260200192505050600060405180830381600087803b1580156127dd57600080fd5b505af11580156127f1573d6000803e3d6000fd5b5050505082600001516001600160a01b031663dcf283b483602001516040518263ffffffff1660e01b815260040180828152602001915050600060405180830381600087803b15801561284357600080fd5b505af1158015612857573d6000803e3d6000fd5b505084516080850151604080516364a197f360e01b81523360048201526024810192909252516001600160a01b0390921693506364a197f3925060448082019260009290919082900301818387803b1580156128b257600080fd5b505af11580156128c6573d6000803e3d6000fd5b5050505050505050505050505050565b60105481565b6212750081565b600061122a6128f0613685565b61352e565b670ddd4b8c6c7d70d881565b612909612a58565b610d5381600261467a565b6008546001600160a01b031681565b600080600061293185613dd7565b915091506000611405838387614793565b600e5481565b6000612952612a58565b6001600160a01b0383166000908152600f60205260408120600101546118e4908463ffffffff612bc516565b6000610da861298b6128e3565b836147c3565b6001600160a01b03166000908152600f602052604090205490565b6000601682815481106129bb57fe5b6000918252602090912001546001600160a01b031692915050565b600060016001600160a01b0383166000908152600f602052604090206003015460ff166004811115612a0457fe5b14612a1157506000610dcd565b506013546001600160a01b03821660009081526015602052604090205410919050565b60145481565b600061122a600d54613bf2565b612a4f612a58565b610d5381614822565b6004546001600160a01b03163314612aa15760405162461bcd60e51b815260040180806020018281038252603b8152602001806159c3603b913960400191505060405180910390fd5b565b612aac816129d6565b15612bc057612aba81613564565b6000612ac582611349565b90506000612ad283611f71565b6001600160a01b0384166000908152600f6020526040902060010154909150612b01908363ffffffff613c1916565b6001600160a01b0384166000908152600f60205260409020600181019190915554612b32908263ffffffff613c1916565b6001600160a01b0384166000908152600f6020526040902055612b5483613d6c565b612b6085858385614872565b6001600160a01b0383166000818152600f602090815260408083208054600182015460029092015483519182529381019190915280820192909252606082019290925290516000805160206159a38339815191529181900360800190a250505b505050565b6000612c0783836040518060400160405280601e81526020017f536166654d6174683a207375627472616374696f6e206f766572666c6f770000815250614974565b9392505050565b601680546001808201835560008381527fd833147d7dc355ba459fc788f669e58cfaf9dc25ddcd0702e87d69c7b512428990920180546001600160a01b0319166001600160a01b03861617905591549091612c699190612bc5565b6001600160a01b03929092166000908152600f602052604090206003018054610100600160881b0319166101006001600160801b038516021790555090565b6001600160a01b0381166000908152600f60205260408120600101548190612ccf90614a0b565b6001600160a01b0384166000908152600f6020526040902060020180549082905560105491925090612d19908390612d0d908463ffffffff612bc516565b9063ffffffff613c1916565b601081905560408051918252517f6bac5e0eb3c44eb03a60ab11ec3a2c051771616aecadbcfff2630aabae5203829181900360200190a15092915050565b600080612d6383613e92565b6714d1120d7b160000119392505050565b612d7c615775565b612d84615865565b612d8c615775565b84825260006080830152612d9e611d68565b60a0830152612dab611e95565b60c0830152600060208301525b835182602001511015612f995783826020015181518110612dd557fe5b6020908102919091018101516001600160a01b0316606084018190526000908152600f909152604090206003015460019060ff166004811115612e1457fe5b14612e1e57612f89565b612e2c826060015187612923565b60408301526080820151612f2b57670f43fc2c04ee0000826040015110158015612e5557508151155b15612e5f57612f89565b6000612e748360c001518460a0015189614793565b9050612e918989856060015186604001518760000151868d614a47565b60808101518451919350612eab919063ffffffff612bc516565b8352608082015160a0840151612ec69163ffffffff612bc516565b8360a0018181525050612efb82610100015161114684604001516111468660a001518860c00151612bc590919063ffffffff16565b60c0840152612f0a8483614d7a565b9350612f1f8360c001518460a0015189614e91565b15608084015250612f89565b81608001518015612f475750670f43fc2c04ee00008260400151105b15612f8957612f60888884606001518560000151614eb2565b60808101518351919250612f7a919063ffffffff612bc516565b8252612f868382614d7a565b92505b6020820180516001019052612db8565b505095945050505050565b612fac615775565b612fb4615865565b612fbc615775565b848252600060208301525b835182602001511015612f995783826020015181518110612fe457fe5b60209081029190910101516001600160a01b0316606083018190526130099087612923565b60408301819052670f43fc2c04ee0000111561305c57613033888884606001518560000151614eb2565b6080810151835191925061304d919063ffffffff612bc516565b82526130598382614d7a565b92505b6020820180516001019052612fc7565b81613076576132de565b60175460009061309890612d0d84670de0b6b3a764000063ffffffff6135ea16565b905060006130bd601854612d0d670de0b6b3a7640000876135ea90919063ffffffff16565b905060006130d66010548461364390919063ffffffff16565b905060006130ef6010548461364390919063ffffffff16565b9050613116613109601054846135ea90919063ffffffff16565b859063ffffffff612bc516565b60175560105461313e9061313190839063ffffffff6135ea16565b849063ffffffff612bc516565b601855601354613154908363ffffffff613c1916565b60135560145461316a908263ffffffff613c1916565b601481905560135460408051918252602082019290925281517f9f8bc8ab0daf5bceef75ecfd2085d1fcc6548c657ea970d9a23a60610d0737e3929181900390910190a1876001600160a01b031663dcf283b4876040518263ffffffff1660e01b815260040180828152602001915050600060405180830381600087803b1580156131f457600080fd5b505af1158015613208573d6000803e3d6000fd5b50505050866001600160a01b0316634d1e9c71876040518263ffffffff1660e01b815260040180828152602001915050600060405180830381600087803b15801561325257600080fd5b505af1158015613266573d6000803e3d6000fd5b50505050876001600160a01b03166364a197f388876040518363ffffffff1660e01b815260040180836001600160a01b03166001600160a01b0316815260200182815260200192505050600060405180830381600087803b1580156132ca57600080fd5b505af1158015611d18573d6000803e3d6000fd5b50505050565b6010546011819055506000826001600160a01b03166314f6c3be6040518163ffffffff1660e01b815260040160206040518083038186803b15801561332857600080fd5b505afa15801561333c573d6000803e3d6000fd5b505050506040513d602081101561335257600080fd5b505160015460408051630a7b61df60e11b815290519293506000926001600160a01b03909216916314f6c3be91600480820192602092909190829003018186803b15801561339f57600080fd5b505afa1580156133b3573d6000803e3d6000fd5b505050506040513d60208110156133c957600080fd5b505190506133e181612d0d848663ffffffff612bc516565b601281905560115460408051918252602082019290925281517f51bf4c63ec3cba9d03d43238abbdd979dd91bd16d9895c74ceea9118c7baaf60929181900390910190a150505050565b81156134aa5760085460065460408051631062c15f60e11b81526001600160a01b039283166004820152868316602482015260448101869052905191909216916320c582be91606480830192600092919082900301818387803b15801561349157600080fd5b505af11580156134a5573d6000803e3d6000fd5b505050505b80156132de57836001600160a01b03166364a197f384836040518363ffffffff1660e01b815260040180836001600160a01b03166001600160a01b0316815260200182815260200192505050600060405180830381600087803b15801561351057600080fd5b505af1158015613524573d6000803e3d6000fd5b5050505050505050565b6000610da8613556836103e8670de0b6b3a76400005b04600502613c1990919063ffffffff16565b670de0b6b3a7640000615021565b60016001600160a01b0382166000908152600f602052604090206003015460ff16600481111561359057fe5b14610d535760405162461bcd60e51b815260040180806020018281038252602f815260200180615b63602f913960400191505060405180910390fd5b6000612c07670de0b6b3a76400006113f9858563ffffffff6135ea16565b6000826135f957506000610da8565b8282028284828161360657fe5b0414612c075760405162461bcd60e51b81526004018080602001828103825260218152602001806159826021913960400191505060405180910390fd5b6000612c0783836040518060400160405280601a81526020017f536166654d6174683a206469766973696f6e206279207a65726f000000000000815250615037565b60008061369061509c565b905060006136a6670ddd4b8c6c7d70d8836150b8565b9050611e62670de0b6b3a76400006113f983600d546135ea90919063ffffffff16565b60006136e0600e5442612bc590919063ffffffff16565b9050603c8110610d535742600e81905560408051918252517f860f8d2f0c74dd487e89e2883e3b25b8159ce1e1b3433a291cba7b82c508f3bc9181900360200190a150565b61372d615775565b613735615865565b61373d615775565b8482526000608083015261374f611d68565b60a083015261375c611e95565b8260c001818152505086608001516001600160a01b0316634d6228316040518163ffffffff1660e01b815260040160206040518083038186803b1580156137a257600080fd5b505afa1580156137b6573d6000803e3d6000fd5b505050506040513d60208110156137cc57600080fd5b50516001600160a01b039081166060840152608088015160408051631e22314360e01b815290516000939290921691631e22314391600480820192602092909190829003018186803b15801561382157600080fd5b505afa158015613835573d6000803e3d6000fd5b505050506040513d602081101561384b57600080fd5b50516000602085015290505b8483602001511080156138805750806001600160a01b031683606001516001600160a01b031614155b15613ab557600088608001516001600160a01b031663b72703ac85606001516040518263ffffffff1660e01b815260040180826001600160a01b03166001600160a01b0316815260200191505060206040518083038186803b1580156138e557600080fd5b505afa1580156138f9573d6000803e3d6000fd5b505050506040513d602081101561390f57600080fd5b505160608501519091506139239089612923565b60408501526080840151613a2757670f43fc2c04ee000084604001511015801561394c57508351155b156139575750613ab5565b600061396c8560c001518660a001518b614793565b8a5160208c015160608801516040890151895194955061398d94868f614a47565b608081015186519195506139a7919063ffffffff612bc516565b8552608084015160a08601516139c29163ffffffff612bc516565b8560a00181815250506139f784610100015161114686604001516111468860a001518a60c00151612bc590919063ffffffff16565b60c0860152613a068685614d7a565b9550613a1b8560c001518660a001518b614e91565b15608086015250613a97565b83608001518015613a435750670f43fc2c04ee00008460400151105b15613a9157613a6489600001518a6020015186606001518760000151614eb2565b60808101518551919450613a7e919063ffffffff612bc516565b8452613a8a8584614d7a565b9450613a97565b50613ab5565b6001600160a01b031660608401526020830180516001019052613857565b505050949350505050565b613ac8615775565b613ad0615865565b613ad8615775565b600b54858352600060208401526001600160a01b03165b8483602001511015613be657806001600160a01b0316634d6228316040518163ffffffff1660e01b815260040160206040518083038186803b158015613b3457600080fd5b505afa158015613b48573d6000803e3d6000fd5b505050506040513d6020811015613b5e57600080fd5b50516001600160a01b031660608401819052613b7a9088612923565b60408401819052670f43fc2c04ee00001115613bd157613ba4898985606001518660000151614eb2565b60808101518451919350613bbe919063ffffffff612bc516565b8352613bca8483614d7a565b9350613bd6565b613be6565b6020830180516001019052613aef565b50505095945050505050565b6000610da8613c0c836103e8670de0b6b3a7640000613544565b66b1a2bc2ec50000615021565b600082820183811015612c07576040805162461bcd60e51b815260206004820152601b60248201527f536166654d6174683a206164646974696f6e206f766572666c6f770000000000604482015290519081900360640190fd5b6001600160a01b038116613cce576040805162461bcd60e51b815260206004820152601e60248201527f4163636f756e742063616e6e6f74206265207a65726f20616464726573730000604482015290519081900360640190fd5b803b80611291576040805162461bcd60e51b815260206004820181905260248201527f4163636f756e7420636f64652073697a652063616e6e6f74206265207a65726f604482015290519081900360640190fd5b6003546040516000916001600160a01b0316907f8be0079c531659141344cd1fd0a4f28419497f9722a3daafe3b4186f6b6457e0908390a3600380546001600160a01b0319169055565b601380546001600160a01b0383166000908152601560209081526040918290209283556014546001909301839055925481519081529283019190915280517fc437f324d85e369394148dd9d62f98f534b382e01ed3dd2eb98138fb6d3ab49a9281900390910190a150565b6000806000613de584611349565b90506000613df285611f71565b6001600160a01b0386166000908152600f602052604081206001015491925090613e22908463ffffffff613c1916565b6001600160a01b0387166000908152600f602052604081205491925090613e4f908463ffffffff613c1916565b919550909350505050915091565b60008115613e8957613e82826113f98568056bc75e2d6310000063ffffffff6135ea16565b9050610da8565b50600019610da8565b600080613e9d611e95565b90506000613ea9611d68565b9050613eb6828286614793565b949350505050565b6611c37937e080008110801590613edd5750670de0b6b3a76400008111155b610d535760405162461bcd60e51b8152600401808060200182810382526030815260200180615ae76030913960400191505060405180910390fd5b60095460408051631e425be160e11b815290516000926001600160a01b031691633c84b7c2916004808301926020929190829003018186803b158015613f5d57600080fd5b505afa158015613f71573d6000803e3d6000fd5b505050506040513d6020811015613f8757600080fd5b50519050613f9e816212750063ffffffff613c1916565b421015610d535760405162461bcd60e51b81526004018080602001828103825260408152602001806159426040913960400191505060405180910390fd5b670f43fc2c04ee0000613fee82613e92565b1015610d535760405162461bcd60e51b815260040180806020018281038252602a815260200180615b17602a913960400191505060405180910390fd5b60008111610d535760405162461bcd60e51b815260040180806020018281038252602e815260200180615a34602e913960400191505060405180910390fd5b80836001600160a01b03166370a08231846040518263ffffffff1660e01b815260040180826001600160a01b03166001600160a01b0316815260200191505060206040518083038186803b1580156140c157600080fd5b505afa1580156140d5573d6000803e3d6000fd5b505050506040513d60208110156140eb57600080fd5b50511015612bc05760405162461bcd60e51b815260040180806020018281038252604f815260200180615a98604f913960600191505060405180910390fd5b60006001600160a01b03831615806141c15750836001600160a01b0316635dbe47e8846040518263ffffffff1660e01b815260040180826001600160a01b03166001600160a01b0316815260200191505060206040518083038186803b15801561419357600080fd5b505afa1580156141a7573d6000803e3d6000fd5b505050506040513d60208110156141bd57600080fd5b5051155b806141dc5750670f43fc2c04ee00006141da8484612923565b105b156141e957506000612c07565b6000846001600160a01b031663765e0159856040518263ffffffff1660e01b815260040180826001600160a01b03166001600160a01b0316815260200191505060206040518083038186803b15801561424157600080fd5b505afa158015614255573d6000803e3d6000fd5b505050506040513d602081101561426b57600080fd5b505190506001600160a01b03811615806120365750670f43fc2c04ee00006142938285612923565b1095945050505050565b6142a5615842565b6001600160a01b0387166000908152600f60205260409020546142e29087906142dd90680ad78ebc5ac620000063ffffffff612bc516565b615021565b8082526143039086906113f990670de0b6b3a764000063ffffffff6135ea16565b60208083019190915281516001600160a01b0389166000908152600f90925260408220546143369163ffffffff612bc516565b6020808401516001600160a01b038b166000908152600f9092526040822060010154929350909161436c9163ffffffff612bc516565b9050680ad78ebc5ac62000008214156144055761438889614822565b61439389600461467a565b6143a88a8a680ad78ebc5ac620000084615163565b886001600160a01b03166000805160206159a383398151915260008060006003604051808581526020018481526020018381526020018260038111156143ea57fe5b60ff16815260200194505050505060405180910390a2614542565b60006144118284613e5d565b905084811415806144325750686194049f30f720000061443084615389565b105b156144465750506001604083015250614545565b60808b01516040805163015f109360e51b81526001600160a01b038d81166004830152602482018590528a81166044830152898116606483015291519190921691632be2126091608480830192600092919082900301818387803b1580156144ad57600080fd5b505af11580156144c1573d6000803e3d6000fd5b5050506001600160a01b038b166000908152600f60205260409020848155600101839055506144ef8a612ca8565b506001600160a01b038a166000818152600f6020908152604091829020600201548251878152918201869052818301526003606082015290516000805160206159a38339815191529181900360800190a2505b50505b979650505050505050565b60008061455b613685565b90506000614573846113f9888863ffffffff6135ea16565b9050600061459861458b83600263ffffffff61364316565b849063ffffffff613c1916565b90506145ac81670de0b6b3a7640000615021565b9050600081116145b857fe5b600d8190556040805182815290517fc454ee9b76c52f782a256af821b857ca6e125d1e3333bcede402fec2bed9600c9181900360200190a16114056136c9565b6000610da861298b61121d565b6000614623836113f986670de0b6b3a764000063ffffffff6135ea16565b9050818111156132de576040805162461bcd60e51b815260206004820152601d60248201527f4665652065786365656465642070726f7669646564206d6178696d756d000000604482015290519081900360640190fd5b600081600481111561468857fe5b141580156146a25750600181600481111561469f57fe5b14155b6146a857fe5b6016546146b4816153a4565b6001600160a01b0383166000908152600f60205260409020600301805483919060ff191660018360048111156146e657fe5b02179055506001600160a01b0383166000908152600f60209081526040808320600180820185905590849055601590925282208281550155614728838261545d565b600b5460408051631484968760e11b81526001600160a01b038681166004830152915191909216916329092d0e91602480830192600092919082900301818387803b15801561477657600080fd5b505af115801561478a573d6000803e3d6000fd5b50505050505050565b600082156147ba5760006147b1846113f9878663ffffffff6135ea16565b9150612c079050565b50600019612c07565b6000806147e2670de0b6b3a76400006113f9868663ffffffff6135ea16565b9050828110612c075760405162461bcd60e51b8152600401808060200182810382526036815260200180615a626036913960400191505060405180910390fd5b6001600160a01b0381166000908152600f6020526040902060020154601054614851908263ffffffff612bc516565b601055506001600160a01b03166000908152600f6020526040812060020155565b826001600160a01b031663dcf283b4836040518263ffffffff1660e01b815260040180828152602001915050600060405180830381600087803b1580156148b857600080fd5b505af11580156148cc573d6000803e3d6000fd5b50505050836001600160a01b0316634d1e9c71836040518263ffffffff1660e01b815260040180828152602001915050600060405180830381600087803b15801561491657600080fd5b505af115801561492a573d6000803e3d6000fd5b50505050826001600160a01b031663be41205f826040518263ffffffff1660e01b815260040180828152602001915050600060405180830381600087803b15801561351057600080fd5b60008184841115614a035760405162461bcd60e51b81526004018080602001828103825283818151815260200191508051906020019080838360005b838110156149c85781810151838201526020016149b0565b50505050905090810190601f1680156149f55780820380516001836020036101000a031916815260200191505b509250505060405180910390fd5b505050900390565b60008060125460001415614a20575081610da8565b600060115411614a2c57fe5b612c076012546113f9601154866135ea90919063ffffffff16565b614a4f615775565b614a576158ad565b601654600110614a675750614545565b614a7087612059565b60408501526020848101919091528401819052908352614a8f90615604565b60408301819052680ad78ebc5ac620000060608401526020830151614ab99163ffffffff612bc516565b8152670de0b6b3a76400008611614bc157614ade898983602001518460400151614872565b614ae787614822565b60006080830181905260a0830152815160c0830152805160e0830152614b0e87600361467a565b866001600160a01b03166000805160206158cf83398151915283600001518460200151600260405180848152602001838152602001826003811115614b4f57fe5b60ff168152602001935050505060405180910390a2866001600160a01b03166000805160206159a38339815191526000806000600260405180858152602001848152602001838152602001826003811115614ba657fe5b60ff16815260200194505050505060405180910390a2614d6e565b670de0b6b3a764000086118015614bdf5750670f43fc2c04ee000086105b15614c2f57614bf8898983602001518460400151614872565b614c0187614822565b81518151614c1091908761560b565b60e086015260c085015260a08401526080830152614b0e87600361467a565b670f43fc2c04ee00008610158015614c4657508386105b8015614c53575081518510155b15614d5d57614c6c898983602001518460400151614872565b84614c7357fe5b614c7c87614822565b614c8f8260000151836020015185615677565b9150614c9c87600361467a565b61010082015115614d1c5760075461010083015160408051633f10abab60e01b81526001600160a01b038b81166004830152602482019390935290519190921691633f10abab91604480830192600092919082900301818387803b158015614d0357600080fd5b505af1158015614d17573d6000803e3d6000fd5b505050505b866001600160a01b03166000805160206158cf83398151915283600001518460a00151600260405180848152602001838152602001826003811115614b4f57fe5b614d65615775565b91506145459050565b50979650505050505050565b614d82615775565b60408083015190840151614d9b9163ffffffff613c1916565b604082015260608083015190840151614db99163ffffffff613c1916565b606082015281516020840151614dd49163ffffffff613c1916565b6020808301919091528201518351614df19163ffffffff613c1916565b815260808083015190840151614e0c9163ffffffff613c1916565b608082015260a08083015190840151614e2a9163ffffffff613c1916565b60a082015260c08083015190840151614e489163ffffffff613c1916565b60c082015260e08083015190840151614e669163ffffffff613c1916565b60e08201526101008083015190840151614e859163ffffffff613c1916565b61010082015292915050565b600080614e9f858585614793565b6714d1120d7b1600001195945050505050565b614eba615775565b614ec26158ad565b614ecb84612059565b60408501908152602085810192835286019290925291845290519051614ef5918891889190614872565b614efe84614822565b614f0b8260200151615604565b60408301819052680ad78ebc5ac620000060608401526020830151600091614f39919063ffffffff612bc516565b9050614f4a8360000151828661560b565b60e087015260c086015260a08501526080840152614f6985600361467a565b846001600160a01b03166000805160206158cf83398151915284600001518560200151600160405180848152602001838152602001826003811115614faa57fe5b60ff168152602001935050505060405180910390a2846001600160a01b03166000805160206159a3833981519152600080600060016040518085815260200184815260200183815260200182600381111561500157fe5b60ff16815260200194505050505060405180910390a25050949350505050565b60008183106150305781612c07565b5090919050565b600081836150865760405162461bcd60e51b81526020600482018181528351602484015283519092839260449091019190850190808383600083156149c85781810151838201526020016149b0565b50600083858161509257fe5b0495945050505050565b600061122a603c6113f9600e5442612bc590919063ffffffff16565b6000631f5405008211156150ce57631f54050091505b816150e25750670de0b6b3a7640000610da8565b670de0b6b3a764000083835b60018111156151595760028106615123576151098283615711565b915061511c81600263ffffffff61364316565b9050615154565b61512d8284615711565b92506151398283615711565b915061515160026113f983600163ffffffff612bc516565b90505b6150ee565b6114058284615711565b600c54600480546040805163055a9add60e51b81526001600160a01b0392831693810193909352602483018690525192169163ab535ba09160448082019260009290919082900301818387803b1580156151bc57600080fd5b505af11580156151d0573d6000803e3d6000fd5b505050506040848101516006548251632770a7eb60e21b81526001600160a01b039182166004820152602481018690529251911691639dc29fac91604480830192600092919082900301818387803b15801561522b57600080fd5b505af115801561523f573d6000803e3d6000fd5b5050505083600001516001600160a01b031663dcf283b4836040518263ffffffff1660e01b815260040180828152602001915050600060405180830381600087803b15801561528d57600080fd5b505af11580156152a1573d6000803e3d6000fd5b505050508360a001516001600160a01b0316633f10abab84836040518363ffffffff1660e01b815260040180836001600160a01b03166001600160a01b0316815260200182815260200192505050600060405180830381600087803b15801561530957600080fd5b505af115801561531d573d6000803e3d6000fd5b5050505083600001516001600160a01b03166364a197f38560a00151836040518363ffffffff1660e01b815260040180836001600160a01b03166001600160a01b0316815260200182815260200192505050600060405180830381600087803b15801561351057600080fd5b6000610da882680ad78ebc5ac620000063ffffffff612bc516565b6001811180156154225750600b546040805163de8fa43160e01b815290516001926001600160a01b03169163de8fa431916004808301926020929190829003018186803b1580156153f457600080fd5b505afa158015615408573d6000803e3d6000fd5b505050506040513d602081101561541e57600080fd5b5051115b610d535760405162461bcd60e51b815260040180806020018281038252602a815260200180615918602a913960400191505060405180910390fd5b6001600160a01b0382166000908152600f602052604081206003015460ff169081600481111561548957fe5b141580156154a3575060018160048111156154a057fe5b14155b6154a957fe5b6001600160a01b0383166000908152600f602052604081206003015461010090046001600160801b03169083906154e1826001612bc5565b905080836001600160801b031611156154f657fe5b60006016828154811061550557fe5b600091825260209091200154601680546001600160a01b03909216925082916001600160801b03871690811061553757fe5b600091825260208083209190910180546001600160a01b0319166001600160a01b03948516179055918316808252600f83526040918290206003018054610100600160881b0319166101006001600160801b038a169081029190911790915582519182529281019290925280517f02b04ae5f7be9ca7c103293a2aa15f3c339d15d6eda53b721fef7b0e609c831a9281900390910190a160168054806155d957fe5b600082815260209020810160001990810180546001600160a01b031916905501905550505050505050565b60c8900490565b60008080808415615661576156208786615021565b9350615636876113f9888763ffffffff6135ea16565b9250615648878563ffffffff612bc516565b915061565a868463ffffffff612bc516565b905061566e565b5060009250829150859050845b93509350935093565b61567f615775565b8381526020810183905260006156a7836113f987670f43fc2c04ee000063ffffffff6135ea16565b90506156b281615604565b60408301819052680ad78ebc5ac62000006060840152608083018690526156e090829063ffffffff612bc516565b60a08301526156f5848263ffffffff612bc516565b61010083015250600060c0820181905260e08201529392505050565b600080615724848463ffffffff6135ea16565b9050613eb6670de0b6b3a76400006113f9836706f05b59d3b20000613c19565b6040518060a00160405280600081526020016000815260200160001515815260200160008152602001600081525090565b6040518061012001604052806000815260200160008152602001600081526020016000815260200160008152602001600081526020016000815260200160008152602001600081525090565b6040805160e081018252600080825260208201819052918101829052606081018290526080810182905260a0810182905260c081019190915290565b60405180610100016040528060008152602001600081526020016000815260200160008152602001600081526020016000815260200160008152602001600081525090565b604051806060016040528060008152602001600081526020016000151581525090565b6040518060e0016040528060008152602001600081526020016000815260200160006001600160a01b0316815260200160001515815260200160008152602001600081525090565b6040518060600160405280600081526020016000815260200160008152509056feea67486ed7ebe3eea8ab3390efd4a3c8aae48be5bea27df104a8af786c40843454726f76654d616e616765723a20556e61626c6520746f2072656465656d20616e7920616d6f756e7454726f76654d616e616765723a204f6e6c79206f6e652074726f766520696e207468652073797374656d54726f76654d616e616765723a20526564656d7074696f6e7320617265206e6f7420616c6c6f77656420647572696e6720626f6f747374726170207068617365536166654d6174683a206d756c7469706c69636174696f6e206f766572666c6f77c3770d654ed33aeea6bf11ac8ef05d02a6a04ed4686dd2f624d853bbec43cc8b54726f76654d616e616765723a2043616c6c6572206973206e6f742074686520426f72726f7765724f7065726174696f6e7320636f6e747261637454726f76654d616e616765723a2043616c6c646174612061646472657373206172726179206d757374206e6f7420626520656d70747954726f76654d616e616765723a20416d6f756e74206d7573742062652067726561746572207468616e207a65726f54726f76654d616e616765723a2046656520776f756c642065617420757020616c6c2072657475726e656420636f6c6c61746572616c54726f76654d616e616765723a2052657175657374656420726564656d7074696f6e20616d6f756e74206d757374206265203c3d2075736572277320425553444320746f6b656e2062616c616e63654d6178206665652070657263656e74616765206d757374206265206265747765656e20302e352520616e64203130302554726f76654d616e616765723a2043616e6e6f742072656465656d207768656e20544352203c204d435254726f76654d616e616765723a206e6f7468696e6720746f206c697175696461746554726f76654d616e616765723a2054726f766520646f6573206e6f74206578697374206f7220697320636c6f736564a2646970667358221220f65e887fc834176ad1111ae8640bf957c196f3414df9a3a392ebf3b5330c16a164736f6c634300060b0033",
  "devdoc": {
    "kind": "dev",
    "methods": {
      "isOwner()": {
        "details": "Returns true if the caller is the current owner."
      },
      "owner()": {
        "details": "Returns the address of the current owner."
      }
    },
    "version": 1
  },
  "userdoc": {
    "kind": "user",
    "methods": {},
    "version": 1
  },
  "storageLayout": {
    "storage": [
      {
        "astId": 7319,
        "contract": "contracts/B2BContracts/TroveManager.sol:TroveManager",
        "label": "activePool",
        "offset": 0,
        "slot": "0",
        "type": "t_contract(IActivePool)18578"
      },
      {
        "astId": 7321,
        "contract": "contracts/B2BContracts/TroveManager.sol:TroveManager",
        "label": "defaultPool",
        "offset": 0,
        "slot": "1",
        "type": "t_contract(IDefaultPool)19092"
      },
      {
        "astId": 7324,
        "contract": "contracts/B2BContracts/TroveManager.sol:TroveManager",
        "label": "priceFeed",
        "offset": 0,
        "slot": "2",
        "type": "t_contract(IPriceFeed)19198"
      },
      {
        "astId": 7805,
        "contract": "contracts/B2BContracts/TroveManager.sol:TroveManager",
        "label": "_owner",
        "offset": 0,
        "slot": "3",
        "type": "t_address"
      },
      {
        "astId": 31468,
        "contract": "contracts/B2BContracts/TroveManager.sol:TroveManager",
        "label": "borrowerOperationsAddress",
        "offset": 0,
        "slot": "4",
        "type": "t_address"
      },
      {
        "astId": 31471,
        "contract": "contracts/B2BContracts/TroveManager.sol:TroveManager",
        "label": "stabilityPool",
        "offset": 0,
        "slot": "5",
        "type": "t_contract(IStabilityPool)19568"
      },
      {
        "astId": 31473,
        "contract": "contracts/B2BContracts/TroveManager.sol:TroveManager",
        "label": "gasPoolAddress",
        "offset": 0,
        "slot": "6",
        "type": "t_address"
      },
      {
        "astId": 31475,
        "contract": "contracts/B2BContracts/TroveManager.sol:TroveManager",
        "label": "collSurplusPool",
        "offset": 0,
        "slot": "7",
        "type": "t_contract(ICollSurplusPool)19035"
      },
      {
        "astId": 31478,
        "contract": "contracts/B2BContracts/TroveManager.sol:TroveManager",
        "label": "busdcToken",
        "offset": 0,
        "slot": "8",
        "type": "t_contract(IBUSDCToken)18787"
      },
      {
        "astId": 31481,
        "contract": "contracts/B2BContracts/TroveManager.sol:TroveManager",
        "label": "b2bToken",
        "offset": 0,
        "slot": "9",
        "type": "t_contract(IB2BToken)18728"
      },
      {
        "astId": 31484,
        "contract": "contracts/B2BContracts/TroveManager.sol:TroveManager",
        "label": "b2bStaking",
        "offset": 0,
        "slot": "10",
        "type": "t_contract(IB2BStaking)18690"
      },
      {
        "astId": 31486,
        "contract": "contracts/B2BContracts/TroveManager.sol:TroveManager",
        "label": "sortedTroves",
        "offset": 0,
        "slot": "11",
        "type": "t_contract(ISortedTroves)19330"
      },
      {
        "astId": 31488,
        "contract": "contracts/B2BContracts/TroveManager.sol:TroveManager",
        "label": "stableMintController",
        "offset": 0,
        "slot": "12",
        "type": "t_contract(IStableMintController)6784"
      },
      {
        "astId": 31516,
        "contract": "contracts/B2BContracts/TroveManager.sol:TroveManager",
        "label": "baseRate",
        "offset": 0,
        "slot": "13",
        "type": "t_uint256"
      },
      {
        "astId": 31518,
        "contract": "contracts/B2BContracts/TroveManager.sol:TroveManager",
        "label": "lastFeeOperationTime",
        "offset": 0,
        "slot": "14",
        "type": "t_uint256"
      },
      {
        "astId": 31539,
        "contract": "contracts/B2BContracts/TroveManager.sol:TroveManager",
        "label": "Troves",
        "offset": 0,
        "slot": "15",
        "type": "t_mapping(t_address,t_struct(Trove)31535_storage)"
      },
      {
        "astId": 31541,
        "contract": "contracts/B2BContracts/TroveManager.sol:TroveManager",
        "label": "totalStakes",
        "offset": 0,
        "slot": "16",
        "type": "t_uint256"
      },
      {
        "astId": 31543,
        "contract": "contracts/B2BContracts/TroveManager.sol:TroveManager",
        "label": "totalStakesSnapshot",
        "offset": 0,
        "slot": "17",
        "type": "t_uint256"
      },
      {
        "astId": 31545,
        "contract": "contracts/B2BContracts/TroveManager.sol:TroveManager",
        "label": "totalCollateralSnapshot",
        "offset": 0,
        "slot": "18",
        "type": "t_uint256"
      },
      {
        "astId": 31547,
        "contract": "contracts/B2BContracts/TroveManager.sol:TroveManager",
        "label": "L_ETH",
        "offset": 0,
        "slot": "19",
        "type": "t_uint256"
      },
      {
        "astId": 31549,
        "contract": "contracts/B2BContracts/TroveManager.sol:TroveManager",
        "label": "L_BUSDCDebt",
        "offset": 0,
        "slot": "20",
        "type": "t_uint256"
      },
      {
        "astId": 31553,
        "contract": "contracts/B2BContracts/TroveManager.sol:TroveManager",
        "label": "rewardSnapshots",
        "offset": 0,
        "slot": "21",
        "type": "t_mapping(t_address,t_struct(RewardSnapshot)31558_storage)"
      },
      {
        "astId": 31561,
        "contract": "contracts/B2BContracts/TroveManager.sol:TroveManager",
        "label": "TroveOwners",
        "offset": 0,
        "slot": "22",
        "type": "t_array(t_address)dyn_storage"
      },
      {
        "astId": 31563,
        "contract": "contracts/B2BContracts/TroveManager.sol:TroveManager",
        "label": "lastETHError_Redistribution",
        "offset": 0,
        "slot": "23",
        "type": "t_uint256"
      },
      {
        "astId": 31565,
        "contract": "contracts/B2BContracts/TroveManager.sol:TroveManager",
        "label": "lastBUSDCDebtError_Redistribution",
        "offset": 0,
        "slot": "24",
        "type": "t_uint256"
      }
    ],
    "types": {
      "t_address": {
        "encoding": "inplace",
        "label": "address",
        "numberOfBytes": "20"
      },
      "t_array(t_address)dyn_storage": {
        "base": "t_address",
        "encoding": "dynamic_array",
        "label": "address[]",
        "numberOfBytes": "32"
      },
      "t_contract(IActivePool)18578": {
        "encoding": "inplace",
        "label": "contract IActivePool",
        "numberOfBytes": "20"
      },
      "t_contract(IB2BStaking)18690": {
        "encoding": "inplace",
        "label": "contract IB2BStaking",
        "numberOfBytes": "20"
      },
      "t_contract(IB2BToken)18728": {
        "encoding": "inplace",
        "label": "contract IB2BToken",
        "numberOfBytes": "20"
      },
      "t_contract(IBUSDCToken)18787": {
        "encoding": "inplace",
        "label": "contract IBUSDCToken",
        "numberOfBytes": "20"
      },
      "t_contract(ICollSurplusPool)19035": {
        "encoding": "inplace",
        "label": "contract ICollSurplusPool",
        "numberOfBytes": "20"
      },
      "t_contract(IDefaultPool)19092": {
        "encoding": "inplace",
        "label": "contract IDefaultPool",
        "numberOfBytes": "20"
      },
      "t_contract(IPriceFeed)19198": {
        "encoding": "inplace",
        "label": "contract IPriceFeed",
        "numberOfBytes": "20"
      },
      "t_contract(ISortedTroves)19330": {
        "encoding": "inplace",
        "label": "contract ISortedTroves",
        "numberOfBytes": "20"
      },
      "t_contract(IStabilityPool)19568": {
        "encoding": "inplace",
        "label": "contract IStabilityPool",
        "numberOfBytes": "20"
      },
      "t_contract(IStableMintController)6784": {
        "encoding": "inplace",
        "label": "contract IStableMintController",
        "numberOfBytes": "20"
      },
      "t_enum(Status)31524": {
        "encoding": "inplace",
        "label": "enum TroveManager.Status",
        "numberOfBytes": "1"
      },
      "t_mapping(t_address,t_struct(RewardSnapshot)31558_storage)": {
        "encoding": "mapping",
        "key": "t_address",
        "label": "mapping(address => struct TroveManager.RewardSnapshot)",
        "numberOfBytes": "32",
        "value": "t_struct(RewardSnapshot)31558_storage"
      },
      "t_mapping(t_address,t_struct(Trove)31535_storage)": {
        "encoding": "mapping",
        "key": "t_address",
        "label": "mapping(address => struct TroveManager.Trove)",
        "numberOfBytes": "32",
        "value": "t_struct(Trove)31535_storage"
      },
      "t_struct(RewardSnapshot)31558_storage": {
        "encoding": "inplace",
        "label": "struct TroveManager.RewardSnapshot",
        "members": [
          {
            "astId": 31555,
            "contract": "contracts/B2BContracts/TroveManager.sol:TroveManager",
            "label": "ETH",
            "offset": 0,
            "slot": "0",
            "type": "t_uint256"
          },
          {
            "astId": 31557,
            "contract": "contracts/B2BContracts/TroveManager.sol:TroveManager",
            "label": "BUSDCDebt",
            "offset": 0,
            "slot": "1",
            "type": "t_uint256"
          }
        ],
        "numberOfBytes": "64"
      },
      "t_struct(Trove)31535_storage": {
        "encoding": "inplace",
        "label": "struct TroveManager.Trove",
        "members": [
          {
            "astId": 31526,
            "contract": "contracts/B2BContracts/TroveManager.sol:TroveManager",
            "label": "debt",
            "offset": 0,
            "slot": "0",
            "type": "t_uint256"
          },
          {
            "astId": 31528,
            "contract": "contracts/B2BContracts/TroveManager.sol:TroveManager",
            "label": "coll",
            "offset": 0,
            "slot": "1",
            "type": "t_uint256"
          },
          {
            "astId": 31530,
            "contract": "contracts/B2BContracts/TroveManager.sol:TroveManager",
            "label": "stake",
            "offset": 0,
            "slot": "2",
            "type": "t_uint256"
          },
          {
            "astId": 31532,
            "contract": "contracts/B2BContracts/TroveManager.sol:TroveManager",
            "label": "status",
            "offset": 0,
            "slot": "3",
            "type": "t_enum(Status)31524"
          },
          {
            "astId": 31534,
            "contract": "contracts/B2BContracts/TroveManager.sol:TroveManager",
            "label": "arrayIndex",
            "offset": 1,
            "slot": "3",
            "type": "t_uint128"
          }
        ],
        "numberOfBytes": "128"
      },
      "t_uint128": {
        "encoding": "inplace",
        "label": "uint128",
        "numberOfBytes": "16"
      },
      "t_uint256": {
        "encoding": "inplace",
        "label": "uint256",
        "numberOfBytes": "32"
      }
    }
  }
}